{
  "_format": "hh-sol-artifact-1",
  "contractName": "Meson",
  "sourceName": "contracts/Meson.sol",
  "abi": [
    {
      "inputs": [
        {
          "internalType": "address[]",
          "name": "supportedTokens",
          "type": "address[]"
        }
      ],
      "stateMutability": "nonpayable",
      "type": "constructor"
    },
    {
      "anonymous": false,
      "inputs": [
        {
          "indexed": false,
          "internalType": "bytes32",
          "name": "swapId",
          "type": "bytes32"
        }
      ],
      "name": "SwapBonded",
      "type": "event"
    },
    {
      "anonymous": false,
      "inputs": [
        {
          "indexed": false,
          "internalType": "bytes32",
          "name": "swapId",
          "type": "bytes32"
        }
      ],
      "name": "SwapCancelled",
      "type": "event"
    },
    {
      "anonymous": false,
      "inputs": [
        {
          "indexed": false,
          "internalType": "bytes32",
          "name": "swapId",
          "type": "bytes32"
        }
      ],
      "name": "SwapExecuted",
      "type": "event"
    },
    {
      "anonymous": false,
      "inputs": [
        {
          "indexed": false,
          "internalType": "bytes32",
          "name": "swapId",
          "type": "bytes32"
        }
      ],
      "name": "SwapLocked",
      "type": "event"
    },
    {
      "anonymous": false,
      "inputs": [
        {
          "indexed": false,
          "internalType": "bytes32",
          "name": "swapId",
          "type": "bytes32"
        }
      ],
      "name": "SwapPosted",
      "type": "event"
    },
    {
      "anonymous": false,
      "inputs": [
        {
          "indexed": false,
          "internalType": "bytes32",
          "name": "swapId",
          "type": "bytes32"
        }
      ],
      "name": "SwapReleased",
      "type": "event"
    },
    {
      "anonymous": false,
      "inputs": [
        {
          "indexed": false,
          "internalType": "bytes32",
          "name": "swapId",
          "type": "bytes32"
        }
      ],
      "name": "SwapRequested",
      "type": "event"
    },
    {
      "inputs": [
        {
          "internalType": "uint40",
          "name": "",
          "type": "uint40"
        }
      ],
      "name": "addressOfIndex",
      "outputs": [
        {
          "internalType": "address",
          "name": "",
          "type": "address"
        }
      ],
      "stateMutability": "view",
      "type": "function"
    },
    {
      "inputs": [
        {
          "internalType": "address",
          "name": "token",
          "type": "address"
        },
        {
          "internalType": "address",
          "name": "addr",
          "type": "address"
        }
      ],
      "name": "balanceOf",
      "outputs": [
        {
          "internalType": "uint128",
          "name": "",
          "type": "uint128"
        }
      ],
      "stateMutability": "view",
      "type": "function"
    },
    {
      "inputs": [
        {
          "internalType": "bytes32",
          "name": "swapId",
          "type": "bytes32"
        },
        {
          "internalType": "uint40",
          "name": "providerIndex",
          "type": "uint40"
        }
      ],
      "name": "bondSwap",
      "outputs": [],
      "stateMutability": "nonpayable",
      "type": "function"
    },
    {
      "inputs": [
        {
          "internalType": "uint256",
          "name": "encodedSwap",
          "type": "uint256"
        }
      ],
      "name": "cancelSwap",
      "outputs": [],
      "stateMutability": "nonpayable",
      "type": "function"
    },
    {
      "inputs": [
        {
          "internalType": "uint128",
          "name": "amount",
          "type": "uint128"
        },
        {
          "internalType": "uint48",
          "name": "balanceIndex",
          "type": "uint48"
        }
      ],
      "name": "deposit",
      "outputs": [],
      "stateMutability": "nonpayable",
      "type": "function"
    },
    {
      "inputs": [
        {
          "internalType": "uint128",
          "name": "amount",
          "type": "uint128"
        },
        {
          "internalType": "uint48",
          "name": "balanceIndex",
          "type": "uint48"
        }
      ],
      "name": "depositAndRegister",
      "outputs": [],
      "stateMutability": "nonpayable",
      "type": "function"
    },
    {
      "inputs": [
        {
          "internalType": "uint256",
          "name": "encodedSwap",
          "type": "uint256"
        },
        {
          "internalType": "bytes32",
          "name": "recipientHash",
          "type": "bytes32"
        },
        {
          "internalType": "bytes32",
          "name": "r",
          "type": "bytes32"
        },
        {
          "internalType": "bytes32",
          "name": "s",
          "type": "bytes32"
        },
        {
          "internalType": "uint8",
          "name": "v",
          "type": "uint8"
        },
        {
          "internalType": "bool",
          "name": "depositToPool",
          "type": "bool"
        }
      ],
      "name": "executeSwap",
      "outputs": [],
      "stateMutability": "nonpayable",
      "type": "function"
    },
    {
      "inputs": [],
      "name": "getCoinType",
      "outputs": [
        {
          "internalType": "bytes4",
          "name": "",
          "type": "bytes4"
        }
      ],
      "stateMutability": "pure",
      "type": "function"
    },
    {
      "inputs": [
        {
          "internalType": "bytes32",
          "name": "swapId",
          "type": "bytes32"
        }
      ],
      "name": "getLockedSwap",
      "outputs": [
        {
          "internalType": "address",
          "name": "initiator",
          "type": "address"
        },
        {
          "internalType": "address",
          "name": "provider",
          "type": "address"
        },
        {
          "internalType": "uint40",
          "name": "until",
          "type": "uint40"
        }
      ],
      "stateMutability": "view",
      "type": "function"
    },
    {
      "inputs": [
        {
          "internalType": "bytes32",
          "name": "swapId",
          "type": "bytes32"
        }
      ],
      "name": "getSwap",
      "outputs": [
        {
          "internalType": "address",
          "name": "initiator",
          "type": "address"
        },
        {
          "internalType": "address",
          "name": "provider",
          "type": "address"
        }
      ],
      "stateMutability": "view",
      "type": "function"
    },
    {
      "inputs": [
        {
          "internalType": "address",
          "name": "",
          "type": "address"
        }
      ],
      "name": "indexOfAddress",
      "outputs": [
        {
          "internalType": "uint40",
          "name": "",
          "type": "uint40"
        }
      ],
      "stateMutability": "view",
      "type": "function"
    },
    {
      "inputs": [
        {
          "internalType": "address",
          "name": "token",
          "type": "address"
        }
      ],
      "name": "indexOfToken",
      "outputs": [
        {
          "internalType": "uint8",
          "name": "",
          "type": "uint8"
        }
      ],
      "stateMutability": "view",
      "type": "function"
    },
    {
      "inputs": [
        {
          "internalType": "uint256",
          "name": "encodedSwap",
          "type": "uint256"
        },
        {
          "internalType": "bytes32",
          "name": "domainHash",
          "type": "bytes32"
        },
        {
          "internalType": "bytes32",
          "name": "r",
          "type": "bytes32"
        },
        {
          "internalType": "bytes32",
          "name": "s",
          "type": "bytes32"
        },
        {
          "internalType": "uint8",
          "name": "v",
          "type": "uint8"
        },
        {
          "internalType": "address",
          "name": "initiator",
          "type": "address"
        }
      ],
      "name": "lock",
      "outputs": [],
      "stateMutability": "nonpayable",
      "type": "function"
    },
    {
      "inputs": [
        {
          "internalType": "uint256",
          "name": "encodedSwap",
          "type": "uint256"
        },
        {
          "internalType": "bytes32",
          "name": "r",
          "type": "bytes32"
        },
        {
          "internalType": "bytes32",
          "name": "s",
          "type": "bytes32"
        },
        {
          "internalType": "uint208",
          "name": "packedData",
          "type": "uint208"
        }
      ],
      "name": "postSwap",
      "outputs": [],
      "stateMutability": "nonpayable",
      "type": "function"
    },
    {
      "inputs": [
        {
          "internalType": "uint256",
          "name": "encodedSwap",
          "type": "uint256"
        },
        {
          "internalType": "bytes32",
          "name": "domainHash",
          "type": "bytes32"
        },
        {
          "internalType": "bytes32",
          "name": "r",
          "type": "bytes32"
        },
        {
          "internalType": "bytes32",
          "name": "s",
          "type": "bytes32"
        },
        {
          "internalType": "uint8",
          "name": "v",
          "type": "uint8"
        },
        {
          "internalType": "address",
          "name": "recipient",
          "type": "address"
        }
      ],
      "name": "release",
      "outputs": [],
      "stateMutability": "nonpayable",
      "type": "function"
    },
    {
      "inputs": [
        {
          "internalType": "uint256",
          "name": "encodedSwap",
          "type": "uint256"
        }
      ],
      "name": "requestSwap",
      "outputs": [],
      "stateMutability": "nonpayable",
      "type": "function"
    },
    {
      "inputs": [
        {
          "internalType": "uint8",
          "name": "tokenIndex",
          "type": "uint8"
        }
      ],
      "name": "tokenForIndex",
      "outputs": [
        {
          "internalType": "address",
          "name": "",
          "type": "address"
        }
      ],
      "stateMutability": "view",
      "type": "function"
    },
    {
      "inputs": [
        {
          "internalType": "uint256",
          "name": "encodedSwap",
          "type": "uint256"
        },
        {
          "internalType": "bytes32",
          "name": "domainHash",
          "type": "bytes32"
        }
      ],
      "name": "unlock",
      "outputs": [],
      "stateMutability": "nonpayable",
      "type": "function"
    },
    {
      "inputs": [
        {
          "internalType": "uint128",
          "name": "amount",
          "type": "uint128"
        },
        {
          "internalType": "uint8",
          "name": "tokenIndex",
          "type": "uint8"
        }
      ],
      "name": "withdraw",
      "outputs": [],
      "stateMutability": "nonpayable",
      "type": "function"
    }
  ],
  "bytecode": "0x60806040523480156200001157600080fd5b5060405162002876380380620028768339810160408190526200003491620001dd565b6040518060800160405280605281526020016200282460529139805160209182012060408051808201825260088152674d65736f6e20466960c01b908401528051808201825260018152603160f81b908401528051928301919091527fe127d7b8d403871d7ed6b19024db4422e92aee79823ba78ad61e52ee2a5f9b98908201527fc89efdaa54c0f20c7adf612882df0950f5a951637e0307cdcb4c672f298b8bc660608201524660808201523060a082015260c00160408051601f19818403018152919052805160209091012060035560005b81518160ff1610156200015b5762000146828260ff1681518110620001315762000131620002e5565b6020026020010151826200016360201b60201c565b806200015281620002b6565b91505062000108565b505062000311565b6001600160a01b03919091166000818152602081815260408083208054600160ff19918216811790925560028452828520805490911660ff90971696871790559483529390529190912080546001600160a01b0319169091179055565b80516001600160a01b0381168114620001d857600080fd5b919050565b60006020808385031215620001f157600080fd5b82516001600160401b03808211156200020957600080fd5b818501915085601f8301126200021e57600080fd5b815181811115620002335762000233620002fb565b8060051b604051601f19603f830116810181811085821117156200025b576200025b620002fb565b604052828152858101935084860182860187018a10156200027b57600080fd5b600095505b83861015620002a9576200029481620001c0565b85526001959095019493860193860162000280565b5098975050505050505050565b600060ff821660ff811415620002dc57634e487b7160e01b600052601160045260246000fd5b60010192915050565b634e487b7160e01b600052603260045260246000fd5b634e487b7160e01b600052604160045260246000fd5b61250380620003216000396000f3fe608060405234801561001057600080fd5b50600436106101505760003560e01c80639033ed08116100cd578063b3df5b3611610081578063f7888aec11610066578063f7888aec14610463578063ff37871914610497578063ffa96ec4146104d057600080fd5b8063b3df5b36146103f5578063d3705a921461045057600080fd5b806394149c1a116100b257806394149c1a146103a15780639432984f146103cf578063a0f1d35f146103e257600080fd5b80639033ed081461037b57806393b0719d1461038e57600080fd5b80632335093c1161012457806354d6a2b71161010957806354d6a2b7146103425780637c850187146103555780638befc1c11461036857600080fd5b80632335093c146102745780633da0e66e146102bf57600080fd5b8062c2a48c1461015557806304fd4ab01461016a5780631aba3a55146102245780632217d48314610261575b600080fd5b610168610163366004612269565b6104e3565b005b6101e561017836600461219f565b60009081526008602090815260408083205464ffffffffff60a082901c8116855260059093529220547dffffffffffffffffffffffffffffffffffffffffffffffffffffffffffff83169373ffffffffffffffffffffffffffffffffffffffff9091169260c81c90911690565b6040805173ffffffffffffffffffffffffffffffffffffffff948516815293909216602084015264ffffffffff16908201526060015b60405180910390f35b61024b61023236600461212d565b60046020526000908152604090205464ffffffffff1681565b60405164ffffffffff909116815260200161021b565b61016861026f36600461219f565b610637565b6102ad61028236600461212d565b73ffffffffffffffffffffffffffffffffffffffff1660009081526002602052604090205460ff1690565b60405160ff909116815260200161021b565b6103156102cd36600461219f565b60009081526007602090815260408083205464ffffffffff8116845260059092529091205473ffffffffffffffffffffffffffffffffffffffff60289290921c821692911690565b6040805173ffffffffffffffffffffffffffffffffffffffff93841681529290911660208301520161021b565b61016861035036600461219f565b61076e565b6101686103633660046122c1565b6108fb565b610168610376366004612269565b610aca565b6101686103893660046121db565b610e0f565b61016861039c366004612247565b610f46565b6040517f8000003c00000000000000000000000000000000000000000000000000000000815260200161021b565b6101686103dd36600461221d565b61114c565b6101686103f03660046121b8565b6112a7565b61042b61040336600461237d565b60056020526000908152604090205473ffffffffffffffffffffffffffffffffffffffff1681565b60405173ffffffffffffffffffffffffffffffffffffffff909116815260200161021b565b61016861045e3660046121db565b611406565b61047661047136600461214f565b6116ff565b6040516fffffffffffffffffffffffffffffffff909116815260200161021b565b61042b6104a5366004612398565b60ff1660009081526001602052604090205473ffffffffffffffffffffffffffffffffffffffff1690565b6101686104de36600461231d565b611770565b60006104ef8787611983565b6000818152600860205260409020549091507dffffffffffffffffffffffffffffffffffffffffffffffffffffffffffff16806105735760405162461bcd60e51b815260206004820152601360248201527f5377617020646f6573206e6f742065786973740000000000000000000000000060448201526064015b60405180910390fd5b61058282848989898987611a0b565b60ff600889901c1660009081526001602052604090205473ffffffffffffffffffffffffffffffffffffffff166105be818560808c901c611ba9565b6000838152600860205260409081902080547fffff000000000000000000000000000000000000000000000000000000000000169055517fe8aa10932e72fe72aa2f3879a4dd799b95f5fbe728be1be0609e5baa14ec40f4906106249085815260200190565b60405180910390a1505050505050505050565b600061064582600354611983565b60008181526007602052604090205490915078ffffffffffffffffffffffffffffffffffffffffffffffffff16156106bf5760405162461bcd60e51b815260206004820152601360248201527f5377617020616c72656164792065786973747300000000000000000000000000604482015260640161056a565b600033600083815260076020526040812080547fffffffffffffff000000000000000000000000000000000000000000000000001678ffffffffffffffffffffffffffffffffffffffff0000000000602885901b161790559091508061072485611d28565b91509150610733818484611ea9565b6040518481527fa67aeefca6ffac499b56c6e714636f7ade5d82fde82aef50665ad3e88be5cb4b906020015b60405180910390a15050505050565b600061077c82600354611983565b60008181526007602052604090205490915078ffffffffffffffffffffffffffffffffffffffffffffffffff16806107f65760405162461bcd60e51b815260206004820152601360248201527f5377617020646f6573206e6f7420657869737400000000000000000000000000604482015260640161056a565b4264ffffffffff16603084901c64ffffffffff16106108575760405162461bcd60e51b815260206004820152601460248201527f53776170206973207374696c6c206c6f636b6564000000000000000000000000604482015260640161056a565b60ff8316600090815260016020908152604080832054858452600790925290912080547fffffffffffffff0000000000000000000000000000000000000000000000000016905573ffffffffffffffffffffffffffffffffffffffff602883901c811691166108cb8183608088901c611ba9565b6040518481527f5a399591cfd74c375a1ffd61c20221db0db82381f65516889ed13c8cd1f99d5b9060200161075f565b600354600061090a8883611983565b600081815260076020526040902080547fffffffffffffff00000000000000000000000000000000000000000000000000811690915590915078ffffffffffffffffffffffffffffffffffffffffffffffffff168315610a1b57601581815260108051908b90526000519151909190610988858c888d8d8d89611f57565b65ffffffffffff81166000908152600660205260409020546109bc906fffffffffffffffffffffffffffffffff1683612040565b65ffffffffffff91909116600090815260066020526040902080547fffffffffffffffffffffffffffffffff00000000000000000000000000000000166fffffffffffffffffffffffffffffffff90921691909117905550610a9a9050565b610a498289858a8a8a60288878ffffffffffffffffffffffffffffffffffffffffffffffffff16901c611f57565b60ff891660009081526001602090815260408083205464ffffffffff85168452600590925290912054610a9a9173ffffffffffffffffffffffffffffffffffffffff908116911660808c901c611ba9565b6040518281527f6921a2110a802468e8955f2885822155442ad19c60f42db0444a6993c23d206290602001610624565b6000610ad68787611983565b6000818152600860205260409020549091507dffffffffffffffffffffffffffffffffffffffffffffffffffffffffffff1615610b555760405162461bcd60e51b815260206004820152601360248201527f5377617020616c72656164792065786973747300000000000000000000000000604482015260640161056a565b60408051600081526020810180835283905260ff851691810191909152606081018690526080810185905260019060a0016020604051602081039080840390855afa158015610ba8573d6000803e3d6000fd5b5050506020604051035173ffffffffffffffffffffffffffffffffffffffff168273ffffffffffffffffffffffffffffffffffffffff1614610c2c5760405162461bcd60e51b815260206004820152601160248201527f496e76616c6964207369676e6174757265000000000000000000000000000000604482015260640161056a565b3360009081526004602052604090205464ffffffffff1680610cb65760405162461bcd60e51b815260206004820152602f60248201527f43616c6c6572206e6f7420726567697374657265642e2043616c6c206465706f60448201527f736974416e6452656769737465722e0000000000000000000000000000000000606482015260840161056a565b60008080610cc66104b042612422565b6020878152600c86815260088e901c600790815260008051925191859052835165ffffffffffff8316825260069094526040908190205492901c9650945091925090610d24906fffffffffffffffffffffffffffffffff168561207f565b65ffffffffffff8416600090815260066020908152604080832080547fffffffffffffffffffffffffffffffff00000000000000000000000000000000166fffffffffffffffffffffffffffffffff9590951694909417909355888252600881529082902080547fffff000000000000000000000000000000000000000000000000000000000000167dffffffffffffffffffffffffffffffffffffffffffffffffffffffffffff851617905590518781527f4b9652d234ab744ed655916a0c1ddd3e9d02be9a04f7aee8b0bf1e8dfce0173a910160405180910390a1505050505050505050505050565b6000826fffffffffffffffffffffffffffffffff1611610e715760405162461bcd60e51b815260206004820152601760248201527f416d6f756e74206d75737420626520706f736974697665000000000000000000604482015260640161056a565b65ffffffffffff8116600090815260066020526040902054610ea5906fffffffffffffffffffffffffffffffff1683612040565b65ffffffffffff8216600090815260066020908152604080832080547fffffffffffffffffffffffffffffffff00000000000000000000000000000000166fffffffffffffffffffffffffffffffff9590951694909417909355602884901c60ff168252600190522054610f429073ffffffffffffffffffffffffffffffffffffffff1633846fffffffffffffffffffffffffffffffff16611ea9565b5050565b6000610f528383611983565b6000818152600860205260409020549091507dffffffffffffffffffffffffffffffffffffffffffffffffffffffffffff1680610fd15760405162461bcd60e51b815260206004820152601360248201527f5377617020646f6573206e6f7420657869737400000000000000000000000000604482015260640161056a565b807dffffffffffffffffffffffffffffffffffffffffffffffffffffffffffff1660c842901b7dffffffffffffffffffffffffffffffffffffffffffffffffffffffffffff16116110645760405162461bcd60e51b815260206004820152601260248201527f53776170207374696c6c20696e206c6f636b0000000000000000000000000000604482015260640161056a565b65ff0000000000602085811b9190911664ffffffffff60a084901c161760008181526006909252604090912054608086901c91600887901c916110b9906fffffffffffffffffffffffffffffffff1684612040565b65ffffffffffff91909116600090815260066020908152604080832080547fffffffffffffffffffffffffffffffff00000000000000000000000000000000166fffffffffffffffffffffffffffffffff90951694909417909355958152600890955290932080547fffff0000000000000000000000000000000000000000000000000000000000001690555050505050565b3360008181526004602052604090205464ffffffffff16806111d65760405162461bcd60e51b815260206004820152602e60248201527f43616c6c6572206e6f7420726567697374657265642e2043616c6c206465706f60448201527f736974416e645265676973746572000000000000000000000000000000000000606482015260840161056a565b65ff0000000000602884901b1664ffffffffff821617600081815260066020526040902054611217906fffffffffffffffffffffffffffffffff168661207f565b65ffffffffffff8216600090815260066020908152604080832080547fffffffffffffffffffffffffffffffff00000000000000000000000000000000166fffffffffffffffffffffffffffffffff95861617905560ff8816835260019091529020546112a09173ffffffffffffffffffffffffffffffffffffffff9091169085908816611ba9565b5050505050565b60008281526007602052604090205478ffffffffffffffffffffffffffffffffffffffffffffffffff168061131e5760405162461bcd60e51b815260206004820152601360248201527f5377617020646f6573206e6f7420657869737400000000000000000000000000604482015260640161056a565b64ffffffffff8116156113735760405162461bcd60e51b815260206004820152601f60248201527f5377617020626f6e64656420746f20616e6f746865722070726f766964657200604482015260640161056a565b60008381526007602090815260409182902080547fffffffffffffff000000000000000000000000000000000000000000000000001664ffffffffff861678ffffffffffffffffffffffffffffffffffffffffffffffffff86161717905590518481527f9dadb60bc000bbd7b49430723ed56b6aa35909dcab91ec2cb17ed5da7ae4ffd6910160405180910390a1505050565b6000826fffffffffffffffffffffffffffffffff16116114685760405162461bcd60e51b815260206004820152601760248201527f416d6f756e74206d75737420626520706f736974697665000000000000000000604482015260640161056a565b338164ffffffffff81166114be5760405162461bcd60e51b815260206004820152601e60248201527f43616e6e6f742075736520302061732070726f766964657220696e6465780000604482015260640161056a565b64ffffffffff811660009081526005602052604090205473ffffffffffffffffffffffffffffffffffffffff16156115385760405162461bcd60e51b815260206004820152601860248201527f496e64657820616c726561647920726567697374657265640000000000000000604482015260640161056a565b73ffffffffffffffffffffffffffffffffffffffff821660009081526004602052604090205464ffffffffff16156115b25760405162461bcd60e51b815260206004820152601a60248201527f4164647265737320616c72656164792072656769737465726564000000000000604482015260640161056a565b64ffffffffff8116600081815260056020908152604080832080547fffffffffffffffffffffffff00000000000000000000000000000000000000001673ffffffffffffffffffffffffffffffffffffffff881690811790915583526004825280832080547fffffffffffffffffffffffffffffffffffffffffffffffffffffff00000000001690941790935565ffffffffffff8616825260069052205461166c906fffffffffffffffffffffffffffffffff1685612040565b65ffffffffffff8416600090815260066020908152604080832080547fffffffffffffffffffffffffffffffff00000000000000000000000000000000166fffffffffffffffffffffffffffffffff958616179055602887901c60ff16835260019091529020546116f99173ffffffffffffffffffffffffffffffffffffffff9091169084908716611ea9565b50505050565b73ffffffffffffffffffffffffffffffffffffffff8281166000908152600260209081526040808320549385168352600482528083205464ffffffffff1660289490941b65ff0000000000169390931782526006905220546fffffffffffffffffffffffffffffffff165b92915050565b600061177e85600354611983565b60008181526007602052604090205490915078ffffffffffffffffffffffffffffffffffffffffffffffffff16156117f85760405162461bcd60e51b815260206004820152601360248201527f5377617020616c72656164792065786973747300000000000000000000000000604482015260640161056a565b6020828152600751601b51604080516000815293840180825285905260ff83169084015260608301879052608083018690529091849060019060a0016020604051602081039080840390855afa158015611856573d6000803e3d6000fd5b5050506020604051035173ffffffffffffffffffffffffffffffffffffffff168273ffffffffffffffffffffffffffffffffffffffff16146118da5760405162461bcd60e51b815260206004820152601160248201527f496e76616c6964207369676e6174757265000000000000000000000000000000604482015260640161056a565b600084815260076020526040812080547fffffffffffffff000000000000000000000000000000000000000000000000001678ffffffffffffffffffffffffffffffffffffffffffffffffff8416179055806119358a611d28565b91509150611944818584611ea9565b6040518681527fd7a1fd45274eb446b18cdf83061f521e75114fa2c53ecb42bd853bba72097bab9060200160405180910390a150505050505050505050565b604080518082018252601c81527f53776170526571756573742875696e7432353620656e636f646564290000000060209182015281517f9e30b23744f36fc02f504355e3ffa6d1fda34e5ac9e3c78a1d6e7dffbc9c57266000818152928690529282206022529091906019835360018053836002526042600020925080604052505092915050565b60006040518060600160405280602b81526020016124cc602b91398051602090910120905073ffffffffffffffffffffffffffffffffffffffff8216611a935760405162461bcd60e51b815260206004820152601e60248201527f5369676e65722063616e6e6f7420626520656d70747920616464726573730000604482015260640161056a565b6000604051886000526014600c20604052826000528960205260606000206022526019600053600180536002889052604260009081209082526020820160408181529082905260ff8716908301526060820188905260808201879052915060019060a0015b6020604051602081039080840390855afa158015611b1a573d6000803e3d6000fd5b5050506020604051035173ffffffffffffffffffffffffffffffffffffffff168373ffffffffffffffffffffffffffffffffffffffff1614611b9e5760405162461bcd60e51b815260206004820152601160248201527f496e76616c6964207369676e6174757265000000000000000000000000000000604482015260640161056a565b505050505050505050565b604080518082018252601981527f7472616e7366657228616464726573732c75696e743235362900000000000000602091820152815173ffffffffffffffffffffffffffffffffffffffff85811660248301526044808301869052845180840390910181526064909201845291810180517bffffffffffffffffffffffffffffffffffffffffffffffffffffffff167fa9059cbb0000000000000000000000000000000000000000000000000000000017905291516000928392871691611c7091906123b3565b6000604051808303816000865af19150503d8060008114611cad576040519150601f19603f3d011682016040523d82523d6000602084013e611cb2565b606091505b5091509150818015611cdc575080511580611cdc575080806020019051810190611cdc9190612182565b6112a05760405162461bcd60e51b815260206004820152600f60248201527f5472616e73666572206661696c65640000000000000000000000000000000000604482015260640161056a565b608081901c600081611da25760405162461bcd60e51b815260206004820152602560248201527f5377617020616d6f756e74206d7573742062652067726561746572207468616e60448201527f207a65726f000000000000000000000000000000000000000000000000000000606482015260840161056a565b5060ff821660009081526001602052604090205473ffffffffffffffffffffffffffffffffffffffff16603083901c42611dde610e108261243a565b64ffffffffff168264ffffffffff1611611e3a5760405162461bcd60e51b815260206004820152601360248201527f45787069726520747320746f6f206561726c7900000000000000000000000000604482015260640161056a565b611e46611c208261243a565b64ffffffffff168264ffffffffff1610611ea25760405162461bcd60e51b815260206004820152601260248201527f45787069726520747320746f6f206c6174650000000000000000000000000000604482015260640161056a565b5050915091565b6040517f23b872dd00000000000000000000000000000000000000000000000000000000815273ffffffffffffffffffffffffffffffffffffffff8381166004830152306024830152604482018390528416906323b872dd90606401602060405180830381600087803b158015611f1f57600080fd5b505af1158015611f33573d6000803e3d6000fd5b505050506040513d601f19601f820116820180604052508101906116f99190612182565b60006040518060600160405280602b81526020016124cc602b91398051602090910120905073ffffffffffffffffffffffffffffffffffffffff8216611fdf5760405162461bcd60e51b815260206004820152601e60248201527f5369676e65722063616e6e6f7420626520656d70747920616464726573730000604482015260640161056a565b600060405182600052896020528860405260606000206022526019600053600180536002889052604260009081209082526020820160408181529082905260ff8716908301526060820188905260808201879052915060019060a001611af8565b60006fffffffffffffffffffffffffffffffff831661205f83856123ee565b9150816fffffffffffffffffffffffffffffffff16101561176a57600080fd5b60006fffffffffffffffffffffffffffffffff831661209e838561245a565b9150816fffffffffffffffffffffffffffffffff16111561176a57600080fd5b803573ffffffffffffffffffffffffffffffffffffffff811681146120e257600080fd5b919050565b80356fffffffffffffffffffffffffffffffff811681146120e257600080fd5b803564ffffffffff811681146120e257600080fd5b803560ff811681146120e257600080fd5b60006020828403121561213f57600080fd5b612148826120be565b9392505050565b6000806040838503121561216257600080fd5b61216b836120be565b9150612179602084016120be565b90509250929050565b60006020828403121561219457600080fd5b8151612148816124ba565b6000602082840312156121b157600080fd5b5035919050565b600080604083850312156121cb57600080fd5b8235915061217960208401612107565b600080604083850312156121ee57600080fd5b6121f7836120e7565b9150602083013565ffffffffffff8116811461221257600080fd5b809150509250929050565b6000806040838503121561223057600080fd5b612239836120e7565b91506121796020840161211c565b6000806040838503121561225a57600080fd5b50508035926020909101359150565b60008060008060008060c0878903121561228257600080fd5b863595506020870135945060408701359350606087013592506122a76080880161211c565b91506122b560a088016120be565b90509295509295509295565b60008060008060008060c087890312156122da57600080fd5b863595506020870135945060408701359350606087013592506122ff6080880161211c565b915060a087013561230f816124ba565b809150509295509295509295565b6000806000806080858703121561233357600080fd5b843593506020850135925060408501359150606085013579ffffffffffffffffffffffffffffffffffffffffffffffffffff8116811461237257600080fd5b939692955090935050565b60006020828403121561238f57600080fd5b61214882612107565b6000602082840312156123aa57600080fd5b6121488261211c565b6000825160005b818110156123d457602081860181015185830152016123ba565b818111156123e3576000828501525b509190910192915050565b60006fffffffffffffffffffffffffffffffff8083168185168083038211156124195761241961248b565b01949350505050565b600082198211156124355761243561248b565b500190565b600064ffffffffff8083168185168083038211156124195761241961248b565b60006fffffffffffffffffffffffffffffffff838116908316818110156124835761248361248b565b039392505050565b7f4e487b7100000000000000000000000000000000000000000000000000000000600052601160045260246000fd5b80151581146124c857600080fd5b5056fe5377617052656c656173652862797465733332207377617049642c627974657320726563697069656e7429a164736f6c6343000806000a454950373132446f6d61696e28737472696e67206e616d652c737472696e672076657273696f6e2c75696e7432353620636861696e49642c6164647265737320766572696679696e67436f6e747261637429",
  "linkReferences": {},
  "deployedLinkReferences": {}
}