{
  "_format": "hh-sol-artifact-1",
  "contractName": "Meson",
  "sourceName": "contracts/Meson.sol",
  "abi": [
    {
      "inputs": [
        {
          "internalType": "address[]",
          "name": "_supportedTokens",
          "type": "address[]"
        }
      ],
      "stateMutability": "nonpayable",
      "type": "constructor"
    },
    {
      "anonymous": false,
      "inputs": [
        {
          "indexed": false,
          "internalType": "bytes32",
          "name": "swapId",
          "type": "bytes32"
        }
      ],
      "name": "SwapBonded",
      "type": "event"
    },
    {
      "anonymous": false,
      "inputs": [
        {
          "indexed": false,
          "internalType": "bytes32",
          "name": "swapId",
          "type": "bytes32"
        }
      ],
      "name": "SwapCancelled",
      "type": "event"
    },
    {
      "anonymous": false,
      "inputs": [
        {
          "indexed": false,
          "internalType": "bytes32",
          "name": "swapId",
          "type": "bytes32"
        }
      ],
      "name": "SwapExecuted",
      "type": "event"
    },
    {
      "anonymous": false,
      "inputs": [
        {
          "indexed": false,
          "internalType": "bytes32",
          "name": "swapId",
          "type": "bytes32"
        },
        {
          "indexed": false,
          "internalType": "address",
          "name": "provider",
          "type": "address"
        }
      ],
      "name": "SwapLocked",
      "type": "event"
    },
    {
      "anonymous": false,
      "inputs": [
        {
          "indexed": false,
          "internalType": "bytes32",
          "name": "swapId",
          "type": "bytes32"
        }
      ],
      "name": "SwapPosted",
      "type": "event"
    },
    {
      "anonymous": false,
      "inputs": [
        {
          "indexed": false,
          "internalType": "bytes32",
          "name": "swapId",
          "type": "bytes32"
        }
      ],
      "name": "SwapReleased",
      "type": "event"
    },
    {
      "anonymous": false,
      "inputs": [
        {
          "indexed": false,
          "internalType": "bytes32",
          "name": "swapId",
          "type": "bytes32"
        }
      ],
      "name": "SwapRequested",
      "type": "event"
    },
    {
      "inputs": [
        {
          "internalType": "address",
          "name": "",
          "type": "address"
        },
        {
          "internalType": "address",
          "name": "",
          "type": "address"
        }
      ],
      "name": "balanceOf",
      "outputs": [
        {
          "internalType": "uint128",
          "name": "",
          "type": "uint128"
        }
      ],
      "stateMutability": "view",
      "type": "function"
    },
    {
      "inputs": [
        {
          "internalType": "bytes32",
          "name": "swapId",
          "type": "bytes32"
        }
      ],
      "name": "bondSwap",
      "outputs": [],
      "stateMutability": "nonpayable",
      "type": "function"
    },
    {
      "inputs": [
        {
          "internalType": "bytes32",
          "name": "swapId",
          "type": "bytes32"
        }
      ],
      "name": "cancelSwap",
      "outputs": [],
      "stateMutability": "nonpayable",
      "type": "function"
    },
    {
      "inputs": [],
      "name": "challenge",
      "outputs": [],
      "stateMutability": "nonpayable",
      "type": "function"
    },
    {
      "inputs": [
        {
          "internalType": "address",
          "name": "token",
          "type": "address"
        },
        {
          "internalType": "uint128",
          "name": "amount",
          "type": "uint128"
        }
      ],
      "name": "deposit",
      "outputs": [],
      "stateMutability": "nonpayable",
      "type": "function"
    },
    {
      "inputs": [
        {
          "internalType": "bytes32",
          "name": "swapId",
          "type": "bytes32"
        },
        {
          "internalType": "bytes",
          "name": "recipient",
          "type": "bytes"
        },
        {
          "internalType": "bytes32",
          "name": "r",
          "type": "bytes32"
        },
        {
          "internalType": "bytes32",
          "name": "s",
          "type": "bytes32"
        },
        {
          "internalType": "uint8",
          "name": "v",
          "type": "uint8"
        },
        {
          "internalType": "bool",
          "name": "depositToPool",
          "type": "bool"
        }
      ],
      "name": "executeSwap",
      "outputs": [],
      "stateMutability": "nonpayable",
      "type": "function"
    },
    {
      "inputs": [],
      "name": "getCoinType",
      "outputs": [
        {
          "internalType": "bytes4",
          "name": "",
          "type": "bytes4"
        }
      ],
      "stateMutability": "pure",
      "type": "function"
    },
    {
      "inputs": [
        {
          "internalType": "bytes32",
          "name": "swapId",
          "type": "bytes32"
        },
        {
          "internalType": "address",
          "name": "initiator",
          "type": "address"
        },
        {
          "internalType": "uint128",
          "name": "amount",
          "type": "uint128"
        },
        {
          "internalType": "address",
          "name": "token",
          "type": "address"
        }
      ],
      "name": "lock",
      "outputs": [],
      "stateMutability": "nonpayable",
      "type": "function"
    },
    {
      "inputs": [
        {
          "internalType": "bytes32",
          "name": "",
          "type": "bytes32"
        }
      ],
      "name": "lockingSwaps",
      "outputs": [
        {
          "internalType": "address",
          "name": "initiator",
          "type": "address"
        },
        {
          "internalType": "address",
          "name": "provider",
          "type": "address"
        },
        {
          "internalType": "address",
          "name": "token",
          "type": "address"
        },
        {
          "internalType": "uint128",
          "name": "amount",
          "type": "uint128"
        },
        {
          "internalType": "uint64",
          "name": "until",
          "type": "uint64"
        }
      ],
      "stateMutability": "view",
      "type": "function"
    },
    {
      "inputs": [
        {
          "internalType": "bytes",
          "name": "encodedSwap",
          "type": "bytes"
        },
        {
          "internalType": "address",
          "name": "inToken",
          "type": "address"
        },
        {
          "internalType": "address",
          "name": "initiator",
          "type": "address"
        },
        {
          "internalType": "bytes32",
          "name": "r",
          "type": "bytes32"
        },
        {
          "internalType": "bytes32",
          "name": "s",
          "type": "bytes32"
        },
        {
          "internalType": "uint8",
          "name": "v",
          "type": "uint8"
        }
      ],
      "name": "postSwap",
      "outputs": [
        {
          "internalType": "bytes32",
          "name": "",
          "type": "bytes32"
        }
      ],
      "stateMutability": "nonpayable",
      "type": "function"
    },
    {
      "inputs": [
        {
          "internalType": "bytes32",
          "name": "swapId",
          "type": "bytes32"
        },
        {
          "internalType": "address",
          "name": "recipient",
          "type": "address"
        },
        {
          "internalType": "uint128",
          "name": "metaAmount",
          "type": "uint128"
        },
        {
          "internalType": "bytes32",
          "name": "domainHash",
          "type": "bytes32"
        },
        {
          "internalType": "bytes32",
          "name": "r",
          "type": "bytes32"
        },
        {
          "internalType": "bytes32",
          "name": "s",
          "type": "bytes32"
        },
        {
          "internalType": "uint8",
          "name": "v",
          "type": "uint8"
        }
      ],
      "name": "release",
      "outputs": [],
      "stateMutability": "nonpayable",
      "type": "function"
    },
    {
      "inputs": [
        {
          "internalType": "bytes",
          "name": "encodedSwap",
          "type": "bytes"
        },
        {
          "internalType": "address",
          "name": "inToken",
          "type": "address"
        }
      ],
      "name": "requestSwap",
      "outputs": [
        {
          "internalType": "bytes32",
          "name": "",
          "type": "bytes32"
        }
      ],
      "stateMutability": "nonpayable",
      "type": "function"
    },
    {
      "inputs": [
        {
          "internalType": "bytes32",
          "name": "",
          "type": "bytes32"
        }
      ],
      "name": "requests",
      "outputs": [
        {
          "internalType": "address",
          "name": "initiator",
          "type": "address"
        },
        {
          "internalType": "address",
          "name": "provider",
          "type": "address"
        },
        {
          "internalType": "address",
          "name": "inToken",
          "type": "address"
        },
        {
          "internalType": "uint128",
          "name": "total",
          "type": "uint128"
        },
        {
          "internalType": "uint48",
          "name": "expireTs",
          "type": "uint48"
        }
      ],
      "stateMutability": "view",
      "type": "function"
    },
    {
      "inputs": [
        {
          "internalType": "address",
          "name": "",
          "type": "address"
        }
      ],
      "name": "supportedTokens",
      "outputs": [
        {
          "internalType": "bool",
          "name": "",
          "type": "bool"
        }
      ],
      "stateMutability": "view",
      "type": "function"
    },
    {
      "inputs": [
        {
          "internalType": "bytes32",
          "name": "swapId",
          "type": "bytes32"
        }
      ],
      "name": "unlock",
      "outputs": [],
      "stateMutability": "nonpayable",
      "type": "function"
    },
    {
      "inputs": [
        {
          "internalType": "address",
          "name": "token",
          "type": "address"
        },
        {
          "internalType": "uint128",
          "name": "amount",
          "type": "uint128"
        }
      ],
      "name": "withdraw",
      "outputs": [],
      "stateMutability": "nonpayable",
      "type": "function"
    }
  ],
  "bytecode": "0x6101006040526052608081815290620027e960a039805160209182012060408051808201825260088152674d65736f6e20466960c01b908401528051808201825260018152603160f81b908401528051928301919091527fe127d7b8d403871d7ed6b19024db4422e92aee79823ba78ad61e52ee2a5f9b98908201527fc89efdaa54c0f20c7adf612882df0950f5a951637e0307cdcb4c672f298b8bc660608201524660808201523060a082015260c00160405160208183030381529060405280519060200120600055348015620000d657600080fd5b506040516200283b3803806200283b833981016040819052620000f99162000194565b60005b81518110156200014857620001338282815181106200011f576200011f62000297565b60200260200101516200015060201b60201c565b806200013f816200026d565b915050620000fc565b5050620002c3565b6001600160a01b03166000908152600160208190526040909120805460ff19169091179055565b80516001600160a01b03811681146200018f57600080fd5b919050565b60006020808385031215620001a857600080fd5b82516001600160401b0380821115620001c057600080fd5b818501915085601f830112620001d557600080fd5b815181811115620001ea57620001ea620002ad565b8060051b604051601f19603f83011681018181108582111715620002125762000212620002ad565b604052828152858101935084860182860187018a10156200023257600080fd5b600095505b8386101562000260576200024b8162000177565b85526001959095019493860193860162000237565b5098975050505050505050565b60006000198214156200029057634e487b7160e01b600052601160045260246000fd5b5060010190565b634e487b7160e01b600052603260045260246000fd5b634e487b7160e01b600052604160045260246000fd5b61251680620002d36000396000f3fe608060405234801561001057600080fd5b50600436106101005760003560e01c806394149c1a11610097578063d2ef739811610066578063d2ef739814610118578063d541beb314610350578063ec9b5b3a14610363578063f7888aec1461037657600080fd5b806394149c1a1461026b5780639d86698514610280578063b3fb65641461032a578063bcc20ff61461033d57600080fd5b8063552c0120116100d3578063552c01201461016657806368c4ac26146101795780636bb39ae0146101ac578063721c5aff1461025857600080fd5b806308fab167146101055780631548fdce1461011a578063378585411461012d5780633b11d5ac14610140575b600080fd5b610118610113366004612013565b6103c2565b005b610118610128366004612067565b610418565b61011861013b3660046120cf565b610514565b61015361014e36600461223e565b6107d3565b6040519081526020015b60405180910390f35b6101186101743660046121c0565b6109db565b61019c610187366004611fbe565b60016020526000908152604090205460ff1681565b604051901515815260200161015d565b61020d6101ba366004612067565b60046020526000908152604090208054600182015460028301546003909301546001600160a01b039283169391831692909116906001600160801b03811690600160801b900467ffffffffffffffff1685565b604080516001600160a01b039687168152948616602086015292909416918301919091526001600160801b0316606082015267ffffffffffffffff909116608082015260a00161015d565b610118610266366004612080565b610bc3565b604051632000000f60e21b815260200161015d565b6102e161028e366004612067565b600360208190526000918252604090912080546001820154600283015492909301546001600160a01b0391821693821692909116906001600160801b0381169065ffffffffffff600160801b9091041685565b604080516001600160a01b039687168152948616602086015292909416918301919091526001600160801b0316606082015265ffffffffffff909116608082015260a00161015d565b610118610338366004612013565b610ed8565b61015361034b366004612283565b610f98565b61011861035e366004612067565b61124c565b610118610371366004612067565b6114f9565b6103aa610384366004611fe0565b60026020908152600092835260408084209091529082529020546001600160801b031681565b6040516001600160801b03909116815260200161015d565b6001600160a01b038216600090815260016020526040902054829060ff166104055760405162461bcd60e51b81526004016103fc9061233f565b60405180910390fd5b33610412818086866116f3565b50505050565b6000818152600360208190526040909120015481906001600160801b03166104525760405162461bcd60e51b81526004016103fc9061236a565b6000828152600360205260409020600101546001600160a01b0316156104ba5760405162461bcd60e51b815260206004820152601f60248201527f7377617020626f6e64656420746f20616e6f746865722070726f76696465720060448201526064016103fc565b60008281526003602090815260409182902060010180546001600160a01b03191633179055815184815291517f9dadb60bc000bbd7b49430723ed56b6aa35909dcab91ec2cb17ed5da7ae4ffd69281900390910190a15050565b6000878152600460208181526040808420815160a08101835281546001600160a01b039081168252600183015481168286015260028301541692810192909252600301546001600160801b03811660608301819052600160801b90910467ffffffffffffffff166080830152938b9052919052906105ca5760405162461bcd60e51b81526020600482015260136024820152721cddd85c08191bd95cc81b9bdd08195e1a5cdd606a1b60448201526064016103fc565b80606001516001600160801b0316866001600160801b0316111561064d5760405162461bcd60e51b815260206004820152603460248201527f72656c6561736520616d6f756e742063616e6e6f742062652067726561746572604482015273081d1a185b881b1bd8dada5b99c8185b5bdd5b9d60621b60648201526084016103fc565b6040516bffffffffffffffffffffffff19606089901b166020820152610696908990603401604051602081830303815290604052805190602001208784600001518888886117e7565b6040810151602082015160608301516001600160801b039081169089161015610745576001600160a01b038083166000908152600260209081526040808320938516835292905220546060840151610701916001600160801b0316906106fc908b61198e565b6119c1565b6001600160a01b03838116600090815260026020908152604080832093861683529290522080546001600160801b0319166001600160801b03929092169190911790555b60008a815260046020526040902080546001600160a01b0319908116825560018201805482169055600282018054909116905560030180546001600160c01b0319169055610794828a8a6119ee565b6040518a81527fe8aa10932e72fe72aa2f3879a4dd799b95f5fbe728be1be0609e5baa14ec40f49060200160405180910390a150505050505050505050565b6001600160a01b038116600090815260016020526040812054829060ff1661080d5760405162461bcd60e51b81526004016103fc9061233f565b60008060008061081d8888611b36565b9350935093509350600061082e3390565b90506000610844858565ffffffffffff166119c1565b90506040518060a00160405280836001600160a01b0316815260200160006001600160a01b031681526020018a6001600160a01b03168152602001826001600160801b031681526020018465ffffffffffff168152506003600088815260200190815260200160002060008201518160000160006101000a8154816001600160a01b0302191690836001600160a01b0316021790555060208201518160010160006101000a8154816001600160a01b0302191690836001600160a01b0316021790555060408201518160020160006101000a8154816001600160a01b0302191690836001600160a01b0316021790555060608201518160030160006101000a8154816001600160801b0302191690836001600160801b0316021790555060808201518160030160106101000a81548165ffffffffffff021916908365ffffffffffff16021790555090505061099a898383611db2565b6040518681527fa67aeefca6ffac499b56c6e714636f7ade5d82fde82aef50665ad3e88be5cb4b9060200160405180910390a1509398975050505050505050565b6000868152600360208190526040909120015486906001600160801b0316610a155760405162461bcd60e51b81526004016103fc9061236a565b6000878152600360208181526040808420815160a08101835281546001600160a01b0390811680835260018401548216838701526002840154909116938201939093529301546001600160801b0381166060850152600160801b900465ffffffffffff1660808401528951918a019190912092549192610a99928b928a8a8a6117e7565b604080820151602080840151606085015160008d81526003938490529490942080546001600160a01b0319908116825560018201805482169055600282018054909116905590910180546001600160b01b031916905590918515610b78576001600160a01b03808416600090815260026020908152604080832093861683529290522054610b30906001600160801b0316826119c1565b6001600160a01b03848116600090815260026020908152604080832093871683529290522080546001600160801b0319166001600160801b0392909216919091179055610b83565b610b838383836119ee565b6040518b81527f6921a2110a802468e8955f2885822155442ad19c60f42db0444a6993c23d20629060200160405180910390a15050505050505050505050565b6001600160a01b038116600090815260016020526040902054819060ff16610bfd5760405162461bcd60e51b81526004016103fc9061233f565b6000836001600160801b031611610c565760405162461bcd60e51b815260206004820181905260248201527f616d6f756e74206d7573742062652067726561746572207468616e207a65726f60448201526064016103fc565b6000858152600460205260409020600301546001600160801b031615610cbe5760405162461bcd60e51b815260206004820152601b60248201527f6c6f636b696e67207377617020616c726561647920657869737473000000000060448201526064016103fc565b6001600160a01b0382166000908152600260209081526040808320338085529252909120546001600160801b0385811691161015610d355760405162461bcd60e51b8152602060048201526014602482015273696e73756666696369656e742062616c616e636560601b60448201526064016103fc565b6001600160a01b03808416600090815260026020908152604080832093851683529290522054610d6f9085906001600160801b0316612401565b6001600160a01b0384811660008181526002602090815260408083208786168085529083529281902080546001600160801b0319166001600160801b03978816179055805160a081018252948b16855290840191909152820152908516606082015260808101610de16104b0426123de565b67ffffffffffffffff908116909152600088815260046020908152604091829020845181546001600160a01b039182166001600160a01b0319918216178355928601516001830180549183169185169190911790558584015160028301805491909216931692909217909155606084015160039091018054608090950151909316600160801b026001600160c01b03199094166001600160801b0390911617929092179055517faad18fe672f0d6b379db88b0e1176f10cc003e9a4d8ed142a90c0b6f8bedb8de90610ec890889084909182526001600160a01b0316602082015260400190565b60405180910390a1505050505050565b6001600160a01b038216600090815260016020526040902054829060ff16610f125760405162461bcd60e51b81526004016103fc9061233f565b6001600160a01b038316600090815260026020908152604080832033808552925290912054610f4a906001600160801b0316846119c1565b6001600160a01b03858116600090815260026020908152604080832093861683529290522080546001600160801b0319166001600160801b0392909216919091179055610412848285611db2565b6001600160a01b038516600090815260016020526040812054869060ff16610fd25760405162461bcd60e51b81526004016103fc9061233f565b600080600080610fe28c8c611b36565b60408051600081526020810180835286905260ff8d1691810191909152606081018e9052608081018d90529397509195509350915060019060a0016020604051602081039080840390855afa15801561103f573d6000803e3d6000fd5b505050602060405103516001600160a01b03168a6001600160a01b03161461109d5760405162461bcd60e51b8152602060048201526011602482015270696e76616c6964207369676e617475726560781b60448201526064016103fc565b3360006110b28565ffffffffffff86166119c1565b90506040518060a001604052808d6001600160a01b03168152602001836001600160a01b031681526020018e6001600160a01b03168152602001826001600160801b031681526020018465ffffffffffff168152506003600088815260200190815260200160002060008201518160000160006101000a8154816001600160a01b0302191690836001600160a01b0316021790555060208201518160010160006101000a8154816001600160a01b0302191690836001600160a01b0316021790555060408201518160020160006101000a8154816001600160a01b0302191690836001600160a01b0316021790555060608201518160030160006101000a8154816001600160801b0302191690836001600160801b0316021790555060808201518160030160106101000a81548165ffffffffffff021916908365ffffffffffff1602179055509050506112078d8d83611db2565b6040518681527fd7a1fd45274eb446b18cdf83061f521e75114fa2c53ecb42bd853bba72097bab9060200160405180910390a150939c9b505050505050505050505050565b6000818152600360208190526040909120015481906001600160801b03166112865760405162461bcd60e51b81526004016103fc9061236a565b6000828152600360208190526040909120015482904267ffffffffffffffff16600160801b90910465ffffffffffff16106112f65760405162461bcd60e51b815260206004820152601060248201526f1cddd85c081b9bdd08195e1c1a5c995960821b60448201526064016103fc565b6000600360008581526020019081526020016000206040518060a00160405290816000820160009054906101000a90046001600160a01b03166001600160a01b03166001600160a01b031681526020016001820160009054906101000a90046001600160a01b03166001600160a01b03166001600160a01b031681526020016002820160009054906101000a90046001600160a01b03166001600160a01b03166001600160a01b031681526020016003820160009054906101000a90046001600160801b03166001600160801b03166001600160801b031681526020016003820160109054906101000a900465ffffffffffff1665ffffffffffff1665ffffffffffff1681525050905060008160400151905060008260000151905060008360600151905060036000888152602001908152602001600020600080820160006101000a8154906001600160a01b0302191690556001820160006101000a8154906001600160a01b0302191690556002820160006101000a8154906001600160a01b0302191690556003820160006101000a8154906001600160801b0302191690556003820160106101000a81549065ffffffffffff021916905550506114bd8383836119ee565b6040518781527f5a399591cfd74c375a1ffd61c20221db0db82381f65516889ed13c8cd1f99d5b9060200160405180910390a150505050505050565b6000818152600460205260409020600301546001600160801b03166115565760405162461bcd60e51b81526020600482015260136024820152721cddd85c08191bd95cc81b9bdd08195e1a5cdd606a1b60448201526064016103fc565b600081815260046020908152604091829020825160a08101845281546001600160a01b03908116825260018301548116938201939093526002820154909216928201929092526003909101546001600160801b038116606083015267ffffffffffffffff600160801b909104811660808301819052429091161161161c5760405162461bcd60e51b815260206004820152601960248201527f5468652073776170206973207374696c6c20696e206c6f636b0000000000000060448201526064016103fc565b60408082015160608301516020808501516001600160a01b03808516600090815260028452868120918316815292529390205491929091611666906001600160801b0316836119c1565b6001600160a01b03938416600090815260026020818152604080842095909716835293845285822080546001600160801b0319166001600160801b03949094169390931790925595865260049091529190932080546001600160a01b0319908116825560018201805482169055918101805490921690915560030180546001600160c01b03191690555050565b6001600160a01b038083166000908152600260209081526040808320938716835292905220546001600160801b03808316911610156117605760405162461bcd60e51b815260206004820152600960248201526837bb32b9323930bbb760b91b60448201526064016103fc565b6001600160a01b03808316600090815260026020908152604080832093871683529290522054611799906001600160801b03168261198e565b6001600160a01b03838116600090815260026020908152604080832093881683529290522080546001600160801b0319166001600160801b03929092169190911790556104128285836119ee565b6001600160a01b03841661183d5760405162461bcd60e51b815260206004820152601e60248201527f7369676e65722063616e6e6f7420626520656d7074792061646472657373000060448201526064016103fc565b60006040518060600160405280602b81526020016124df602b913980516020918201206040805192830191909152810189905260608101889052608001604051602081830303815290604052805190602001209050600086826040516020016118bd92919061190160f01b81526002810192909252602282015260420190565b60408051601f1981840301815282825280516020918201206000845290830180835281905260ff8616918301919091526060820187905260808201869052915060019060a0016020604051602081039080840390855afa158015611925573d6000803e3d6000fd5b505050602060405103516001600160a01b0316866001600160a01b0316146119835760405162461bcd60e51b8152602060048201526011602482015270696e76616c6964207369676e617475726560781b60448201526064016103fc565b505050505050505050565b60006001600160801b0383166119a48385612401565b9150816001600160801b031611156119bb57600080fd5b92915050565b60006001600160801b0383166119d78385612392565b9150816001600160801b031610156119bb57600080fd5b604080518082018252601981527f7472616e7366657228616464726573732c75696e74323536290000000000000060209182015281516001600160a01b0385811660248301526001600160801b038516604480840191909152845180840390910181526064909201845291810180516001600160e01b031663a9059cbb60e01b17905291516000928392871691611a859190612304565b6000604051808303816000865af19150503d8060008114611ac2576040519150601f19603f3d011682016040523d82523d6000602084013e611ac7565b606091505b5091509150818015611af1575080511580611af1575080806020019051810190611af1919061204a565b611b2f5760405162461bcd60e51b815260206004820152600f60248201526e1d1c985b9cd9995c8819985a5b1959608a1b60448201526064016103fc565b5050505050565b600080600080600080600080611b4b8a611e42565b6040516bffffffffffffffffffffffff1960608f901b1660208201529397509195509350915084906034016040516020818303038152906040528051906020012014611bd25760405162461bcd60e51b81526020600482015260166024820152750d2dca8ded6cadc40c8decae640dcdee840dac2e8c6d60531b60448201526064016103fc565b6000836001600160801b031611611c395760405162461bcd60e51b815260206004820152602560248201527f7377617020616d6f756e74206d7573742062652067726561746572207468616e604482015264207a65726f60d81b60648201526084016103fc565b42611c46610e10826123bd565b65ffffffffffff168265ffffffffffff1611611c9b5760405162461bcd60e51b81526020600482015260146024820152736578706972657320747320746f6f206561726c7960601b60448201526064016103fc565b611ca7611c20826123bd565b65ffffffffffff168265ffffffffffff1610611cfb5760405162461bcd60e51b81526020600482015260136024820152726578706972657320747320746f6f206c61746560681b60448201526064016103fc565b6000611d448c80516020918201206000546040805161190160f01b8186015260228101929092526042808301939093528051808303909301835260629091019052805191012090565b600081815260036020819052604090912001549091506001600160801b031615611da05760405162461bcd60e51b815260206004820152600d60248201526c1cddd85c0818dbdb999b1a58dd609a1b60448201526064016103fc565b9b939a50919850965090945050505050565b6040516323b872dd60e01b81526001600160a01b0383811660048301523060248301526001600160801b03831660448301528416906323b872dd90606401602060405180830381600087803b158015611e0a57600080fd5b505af1158015611e1e573d6000803e3d6000fd5b505050506040513d601f19601f82011682018060405250810190610412919061204a565b600080600080600080600080600089806020019051810190611e64919061213b565b5050945094509450945094506040518060a001604052806063815260200161247c60639139805190602001208514611ede5760405162461bcd60e51b815260206004820152601d60248201527f496e76616c69642073776170207265717565737420747970656861736800000060448201526064016103fc565b9299919850965090945092505050565b80356001600160a01b0381168114611f0557600080fd5b919050565b600082601f830112611f1b57600080fd5b813567ffffffffffffffff80821115611f3657611f3661243f565b604051601f8301601f19908116603f01168101908282118183101715611f5e57611f5e61243f565b81604052838152866020858801011115611f7757600080fd5b836020870160208301376000602085830101528094505050505092915050565b805165ffffffffffff81168114611f0557600080fd5b803560ff81168114611f0557600080fd5b600060208284031215611fd057600080fd5b611fd982611eee565b9392505050565b60008060408385031215611ff357600080fd5b611ffc83611eee565b915061200a60208401611eee565b90509250929050565b6000806040838503121561202657600080fd5b61202f83611eee565b9150602083013561203f81612466565b809150509250929050565b60006020828403121561205c57600080fd5b8151611fd981612455565b60006020828403121561207957600080fd5b5035919050565b6000806000806080858703121561209657600080fd5b843593506120a660208601611eee565b925060408501356120b681612466565b91506120c460608601611eee565b905092959194509250565b600080600080600080600060e0888a0312156120ea57600080fd5b873596506120fa60208901611eee565b9550604088013561210a81612466565b9450606088013593506080880135925060a0880135915061212d60c08901611fad565b905092959891949750929550565b600080600080600080600060e0888a03121561215657600080fd5b8751965060208801519550604088015161216f81612466565b945061217d60608901611f97565b935061218b60808901611f97565b60a08901519093506001600160e01b0319811681146121a957600080fd5b8092505060c0880151905092959891949750929550565b60008060008060008060c087890312156121d957600080fd5b86359550602087013567ffffffffffffffff8111156121f757600080fd5b61220389828a01611f0a565b955050604087013593506060870135925061222060808801611fad565b915060a087013561223081612455565b809150509295509295509295565b6000806040838503121561225157600080fd5b823567ffffffffffffffff81111561226857600080fd5b61227485828601611f0a565b92505061200a60208401611eee565b60008060008060008060c0878903121561229c57600080fd5b863567ffffffffffffffff8111156122b357600080fd5b6122bf89828a01611f0a565b9650506122ce60208801611eee565b94506122dc60408801611eee565b935060608701359250608087013591506122f860a08801611fad565b90509295509295509295565b6000825160005b81811015612325576020818601810151858301520161230b565b81811115612334576000828501525b509190910192915050565b6020808252601190820152703ab739bab83837b93a32b2103a37b5b2b760791b604082015260600190565b6020808252600e908201526d1cddd85c081b9bdd08199bdd5b9960921b604082015260600190565b60006001600160801b038083168185168083038211156123b4576123b4612429565b01949350505050565b600065ffffffffffff8083168185168083038211156123b4576123b4612429565b600067ffffffffffffffff8083168185168083038211156123b4576123b4612429565b60006001600160801b038381169083168181101561242157612421612429565b039392505050565b634e487b7160e01b600052601160045260246000fd5b634e487b7160e01b600052604160045260246000fd5b801515811461246357600080fd5b50565b6001600160801b038116811461246357600080fdfe537761705265717565737428627974657320696e546f6b656e2c75696e7431323820616d6f756e742c75696e743438206665652c75696e7434382065787069726554732c627974657334206f7574436861696e2c6279746573206f7574546f6b656e295377617052656c656173652862797465733332207377617049642c627974657320726563697069656e7429a164736f6c6343000806000a454950373132446f6d61696e28737472696e67206e616d652c737472696e672076657273696f6e2c75696e7432353620636861696e49642c6164647265737320766572696679696e67436f6e747261637429",
  "linkReferences": {},
  "deployedLinkReferences": {}
}