{
  "_format": "hh-sol-artifact-1",
  "contractName": "Meson",
  "sourceName": "contracts/Meson.sol",
  "abi": [
    {
      "inputs": [
        {
          "internalType": "address[]",
          "name": "_supportedTokens",
          "type": "address[]"
        }
      ],
      "stateMutability": "nonpayable",
      "type": "constructor"
    },
    {
      "anonymous": false,
      "inputs": [
        {
          "indexed": false,
          "internalType": "bytes32",
          "name": "swapId",
          "type": "bytes32"
        }
      ],
      "name": "SwapBonded",
      "type": "event"
    },
    {
      "anonymous": false,
      "inputs": [
        {
          "indexed": false,
          "internalType": "bytes32",
          "name": "swapId",
          "type": "bytes32"
        }
      ],
      "name": "SwapCancelled",
      "type": "event"
    },
    {
      "anonymous": false,
      "inputs": [
        {
          "indexed": false,
          "internalType": "bytes32",
          "name": "swapId",
          "type": "bytes32"
        }
      ],
      "name": "SwapExecuted",
      "type": "event"
    },
    {
      "anonymous": false,
      "inputs": [
        {
          "indexed": false,
          "internalType": "bytes32",
          "name": "swapId",
          "type": "bytes32"
        },
        {
          "indexed": false,
          "internalType": "address",
          "name": "provider",
          "type": "address"
        }
      ],
      "name": "SwapLocked",
      "type": "event"
    },
    {
      "anonymous": false,
      "inputs": [
        {
          "indexed": false,
          "internalType": "bytes32",
          "name": "swapId",
          "type": "bytes32"
        },
        {
          "indexed": false,
          "internalType": "uint64",
          "name": "expireTs",
          "type": "uint64"
        },
        {
          "indexed": false,
          "internalType": "uint128",
          "name": "amount",
          "type": "uint128"
        },
        {
          "indexed": false,
          "internalType": "address",
          "name": "inToken",
          "type": "address"
        }
      ],
      "name": "SwapPosted",
      "type": "event"
    },
    {
      "anonymous": false,
      "inputs": [
        {
          "indexed": false,
          "internalType": "bytes32",
          "name": "swapId",
          "type": "bytes32"
        }
      ],
      "name": "SwapReleased",
      "type": "event"
    },
    {
      "anonymous": false,
      "inputs": [
        {
          "indexed": false,
          "internalType": "bytes32",
          "name": "swapId",
          "type": "bytes32"
        }
      ],
      "name": "SwapRequested",
      "type": "event"
    },
    {
      "inputs": [
        {
          "internalType": "address",
          "name": "",
          "type": "address"
        },
        {
          "internalType": "address",
          "name": "",
          "type": "address"
        }
      ],
      "name": "balanceOf",
      "outputs": [
        {
          "internalType": "uint128",
          "name": "",
          "type": "uint128"
        }
      ],
      "stateMutability": "view",
      "type": "function"
    },
    {
      "inputs": [
        {
          "internalType": "bytes32",
          "name": "swapId",
          "type": "bytes32"
        }
      ],
      "name": "bondSwap",
      "outputs": [],
      "stateMutability": "nonpayable",
      "type": "function"
    },
    {
      "inputs": [
        {
          "internalType": "bytes32",
          "name": "swapId",
          "type": "bytes32"
        }
      ],
      "name": "cancelSwap",
      "outputs": [],
      "stateMutability": "nonpayable",
      "type": "function"
    },
    {
      "inputs": [],
      "name": "challenge",
      "outputs": [],
      "stateMutability": "nonpayable",
      "type": "function"
    },
    {
      "inputs": [
        {
          "internalType": "address",
          "name": "token",
          "type": "address"
        },
        {
          "internalType": "uint128",
          "name": "amount",
          "type": "uint128"
        }
      ],
      "name": "deposit",
      "outputs": [],
      "stateMutability": "nonpayable",
      "type": "function"
    },
    {
      "inputs": [
        {
          "internalType": "bytes32",
          "name": "swapId",
          "type": "bytes32"
        },
        {
          "internalType": "bytes",
          "name": "recipient",
          "type": "bytes"
        },
        {
          "internalType": "bytes32",
          "name": "r",
          "type": "bytes32"
        },
        {
          "internalType": "bytes32",
          "name": "s",
          "type": "bytes32"
        },
        {
          "internalType": "uint8",
          "name": "v",
          "type": "uint8"
        },
        {
          "internalType": "bool",
          "name": "depositToPool",
          "type": "bool"
        }
      ],
      "name": "executeSwap",
      "outputs": [],
      "stateMutability": "nonpayable",
      "type": "function"
    },
    {
      "inputs": [],
      "name": "getCoinType",
      "outputs": [
        {
          "internalType": "bytes4",
          "name": "",
          "type": "bytes4"
        }
      ],
      "stateMutability": "pure",
      "type": "function"
    },
    {
      "inputs": [
        {
          "internalType": "bytes32",
          "name": "swapId",
          "type": "bytes32"
        },
        {
          "internalType": "address",
          "name": "initiator",
          "type": "address"
        },
        {
          "internalType": "uint128",
          "name": "amount",
          "type": "uint128"
        },
        {
          "internalType": "address",
          "name": "token",
          "type": "address"
        }
      ],
      "name": "lock",
      "outputs": [],
      "stateMutability": "nonpayable",
      "type": "function"
    },
    {
      "inputs": [
        {
          "internalType": "bytes32",
          "name": "",
          "type": "bytes32"
        }
      ],
      "name": "lockingSwaps",
      "outputs": [
        {
          "internalType": "address",
          "name": "initiator",
          "type": "address"
        },
        {
          "internalType": "address",
          "name": "provider",
          "type": "address"
        },
        {
          "internalType": "address",
          "name": "token",
          "type": "address"
        },
        {
          "internalType": "uint128",
          "name": "amount",
          "type": "uint128"
        },
        {
          "internalType": "uint64",
          "name": "until",
          "type": "uint64"
        }
      ],
      "stateMutability": "view",
      "type": "function"
    },
    {
      "inputs": [
        {
          "internalType": "bytes",
          "name": "encodedSwap",
          "type": "bytes"
        },
        {
          "internalType": "address",
          "name": "inToken",
          "type": "address"
        },
        {
          "internalType": "address",
          "name": "initiator",
          "type": "address"
        },
        {
          "internalType": "bytes32",
          "name": "r",
          "type": "bytes32"
        },
        {
          "internalType": "bytes32",
          "name": "s",
          "type": "bytes32"
        },
        {
          "internalType": "uint8",
          "name": "v",
          "type": "uint8"
        }
      ],
      "name": "postSwap",
      "outputs": [
        {
          "internalType": "bytes32",
          "name": "",
          "type": "bytes32"
        }
      ],
      "stateMutability": "nonpayable",
      "type": "function"
    },
    {
      "inputs": [
        {
          "internalType": "bytes32",
          "name": "swapId",
          "type": "bytes32"
        },
        {
          "internalType": "address",
          "name": "recipient",
          "type": "address"
        },
        {
          "internalType": "uint128",
          "name": "metaAmount",
          "type": "uint128"
        },
        {
          "internalType": "bytes32",
          "name": "domainHash",
          "type": "bytes32"
        },
        {
          "internalType": "bytes32",
          "name": "r",
          "type": "bytes32"
        },
        {
          "internalType": "bytes32",
          "name": "s",
          "type": "bytes32"
        },
        {
          "internalType": "uint8",
          "name": "v",
          "type": "uint8"
        }
      ],
      "name": "release",
      "outputs": [],
      "stateMutability": "nonpayable",
      "type": "function"
    },
    {
      "inputs": [
        {
          "internalType": "bytes",
          "name": "encodedSwap",
          "type": "bytes"
        },
        {
          "internalType": "address",
          "name": "inToken",
          "type": "address"
        }
      ],
      "name": "requestSwap",
      "outputs": [
        {
          "internalType": "bytes32",
          "name": "",
          "type": "bytes32"
        }
      ],
      "stateMutability": "nonpayable",
      "type": "function"
    },
    {
      "inputs": [
        {
          "internalType": "bytes32",
          "name": "",
          "type": "bytes32"
        }
      ],
      "name": "requests",
      "outputs": [
        {
          "internalType": "address",
          "name": "initiator",
          "type": "address"
        },
        {
          "internalType": "address",
          "name": "provider",
          "type": "address"
        },
        {
          "internalType": "address",
          "name": "inToken",
          "type": "address"
        },
        {
          "internalType": "uint128",
          "name": "amount",
          "type": "uint128"
        },
        {
          "internalType": "uint48",
          "name": "fee",
          "type": "uint48"
        },
        {
          "internalType": "uint48",
          "name": "expireTs",
          "type": "uint48"
        }
      ],
      "stateMutability": "view",
      "type": "function"
    },
    {
      "inputs": [
        {
          "internalType": "address",
          "name": "",
          "type": "address"
        }
      ],
      "name": "supportedTokens",
      "outputs": [
        {
          "internalType": "bool",
          "name": "",
          "type": "bool"
        }
      ],
      "stateMutability": "view",
      "type": "function"
    },
    {
      "inputs": [
        {
          "internalType": "bytes32",
          "name": "swapId",
          "type": "bytes32"
        }
      ],
      "name": "unlock",
      "outputs": [],
      "stateMutability": "nonpayable",
      "type": "function"
    },
    {
      "inputs": [
        {
          "internalType": "address",
          "name": "token",
          "type": "address"
        },
        {
          "internalType": "uint128",
          "name": "amount",
          "type": "uint128"
        }
      ],
      "name": "withdraw",
      "outputs": [],
      "stateMutability": "nonpayable",
      "type": "function"
    }
  ],
  "bytecode": "0x61010060405260526080818152906200289760a039805160209182012060408051808201825260088152674d65736f6e20466960c01b908401528051808201825260018152603160f81b908401528051928301919091527fe127d7b8d403871d7ed6b19024db4422e92aee79823ba78ad61e52ee2a5f9b98908201527fc89efdaa54c0f20c7adf612882df0950f5a951637e0307cdcb4c672f298b8bc660608201524660808201523060a082015260c00160405160208183030381529060405280519060200120600055348015620000d657600080fd5b50604051620028e9380380620028e9833981016040819052620000f99162000194565b60005b81518110156200014857620001338282815181106200011f576200011f62000297565b60200260200101516200015060201b60201c565b806200013f816200026d565b915050620000fc565b5050620002c3565b6001600160a01b03166000908152600160208190526040909120805460ff19169091179055565b80516001600160a01b03811681146200018f57600080fd5b919050565b60006020808385031215620001a857600080fd5b82516001600160401b0380821115620001c057600080fd5b818501915085601f830112620001d557600080fd5b815181811115620001ea57620001ea620002ad565b8060051b604051601f19603f83011681018181108582111715620002125762000212620002ad565b604052828152858101935084860182860187018a10156200023257600080fd5b600095505b8386101562000260576200024b8162000177565b85526001959095019493860193860162000237565b5098975050505050505050565b60006000198214156200029057634e487b7160e01b600052601160045260246000fd5b5060010190565b634e487b7160e01b600052603260045260246000fd5b634e487b7160e01b600052604160045260246000fd5b6125c480620002d36000396000f3fe608060405234801561001057600080fd5b50600436106101005760003560e01c806394149c1a11610097578063d2ef739811610066578063d2ef739814610118578063d541beb31461035f578063ec9b5b3a14610372578063f7888aec1461038557600080fd5b806394149c1a146102695780639d8669851461027e578063b3fb656414610339578063bcc20ff61461034c57600080fd5b8063552c0120116100d3578063552c01201461016657806368c4ac26146101795780636bb39ae0146101ac578063721c5aff1461025657600080fd5b806308fab167146101055780631548fdce1461011a578063378585411461012d5780633b11d5ac14610140575b600080fd5b6101186101133660046120e6565b6103d1565b005b61011861012836600461213a565b610427565b61011861013b3660046121a2565b610523565b61015361014e366004612310565b6107e1565b6040519081526020015b60405180910390f35b610118610174366004612293565b610a0b565b61019c610187366004612091565b60016020526000908152604090205460ff1681565b604051901515815260200161015d565b61020c6101ba36600461213a565b60046020526000908152604090208054600182015460028301546003909301546001600160a01b039283169391831692909116906001600160801b03811690600160801b90046001600160401b031685565b604080516001600160a01b039687168152948616602086015292909416918301919091526001600160801b031660608201526001600160401b03909116608082015260a00161015d565b610118610264366004612153565b610c02565b604051632000000f60e21b815260200161015d565b6102e861028c36600461213a565b600360208190526000918252604090912080546001820154600283015492909301546001600160a01b0391821693821692909116906001600160801b0381169065ffffffffffff600160801b8204811691600160b01b90041686565b604080516001600160a01b039788168152958716602087015293909516928401929092526001600160801b0316606083015265ffffffffffff908116608083015290911660a082015260c00161015d565b6101186103473660046120e6565b610f16565b61015361035a366004612354565b610fd6565b61011861036d36600461213a565b6112db565b61011861038036600461213a565b6115cc565b6103b96103933660046120b3565b60026020908152600092835260408084209091529082529020546001600160801b031681565b6040516001600160801b03909116815260200161015d565b6001600160a01b038216600090815260016020526040902054829060ff166104145760405162461bcd60e51b815260040161040b9061240f565b60405180910390fd5b33610421818086866117c5565b50505050565b6000818152600360208190526040909120015481906001600160801b03166104615760405162461bcd60e51b815260040161040b9061243a565b6000828152600360205260409020600101546001600160a01b0316156104c95760405162461bcd60e51b815260206004820152601f60248201527f7377617020626f6e64656420746f20616e6f746865722070726f766964657200604482015260640161040b565b60008281526003602090815260409182902060010180546001600160a01b03191633179055815184815291517f9dadb60bc000bbd7b49430723ed56b6aa35909dcab91ec2cb17ed5da7ae4ffd69281900390910190a15050565b6000878152600460208181526040808420815160a08101835281546001600160a01b039081168252600183015481168286015260028301541692810192909252600301546001600160801b03811660608301819052600160801b9091046001600160401b03166080830152938b9052919052906105d85760405162461bcd60e51b81526020600482015260136024820152721cddd85c08191bd95cc81b9bdd08195e1a5cdd606a1b604482015260640161040b565b80606001516001600160801b0316866001600160801b0316111561065b5760405162461bcd60e51b815260206004820152603460248201527f72656c6561736520616d6f756e742063616e6e6f742062652067726561746572604482015273081d1a185b881b1bd8dada5b99c8185b5bdd5b9d60621b606482015260840161040b565b6040516bffffffffffffffffffffffff19606089901b1660208201526106a4908990603401604051602081830303815290604052805190602001208784600001518888886118b9565b6040810151602082015160608301516001600160801b039081169089161015610753576001600160a01b03808316600090815260026020908152604080832093851683529290522054606084015161070f916001600160801b03169061070a908b611a60565b611a93565b6001600160a01b03838116600090815260026020908152604080832093861683529290522080546001600160801b0319166001600160801b03929092169190911790555b60008a815260046020526040902080546001600160a01b0319908116825560018201805482169055600282018054909116905560030180546001600160c01b03191690556107a2828a8a611ac0565b6040518a81527fe8aa10932e72fe72aa2f3879a4dd799b95f5fbe728be1be0609e5baa14ec40f49060200160405180910390a150505050505050505050565b6001600160a01b038116600090815260016020526040812054829060ff1661081b5760405162461bcd60e51b815260040161040b9061240f565b60008060008061082b8888611c08565b9350935093509350600061083c3390565b90506040518060c00160405280826001600160a01b0316815260200160006001600160a01b03168152602001896001600160a01b03168152602001856001600160801b031681526020018465ffffffffffff1681526020018365ffffffffffff168152506003600087815260200190815260200160002060008201518160000160006101000a8154816001600160a01b0302191690836001600160a01b0316021790555060208201518160010160006101000a8154816001600160a01b0302191690836001600160a01b0316021790555060408201518160020160006101000a8154816001600160a01b0302191690836001600160a01b0316021790555060608201518160030160006101000a8154816001600160801b0302191690836001600160801b0316021790555060808201518160030160106101000a81548165ffffffffffff021916908365ffffffffffff16021790555060a08201518160030160166101000a81548165ffffffffffff021916908365ffffffffffff1602179055509050506109cb888286611e86565b6040518581527fa67aeefca6ffac499b56c6e714636f7ade5d82fde82aef50665ad3e88be5cb4b9060200160405180910390a15092979650505050505050565b6000868152600360208190526040909120015486906001600160801b0316610a455760405162461bcd60e51b815260040161040b9061243a565b6000878152600360208181526040808420815160c08101835281546001600160a01b0390811680835260018401548216838701526002840154909116938201939093529301546001600160801b038116606085015265ffffffffffff600160801b820481166080860152600160b01b9091041660a08401528951918a019190912092549192610ad8928b928a8a8a6118b9565b604080820151602080840151606085015160008d81526003938490529490942080546001600160a01b0319908116825560018201805482169055600282018054909116905590910180546001600160e01b031916905590918515610bb7576001600160a01b03808416600090815260026020908152604080832093861683529290522054610b6f906001600160801b031682611a93565b6001600160a01b03848116600090815260026020908152604080832093871683529290522080546001600160801b0319166001600160801b0392909216919091179055610bc2565b610bc2838383611ac0565b6040518b81527f6921a2110a802468e8955f2885822155442ad19c60f42db0444a6993c23d20629060200160405180910390a15050505050505050505050565b6001600160a01b038116600090815260016020526040902054819060ff16610c3c5760405162461bcd60e51b815260040161040b9061240f565b6000836001600160801b031611610c955760405162461bcd60e51b815260206004820181905260248201527f616d6f756e74206d7573742062652067726561746572207468616e207a65726f604482015260640161040b565b6000858152600460205260409020600301546001600160801b031615610cfd5760405162461bcd60e51b815260206004820152601b60248201527f6c6f636b696e67207377617020616c7265616479206578697374730000000000604482015260640161040b565b6001600160a01b0382166000908152600260209081526040808320338085529252909120546001600160801b0385811691161015610d745760405162461bcd60e51b8152602060048201526014602482015273696e73756666696369656e742062616c616e636560601b604482015260640161040b565b6001600160a01b03808416600090815260026020908152604080832093851683529290522054610dae9085906001600160801b03166124af565b6001600160a01b0384811660008181526002602090815260408083208786168085529083529281902080546001600160801b0319166001600160801b03978816179055805160a081018252948b16855290840191909152820152908516606082015260808101610e206104b04261248d565b6001600160401b03908116909152600088815260046020908152604091829020845181546001600160a01b039182166001600160a01b0319918216178355928601516001830180549183169185169190911790558584015160028301805491909216931692909217909155606084015160039091018054608090950151909316600160801b026001600160c01b03199094166001600160801b0390911617929092179055517faad18fe672f0d6b379db88b0e1176f10cc003e9a4d8ed142a90c0b6f8bedb8de90610f0690889084909182526001600160a01b0316602082015260400190565b60405180910390a1505050505050565b6001600160a01b038216600090815260016020526040902054829060ff16610f505760405162461bcd60e51b815260040161040b9061240f565b6001600160a01b038316600090815260026020908152604080832033808552925290912054610f88906001600160801b031684611a93565b6001600160a01b03858116600090815260026020908152604080832093861683529290522080546001600160801b0319166001600160801b0392909216919091179055610421848285611e86565b6001600160a01b038516600090815260016020526040812054869060ff166110105760405162461bcd60e51b815260040161040b9061240f565b6000806000806110208c8c611c08565b60408051600081526020810180835286905260ff8d1691810191909152606081018e9052608081018d90529397509195509350915060019060a0016020604051602081039080840390855afa15801561107d573d6000803e3d6000fd5b505050602060405103516001600160a01b03168a6001600160a01b0316146110db5760405162461bcd60e51b8152602060048201526011602482015270696e76616c6964207369676e617475726560781b604482015260640161040b565b60003390506040518060c001604052808c6001600160a01b03168152602001826001600160a01b031681526020018d6001600160a01b03168152602001856001600160801b031681526020018465ffffffffffff1681526020018365ffffffffffff168152506003600087815260200190815260200160002060008201518160000160006101000a8154816001600160a01b0302191690836001600160a01b0316021790555060208201518160010160006101000a8154816001600160a01b0302191690836001600160a01b0316021790555060408201518160020160006101000a8154816001600160a01b0302191690836001600160a01b0316021790555060608201518160030160006101000a8154816001600160801b0302191690836001600160801b0316021790555060808201518160030160106101000a81548165ffffffffffff021916908365ffffffffffff16021790555060a08201518160030160166101000a81548165ffffffffffff021916908365ffffffffffff16021790555090505061126c8c8c86611e86565b6040805186815265ffffffffffff841660208201526001600160801b038616818301526001600160a01b038e16606082015290517f84fca00b55561d42cba355c337a2370e749a951b91f65d7f7228d1ed22d903db9181900360800190a150929b9a5050505050505050505050565b6000818152600360208190526040909120015481906001600160801b03166113155760405162461bcd60e51b815260040161040b9061243a565b600082815260036020819052604090912001548290426001600160401b0316600160b01b90910465ffffffffffff16106113845760405162461bcd60e51b815260206004820152601060248201526f1cddd85c081b9bdd08195e1c1a5c995960821b604482015260640161040b565b6000600360008581526020019081526020016000206040518060c00160405290816000820160009054906101000a90046001600160a01b03166001600160a01b03166001600160a01b031681526020016001820160009054906101000a90046001600160a01b03166001600160a01b03166001600160a01b031681526020016002820160009054906101000a90046001600160a01b03166001600160a01b03166001600160a01b031681526020016003820160009054906101000a90046001600160801b03166001600160801b03166001600160801b031681526020016003820160109054906101000a900465ffffffffffff1665ffffffffffff1665ffffffffffff1681526020016003820160169054906101000a900465ffffffffffff1665ffffffffffff1665ffffffffffff1681525050905060008160400151905060008260000151905060008360600151905060036000888152602001908152602001600020600080820160006101000a8154906001600160a01b0302191690556001820160006101000a8154906001600160a01b0302191690556002820160006101000a8154906001600160a01b0302191690556003820160006101000a8154906001600160801b0302191690556003820160106101000a81549065ffffffffffff02191690556003820160166101000a81549065ffffffffffff02191690555050611590838383611ac0565b6040518781527f5a399591cfd74c375a1ffd61c20221db0db82381f65516889ed13c8cd1f99d5b9060200160405180910390a150505050505050565b6000818152600460205260409020600301546001600160801b03166116295760405162461bcd60e51b81526020600482015260136024820152721cddd85c08191bd95cc81b9bdd08195e1a5cdd606a1b604482015260640161040b565b600081815260046020908152604091829020825160a08101845281546001600160a01b03908116825260018301548116938201939093526002820154909216928201929092526003909101546001600160801b03811660608301526001600160401b03600160801b90910481166080830181905242909116116116ee5760405162461bcd60e51b815260206004820152601960248201527f5468652073776170206973207374696c6c20696e206c6f636b00000000000000604482015260640161040b565b60408082015160608301516020808501516001600160a01b03808516600090815260028452868120918316815292529390205491929091611738906001600160801b031683611a93565b6001600160a01b03938416600090815260026020818152604080842095909716835293845285822080546001600160801b0319166001600160801b03949094169390931790925595865260049091529190932080546001600160a01b0319908116825560018201805482169055918101805490921690915560030180546001600160c01b03191690555050565b6001600160a01b038083166000908152600260209081526040808320938716835292905220546001600160801b03808316911610156118325760405162461bcd60e51b815260206004820152600960248201526837bb32b9323930bbb760b91b604482015260640161040b565b6001600160a01b0380831660009081526002602090815260408083209387168352929052205461186b906001600160801b031682611a60565b6001600160a01b03838116600090815260026020908152604080832093881683529290522080546001600160801b0319166001600160801b0392909216919091179055610421828583611ac0565b6001600160a01b03841661190f5760405162461bcd60e51b815260206004820152601e60248201527f7369676e65722063616e6e6f7420626520656d70747920616464726573730000604482015260640161040b565b60006040518060600160405280602b815260200161258d602b9139805160209182012060408051928301919091528101899052606081018890526080016040516020818303038152906040528051906020012090506000868260405160200161198f92919061190160f01b81526002810192909252602282015260420190565b60408051601f1981840301815282825280516020918201206000845290830180835281905260ff8616918301919091526060820187905260808201869052915060019060a0016020604051602081039080840390855afa1580156119f7573d6000803e3d6000fd5b505050602060405103516001600160a01b0316866001600160a01b031614611a555760405162461bcd60e51b8152602060048201526011602482015270696e76616c6964207369676e617475726560781b604482015260640161040b565b505050505050505050565b60006001600160801b038316611a7683856124af565b9150816001600160801b03161115611a8d57600080fd5b92915050565b60006001600160801b038316611aa98385612462565b9150816001600160801b03161015611a8d57600080fd5b604080518082018252601981527f7472616e7366657228616464726573732c75696e74323536290000000000000060209182015281516001600160a01b0385811660248301526001600160801b038516604480840191909152845180840390910181526064909201845291810180516001600160e01b031663a9059cbb60e01b17905291516000928392871691611b5791906123d4565b6000604051808303816000865af19150503d8060008114611b94576040519150601f19603f3d011682016040523d82523d6000602084013e611b99565b606091505b5091509150818015611bc3575080511580611bc3575080806020019051810190611bc3919061211d565b611c015760405162461bcd60e51b815260206004820152600f60248201526e1d1c985b9cd9995c8819985a5b1959608a1b604482015260640161040b565b5050505050565b600080600080600080600080611c1d8a611f16565b6040516bffffffffffffffffffffffff1960608f901b1660208201529397509195509350915084906034016040516020818303038152906040528051906020012014611ca45760405162461bcd60e51b81526020600482015260166024820152750d2dca8ded6cadc40c8decae640dcdee840dac2e8c6d60531b604482015260640161040b565b6000836001600160801b031611611d0b5760405162461bcd60e51b815260206004820152602560248201527f7377617020616d6f756e74206d7573742062652067726561746572207468616e604482015264207a65726f60d81b606482015260840161040b565b42611d18610e108261248d565b6001600160401b03168265ffffffffffff1611611d6e5760405162461bcd60e51b81526020600482015260146024820152736578706972657320747320746f6f206561726c7960601b604482015260640161040b565b611d7a611c208261248d565b6001600160401b03168265ffffffffffff1610611dcf5760405162461bcd60e51b81526020600482015260136024820152726578706972657320747320746f6f206c61746560681b604482015260640161040b565b6000611e188c80516020918201206000546040805161190160f01b8186015260228101929092526042808301939093528051808303909301835260629091019052805191012090565b600081815260036020819052604090912001549091506001600160801b031615611e745760405162461bcd60e51b815260206004820152600d60248201526c1cddd85c0818dbdb999b1a58dd609a1b604482015260640161040b565b9b939a50919850965090945050505050565b6040516323b872dd60e01b81526001600160a01b0383811660048301523060248301526001600160801b03831660448301528416906323b872dd90606401602060405180830381600087803b158015611ede57600080fd5b505af1158015611ef2573d6000803e3d6000fd5b505050506040513d601f19601f82011682018060405250810190610421919061211d565b600080600080600080600080600089806020019051810190611f38919061220e565b5050945094509450945094506040518060a001604052806063815260200161252a60639139805190602001208514611fb25760405162461bcd60e51b815260206004820152601d60248201527f496e76616c696420737761702072657175657374207479706568617368000000604482015260640161040b565b9299919850965090945092505050565b80356001600160a01b0381168114611fd957600080fd5b919050565b600082601f830112611fef57600080fd5b81356001600160401b0380821115612009576120096124ed565b604051601f8301601f19908116603f01168101908282118183101715612031576120316124ed565b8160405283815286602085880101111561204a57600080fd5b836020870160208301376000602085830101528094505050505092915050565b805165ffffffffffff81168114611fd957600080fd5b803560ff81168114611fd957600080fd5b6000602082840312156120a357600080fd5b6120ac82611fc2565b9392505050565b600080604083850312156120c657600080fd5b6120cf83611fc2565b91506120dd60208401611fc2565b90509250929050565b600080604083850312156120f957600080fd5b61210283611fc2565b9150602083013561211281612514565b809150509250929050565b60006020828403121561212f57600080fd5b81516120ac81612503565b60006020828403121561214c57600080fd5b5035919050565b6000806000806080858703121561216957600080fd5b8435935061217960208601611fc2565b9250604085013561218981612514565b915061219760608601611fc2565b905092959194509250565b600080600080600080600060e0888a0312156121bd57600080fd5b873596506121cd60208901611fc2565b955060408801356121dd81612514565b9450606088013593506080880135925060a0880135915061220060c08901612080565b905092959891949750929550565b600080600080600080600060e0888a03121561222957600080fd5b8751965060208801519550604088015161224281612514565b94506122506060890161206a565b935061225e6080890161206a565b60a08901519093506001600160e01b03198116811461227c57600080fd5b8092505060c0880151905092959891949750929550565b60008060008060008060c087890312156122ac57600080fd5b8635955060208701356001600160401b038111156122c957600080fd5b6122d589828a01611fde565b95505060408701359350606087013592506122f260808801612080565b915060a087013561230281612503565b809150509295509295509295565b6000806040838503121561232357600080fd5b82356001600160401b0381111561233957600080fd5b61234585828601611fde565b9250506120dd60208401611fc2565b60008060008060008060c0878903121561236d57600080fd5b86356001600160401b0381111561238357600080fd5b61238f89828a01611fde565b96505061239e60208801611fc2565b94506123ac60408801611fc2565b935060608701359250608087013591506123c860a08801612080565b90509295509295509295565b6000825160005b818110156123f557602081860181015185830152016123db565b81811115612404576000828501525b509190910192915050565b6020808252601190820152703ab739bab83837b93a32b2103a37b5b2b760791b604082015260600190565b6020808252600e908201526d1cddd85c081b9bdd08199bdd5b9960921b604082015260600190565b60006001600160801b03808316818516808303821115612484576124846124d7565b01949350505050565b60006001600160401b03808316818516808303821115612484576124846124d7565b60006001600160801b03838116908316818110156124cf576124cf6124d7565b039392505050565b634e487b7160e01b600052601160045260246000fd5b634e487b7160e01b600052604160045260246000fd5b801515811461251157600080fd5b50565b6001600160801b038116811461251157600080fdfe537761705265717565737428627974657320696e546f6b656e2c75696e7431323820616d6f756e742c75696e743438206665652c75696e7434382065787069726554732c627974657334206f7574436861696e2c6279746573206f7574546f6b656e295377617052656c656173652862797465733332207377617049642c627974657320726563697069656e7429a164736f6c6343000806000a454950373132446f6d61696e28737472696e67206e616d652c737472696e672076657273696f6e2c75696e7432353620636861696e49642c6164647265737320766572696679696e67436f6e747261637429",
  "linkReferences": {},
  "deployedLinkReferences": {}
}