{
  "_format": "hh-sol-artifact-1",
  "contractName": "Meson",
  "sourceName": "contracts/Meson.sol",
  "abi": [
    {
      "inputs": [
        {
          "internalType": "address[]",
          "name": "_supportedTokens",
          "type": "address[]"
        }
      ],
      "stateMutability": "nonpayable",
      "type": "constructor"
    },
    {
      "anonymous": false,
      "inputs": [
        {
          "indexed": false,
          "internalType": "bytes32",
          "name": "swapId",
          "type": "bytes32"
        }
      ],
      "name": "SwapBonded",
      "type": "event"
    },
    {
      "anonymous": false,
      "inputs": [
        {
          "indexed": false,
          "internalType": "bytes32",
          "name": "swapId",
          "type": "bytes32"
        }
      ],
      "name": "SwapCancelled",
      "type": "event"
    },
    {
      "anonymous": false,
      "inputs": [
        {
          "indexed": false,
          "internalType": "bytes32",
          "name": "swapId",
          "type": "bytes32"
        }
      ],
      "name": "SwapExecuted",
      "type": "event"
    },
    {
      "anonymous": false,
      "inputs": [
        {
          "indexed": false,
          "internalType": "bytes32",
          "name": "swapId",
          "type": "bytes32"
        }
      ],
      "name": "SwapLocked",
      "type": "event"
    },
    {
      "anonymous": false,
      "inputs": [
        {
          "indexed": false,
          "internalType": "bytes32",
          "name": "swapId",
          "type": "bytes32"
        }
      ],
      "name": "SwapPosted",
      "type": "event"
    },
    {
      "anonymous": false,
      "inputs": [
        {
          "indexed": false,
          "internalType": "bytes32",
          "name": "swapId",
          "type": "bytes32"
        }
      ],
      "name": "SwapReleased",
      "type": "event"
    },
    {
      "anonymous": false,
      "inputs": [
        {
          "indexed": false,
          "internalType": "bytes32",
          "name": "swapId",
          "type": "bytes32"
        }
      ],
      "name": "SwapRequested",
      "type": "event"
    },
    {
      "inputs": [
        {
          "internalType": "uint32",
          "name": "",
          "type": "uint32"
        }
      ],
      "name": "addressOfIndex",
      "outputs": [
        {
          "internalType": "address",
          "name": "",
          "type": "address"
        }
      ],
      "stateMutability": "view",
      "type": "function"
    },
    {
      "inputs": [
        {
          "internalType": "address",
          "name": "token",
          "type": "address"
        },
        {
          "internalType": "address",
          "name": "addr",
          "type": "address"
        }
      ],
      "name": "balanceOf",
      "outputs": [
        {
          "internalType": "uint128",
          "name": "",
          "type": "uint128"
        }
      ],
      "stateMutability": "view",
      "type": "function"
    },
    {
      "inputs": [
        {
          "internalType": "bytes32",
          "name": "swapId",
          "type": "bytes32"
        },
        {
          "internalType": "uint32",
          "name": "providerIndex",
          "type": "uint32"
        }
      ],
      "name": "bondSwap",
      "outputs": [],
      "stateMutability": "nonpayable",
      "type": "function"
    },
    {
      "inputs": [
        {
          "internalType": "bytes",
          "name": "encodedSwap",
          "type": "bytes"
        }
      ],
      "name": "cancelSwap",
      "outputs": [],
      "stateMutability": "nonpayable",
      "type": "function"
    },
    {
      "inputs": [
        {
          "internalType": "address",
          "name": "token",
          "type": "address"
        },
        {
          "internalType": "uint128",
          "name": "amount",
          "type": "uint128"
        }
      ],
      "name": "deposit",
      "outputs": [],
      "stateMutability": "nonpayable",
      "type": "function"
    },
    {
      "inputs": [
        {
          "internalType": "bytes",
          "name": "encodedSwap",
          "type": "bytes"
        },
        {
          "internalType": "bytes32",
          "name": "recipientHash",
          "type": "bytes32"
        },
        {
          "internalType": "bytes32",
          "name": "r",
          "type": "bytes32"
        },
        {
          "internalType": "bytes32",
          "name": "s",
          "type": "bytes32"
        },
        {
          "internalType": "uint8",
          "name": "v",
          "type": "uint8"
        },
        {
          "internalType": "bool",
          "name": "depositToPool",
          "type": "bool"
        }
      ],
      "name": "executeSwap",
      "outputs": [],
      "stateMutability": "nonpayable",
      "type": "function"
    },
    {
      "inputs": [],
      "name": "getCoinType",
      "outputs": [
        {
          "internalType": "bytes4",
          "name": "",
          "type": "bytes4"
        }
      ],
      "stateMutability": "pure",
      "type": "function"
    },
    {
      "inputs": [
        {
          "internalType": "address",
          "name": "",
          "type": "address"
        }
      ],
      "name": "indexOfAddress",
      "outputs": [
        {
          "internalType": "uint32",
          "name": "",
          "type": "uint32"
        }
      ],
      "stateMutability": "view",
      "type": "function"
    },
    {
      "inputs": [
        {
          "internalType": "bytes",
          "name": "encodedSwap",
          "type": "bytes"
        },
        {
          "internalType": "bytes32",
          "name": "domainHash",
          "type": "bytes32"
        },
        {
          "internalType": "address",
          "name": "initiator",
          "type": "address"
        },
        {
          "internalType": "bytes32",
          "name": "r",
          "type": "bytes32"
        },
        {
          "internalType": "bytes32",
          "name": "s",
          "type": "bytes32"
        },
        {
          "internalType": "uint8",
          "name": "v",
          "type": "uint8"
        }
      ],
      "name": "lock",
      "outputs": [],
      "stateMutability": "nonpayable",
      "type": "function"
    },
    {
      "inputs": [
        {
          "internalType": "bytes32",
          "name": "",
          "type": "bytes32"
        }
      ],
      "name": "lockingSwaps",
      "outputs": [
        {
          "internalType": "address",
          "name": "initiator",
          "type": "address"
        },
        {
          "internalType": "bytes32",
          "name": "tokenHash",
          "type": "bytes32"
        },
        {
          "internalType": "uint128",
          "name": "amount",
          "type": "uint128"
        },
        {
          "internalType": "uint32",
          "name": "providerIndex",
          "type": "uint32"
        },
        {
          "internalType": "uint48",
          "name": "until",
          "type": "uint48"
        }
      ],
      "stateMutability": "view",
      "type": "function"
    },
    {
      "inputs": [
        {
          "internalType": "bytes",
          "name": "encodedSwap",
          "type": "bytes"
        },
        {
          "internalType": "address",
          "name": "initiator",
          "type": "address"
        },
        {
          "internalType": "bytes32",
          "name": "r",
          "type": "bytes32"
        },
        {
          "internalType": "bytes32",
          "name": "s",
          "type": "bytes32"
        },
        {
          "internalType": "uint8",
          "name": "v",
          "type": "uint8"
        },
        {
          "internalType": "uint32",
          "name": "providerIndex",
          "type": "uint32"
        }
      ],
      "name": "postSwap",
      "outputs": [],
      "stateMutability": "nonpayable",
      "type": "function"
    },
    {
      "inputs": [
        {
          "internalType": "uint32",
          "name": "index",
          "type": "uint32"
        }
      ],
      "name": "registerAddress",
      "outputs": [],
      "stateMutability": "nonpayable",
      "type": "function"
    },
    {
      "inputs": [
        {
          "internalType": "bytes",
          "name": "encodedSwap",
          "type": "bytes"
        },
        {
          "internalType": "bytes32",
          "name": "domainHash",
          "type": "bytes32"
        },
        {
          "internalType": "address",
          "name": "recipient",
          "type": "address"
        },
        {
          "internalType": "bytes32",
          "name": "r",
          "type": "bytes32"
        },
        {
          "internalType": "bytes32",
          "name": "s",
          "type": "bytes32"
        },
        {
          "internalType": "uint8",
          "name": "v",
          "type": "uint8"
        }
      ],
      "name": "release",
      "outputs": [],
      "stateMutability": "nonpayable",
      "type": "function"
    },
    {
      "inputs": [
        {
          "internalType": "bytes",
          "name": "encodedSwap",
          "type": "bytes"
        }
      ],
      "name": "requestSwap",
      "outputs": [],
      "stateMutability": "nonpayable",
      "type": "function"
    },
    {
      "inputs": [
        {
          "internalType": "bytes32",
          "name": "swapId",
          "type": "bytes32"
        }
      ],
      "name": "unlock",
      "outputs": [],
      "stateMutability": "nonpayable",
      "type": "function"
    },
    {
      "inputs": [
        {
          "internalType": "address",
          "name": "token",
          "type": "address"
        },
        {
          "internalType": "uint128",
          "name": "amount",
          "type": "uint128"
        }
      ],
      "name": "withdraw",
      "outputs": [],
      "stateMutability": "nonpayable",
      "type": "function"
    }
  ],
  "bytecode": "0x60806040523480156200001157600080fd5b5060405162002c0638038062002c068339810160408190526200003491620001fa565b60405180608001604052806052815260200162002bb460529139805160209182012060408051808201825260088152674d65736f6e20466960c01b908401528051808201825260018152603160f81b908401528051928301919091527fe127d7b8d403871d7ed6b19024db4422e92aee79823ba78ad61e52ee2a5f9b98908201527fc89efdaa54c0f20c7adf612882df0950f5a951637e0307cdcb4c672f298b8bc660608201524660808201523060a082015260c0016040516020818303038152906040528051906020012060008190555060005b81518110156200015557620001408282815181106200012c576200012c620002fd565b60200260200101516200015d60201b60201c565b806200014c81620002d3565b91505062000109565b505062000329565b6001600160a01b0381166000818152600160208181526040808420805460ff1916909317909255815160609590951b6001600160601b0319168582015281516014818703018152603490950182528451948101949094208083526003855281832080546001600160a01b0319168517905592825260049093529190912055565b80516001600160a01b0381168114620001f557600080fd5b919050565b600060208083850312156200020e57600080fd5b82516001600160401b03808211156200022657600080fd5b818501915085601f8301126200023b57600080fd5b81518181111562000250576200025062000313565b8060051b604051601f19603f8301168101818110858211171562000278576200027862000313565b604052828152858101935084860182860187018a10156200029857600080fd5b600095505b83861015620002c657620002b181620001dd565b8552600195909501949386019386016200029d565b5098975050505050505050565b6000600019821415620002f657634e487b7160e01b600052601160045260246000fd5b5060010190565b634e487b7160e01b600052603260045260246000fd5b634e487b7160e01b600052604160045260246000fd5b61287b80620003396000396000f3fe608060405234801561001057600080fd5b50600436106101005760003560e01c80638a7e455211610097578063b3fb656411610066578063b3fb656414610318578063e52d04041461032b578063ec9b5b3a14610386578063f7888aec1461039757600080fd5b80638a7e4552146102b15780638e93243b146102c457806394149c1a146102d75780639d327f451461030557600080fd5b80635dc013e3116100d35780635dc013e3146101805780636bb39ae0146101935780637c41e82a1461028b57806389b531391461029e57600080fd5b806308fab167146101055780631aba3a551461011a5780634c5c81231461015a578063529eb49a1461016d575b600080fd5b6101186101133660046123e3565b6103cb565b005b61014061012836600461238e565b60066020526000908152604090205463ffffffff1681565b60405163ffffffff90911681526020015b60405180910390f35b610118610168366004612500565b61053e565b61011861017b3660046125bf565b6106c3565b61011861018e366004612500565b610b1f565b6102286101a136600461242a565b600a6020526000908152604090208054600182015460029092015473ffffffffffffffffffffffffffffffffffffffff90911691906fffffffffffffffffffffffffffffffff811690700100000000000000000000000000000000810463ffffffff169074010000000000000000000000000000000000000000900465ffffffffffff1685565b6040805173ffffffffffffffffffffffffffffffffffffffff909616865260208601949094526fffffffffffffffffffffffffffffffff9092169284019290925263ffffffff909116606083015265ffffffffffff16608082015260a001610151565b6101186102993660046124dd565b610ce9565b6101186102ac3660046125bf565b610e93565b6101186102bf366004612632565b61103f565b6101186102d23660046126b7565b611274565b6040517f8000003c000000000000000000000000000000000000000000000000000000008152602001610151565b610118610313366004612536565b611499565b6101186103263660046123e3565b61170f565b6103616103393660046126b7565b60076020526000908152604090205473ffffffffffffffffffffffffffffffffffffffff1681565b60405173ffffffffffffffffffffffffffffffffffffffff9091168152602001610151565b61011861039436600461242a565b50565b6103aa6103a53660046123b0565b611875565b6040516fffffffffffffffffffffffffffffffff9091168152602001610151565b73ffffffffffffffffffffffffffffffffffffffff8216600090815260016020526040902054829060ff16610461576040517f08c379a000000000000000000000000000000000000000000000000000000000815260206004820152601160248201527f756e737570706f7274656420746f6b656e00000000000000000000000000000060448201526064015b60405180910390fd5b3360008181526006602090815260408083205473ffffffffffffffffffffffffffffffffffffffff8816845260048352818420548085526005845282852063ffffffff909216808652919093529220546104cd906fffffffffffffffffffffffffffffffff16866118d9565b600082815260056020908152604080832063ffffffff87168452909152902080547fffffffffffffffffffffffffffffffff00000000000000000000000000000000166fffffffffffffffffffffffffffffffff92909216919091179055610536868487611918565b505050505050565b600061054a8383611acc565b60008181526008602052604090205490915073ffffffffffffffffffffffffffffffffffffffff16156105d9576040517f08c379a000000000000000000000000000000000000000000000000000000000815260206004820152600d60248201527f7377617020636f6e666c696374000000000000000000000000000000000000006044820152606401610458565b6000806105e68585611b41565b9150915060006105f33390565b60408051808201825273ffffffffffffffffffffffffffffffffffffffff8084168252600060208084018281528a8352600890915293902091518254935163ffffffff1674010000000000000000000000000000000000000000027fffffffffffffffff0000000000000000000000000000000000000000000000009094169116179190911790559050610688838284611da2565b6040518481527fa67aeefca6ffac499b56c6e714636f7ade5d82fde82aef50665ad3e88be5cb4b9060200160405180910390a1505050505050565b60006106d0888888611e67565b60408051600081526020810180835283905260ff851691810191909152606081018690526080810185905290915060019060a0016020604051602081039080840390855afa158015610726573d6000803e3d6000fd5b5050506020604051035173ffffffffffffffffffffffffffffffffffffffff168573ffffffffffffffffffffffffffffffffffffffff16146107c4576040517f08c379a000000000000000000000000000000000000000000000000000000000815260206004820152601160248201527f696e76616c6964207369676e61747572650000000000000000000000000000006044820152606401610458565b6000806107d18a8a611edc565b915091506000826fffffffffffffffffffffffffffffffff1611610851576040517f08c379a000000000000000000000000000000000000000000000000000000000815260206004820181905260248201527f616d6f756e74206d7573742062652067726561746572207468616e207a65726f6044820152606401610458565b6000838152600a60205260409020600201546fffffffffffffffffffffffffffffffff16156108dc576040517f08c379a000000000000000000000000000000000000000000000000000000000815260206004820152601b60248201527f6c6f636b696e67207377617020616c72656164792065786973747300000000006044820152606401610458565b336000908152600660209081526040808320548484526005835281842063ffffffff9091168085529252909120546fffffffffffffffffffffffffffffffff84811691161015610988576040517f08c379a000000000000000000000000000000000000000000000000000000000815260206004820152601460248201527f696e73756666696369656e742062616c616e63650000000000000000000000006044820152606401610458565b600082815260056020908152604080832063ffffffff851684529091529020546109c59084906fffffffffffffffffffffffffffffffff16612772565b600083815260056020908152604080832063ffffffff8616845282529182902080547fffffffffffffffffffffffffffffffff00000000000000000000000000000000166fffffffffffffffffffffffffffffffff9490941693909317909255805180820190915273ffffffffffffffffffffffffffffffffffffffff8a168152908101610a556104b042612751565b65ffffffffffff90811690915260008681526009602090815260409182902084518154959092015190931674010000000000000000000000000000000000000000027fffffffffffff000000000000000000000000000000000000000000000000000090941673ffffffffffffffffffffffffffffffffffffffff90911617929092179055517f4b9652d234ab744ed655916a0c1ddd3e9d02be9a04f7aee8b0bf1e8dfce0173a90610b0a9086815260200190565b60405180910390a15050505050505050505050565b6000610b2b8383611acc565b60008181526008602052604090205490915073ffffffffffffffffffffffffffffffffffffffff1680610bba576040517f08c379a000000000000000000000000000000000000000000000000000000000815260206004820152600760248201527f6e6f2073776170000000000000000000000000000000000000000000000000006044820152606401610458565b6000806000610bc98787611f8c565b9250925092504265ffffffffffff168165ffffffffffff1610610c48576040517f08c379a000000000000000000000000000000000000000000000000000000000815260206004820152600e60248201527f73776170206973206c6f636b65640000000000000000000000000000000000006044820152606401610458565b600083815260036020908152604080832054888452600890925290912080547fffffffffffffffff00000000000000000000000000000000000000000000000016905573ffffffffffffffffffffffffffffffffffffffff16610cac818685611918565b6040518681527f5a399591cfd74c375a1ffd61c20221db0db82381f65516889ed13c8cd1f99d5b9060200160405180910390a15050505050505050565b60008281526008602052604090205473ffffffffffffffffffffffffffffffffffffffff16610d74576040517f08c379a000000000000000000000000000000000000000000000000000000000815260206004820152600760248201527f6e6f2073776170000000000000000000000000000000000000000000000000006044820152606401610458565b60008281526008602052604090205474010000000000000000000000000000000000000000900463ffffffff1615610e08576040517f08c379a000000000000000000000000000000000000000000000000000000000815260206004820152601f60248201527f7377617020626f6e64656420746f20616e6f746865722070726f7669646572006044820152606401610458565b60008281526008602090815260409182902080547fffffffffffffffff00000000ffffffffffffffffffffffffffffffffffffffff167401000000000000000000000000000000000000000063ffffffff86160217905590518381527f9dadb60bc000bbd7b49430723ed56b6aa35909dcab91ec2cb17ed5da7ae4ffd6910160405180910390a15050565b6000610ea0888888611e67565b60008181526009602052604090205490915073ffffffffffffffffffffffffffffffffffffffff1680610f2f576040517f08c379a000000000000000000000000000000000000000000000000000000000815260206004820152601360248201527f7377617020646f6573206e6f74206578697374000000000000000000000000006044820152606401610458565b6040517fffffffffffffffffffffffffffffffffffffffff000000000000000000000000606088901b166020820152610f87908390603401604051602081830303815290604052805190602001208984898989612042565b600080610f948b8b611edc565b600081815260036020908152604080832054898452600990925290912080547fffffffffffff0000000000000000000000000000000000000000000000000000169055919350915073ffffffffffffffffffffffffffffffffffffffff16610ffd818a85611918565b6040518581527fe8aa10932e72fe72aa2f3879a4dd799b95f5fbe728be1be0609e5baa14ec40f4906020015b60405180910390a1505050505050505050505050565b600061104b8888611acc565b60008181526008602052604090205490915073ffffffffffffffffffffffffffffffffffffffff81169074010000000000000000000000000000000000000000900463ffffffff16806110fa576040517f08c379a000000000000000000000000000000000000000000000000000000000815260206004820152601c60248201527f73776170206e6f7420666f756e64206f72206e6f7420626f6e646564000000006044820152606401610458565b61110b8389600054858b8b8b612042565b6000806111188c8c611f8c565b50600087815260086020526040902080547fffffffffffffffff000000000000000000000000000000000000000000000000169055909250905085156111f757600082815260056020908152604080832063ffffffff87168452909152902054611194906fffffffffffffffffffffffffffffffff1682612289565b600083815260056020908152604080832063ffffffff88168452909152902080547fffffffffffffffffffffffffffffffff00000000000000000000000000000000166fffffffffffffffffffffffffffffffff92909216919091179055611244565b63ffffffff831660009081526007602090815260408083205485845260039092529091205473ffffffffffffffffffffffffffffffffffffffff9182169116611241818385611918565b50505b6040518581527f6921a2110a802468e8955f2885822155442ad19c60f42db0444a6993c23d206290602001611029565b3363ffffffff82166112e2576040517f08c379a000000000000000000000000000000000000000000000000000000000815260206004820152601260248201527f43616e6e6f742075736520696e646578203000000000000000000000000000006044820152606401610458565b63ffffffff821660009081526007602052604090205473ffffffffffffffffffffffffffffffffffffffff1615611375576040517f08c379a000000000000000000000000000000000000000000000000000000000815260206004820152601860248201527f496e64657820616c7265616479207265676973746572656400000000000000006044820152606401610458565b73ffffffffffffffffffffffffffffffffffffffff811660009081526006602052604090205463ffffffff1615611408576040517f08c379a000000000000000000000000000000000000000000000000000000000815260206004820152601a60248201527f4164647265737320616c726561647920726567697374657265640000000000006044820152606401610458565b63ffffffff9091166000818152600760209081526040808320805473ffffffffffffffffffffffffffffffffffffffff9096167fffffffffffffffffffffffff000000000000000000000000000000000000000090961686179055938252600690529190912080547fffffffffffffffffffffffffffffffffffffffffffffffffffffffff00000000169091179055565b60006114a58888611acc565b60008181526008602052604090205490915073ffffffffffffffffffffffffffffffffffffffff1615611534576040517f08c379a000000000000000000000000000000000000000000000000000000000815260206004820152600d60248201527f7377617020636f6e666c696374000000000000000000000000000000000000006044820152606401610458565b60408051600081526020810180835283905260ff851691810191909152606081018690526080810185905260019060a0016020604051602081039080840390855afa158015611587573d6000803e3d6000fd5b5050506020604051035173ffffffffffffffffffffffffffffffffffffffff168673ffffffffffffffffffffffffffffffffffffffff1614611625576040517f08c379a000000000000000000000000000000000000000000000000000000000815260206004820152601160248201527f696e76616c6964207369676e61747572650000000000000000000000000000006044820152606401610458565b6000806116328a8a611b41565b60408051808201825273ffffffffffffffffffffffffffffffffffffffff808d16825263ffffffff808a16602080850191825260008b815260089091529490942092518354945190911674010000000000000000000000000000000000000000027fffffffffffffffff00000000000000000000000000000000000000000000000090941691161791909117905590925090506116d0828983611da2565b6040518381527fd7a1fd45274eb446b18cdf83061f521e75114fa2c53ecb42bd853bba72097bab9060200160405180910390a150505050505050505050565b73ffffffffffffffffffffffffffffffffffffffff8216600090815260016020526040902054829060ff166117a0576040517f08c379a000000000000000000000000000000000000000000000000000000000815260206004820152601160248201527f756e737570706f7274656420746f6b656e0000000000000000000000000000006044820152606401610458565b3360008181526006602090815260408083205473ffffffffffffffffffffffffffffffffffffffff8816845260048352818420548085526005845282852063ffffffff9092168086529190935292205461180c906fffffffffffffffffffffffffffffffff1686612289565b600082815260056020908152604080832063ffffffff87168452909152902080547fffffffffffffffffffffffffffffffff00000000000000000000000000000000166fffffffffffffffffffffffffffffffff92909216919091179055610536868487611da2565b73ffffffffffffffffffffffffffffffffffffffff811660009081526004602090815260408083205460068352818420549084526005835281842063ffffffff90911684529091529020546fffffffffffffffffffffffffffffffff165b92915050565b60006fffffffffffffffffffffffffffffffff83166118f88385612772565b9150816fffffffffffffffffffffffffffffffff1611156118d357600080fd5b604080518082018252601981527f7472616e7366657228616464726573732c75696e743235362900000000000000602091820152815173ffffffffffffffffffffffffffffffffffffffff85811660248301526fffffffffffffffffffffffffffffffff8516604480840191909152845180840390910181526064909201845291810180517bffffffffffffffffffffffffffffffffffffffffffffffffffffffff167fa9059cbb00000000000000000000000000000000000000000000000000000000179052915160009283928716916119f391906126e2565b6000604051808303816000865af19150503d8060008114611a30576040519150601f19603f3d011682016040523d82523d6000602084013e611a35565b606091505b5091509150818015611a5f575080511580611a5f575080806020019051810190611a5f919061240d565b611ac5576040517f08c379a000000000000000000000000000000000000000000000000000000000815260206004820152600f60248201527f7472616e73666572206661696c656400000000000000000000000000000000006044820152606401610458565b5050505050565b6000808383604051611adf9291906126d2565b6040519081900381206000547f1901000000000000000000000000000000000000000000000000000000000000602084015260228301526042820181905291506062016040516020818303038152906040528051906020012091505092915050565b6000806000806000611b538787611f8c565b600083815260036020526040902054929550909350915073ffffffffffffffffffffffffffffffffffffffff1680611be7576040517f08c379a000000000000000000000000000000000000000000000000000000000815260206004820152601160248201527f746f6b656e20756e737570706f727465640000000000000000000000000000006044820152606401610458565b6000836fffffffffffffffffffffffffffffffff1611611c89576040517f08c379a000000000000000000000000000000000000000000000000000000000815260206004820152602560248201527f7377617020616d6f756e74206d7573742062652067726561746572207468616e60448201527f207a65726f0000000000000000000000000000000000000000000000000000006064820152608401610458565b42611c96610e1082612751565b65ffffffffffff168365ffffffffffff1611611d0e576040517f08c379a000000000000000000000000000000000000000000000000000000000815260206004820152601360248201527f65787069726520747320746f6f206561726c79000000000000000000000000006044820152606401610458565b611d1a611c2082612751565b65ffffffffffff168365ffffffffffff1610611d92576040517f08c379a000000000000000000000000000000000000000000000000000000000815260206004820152601260248201527f65787069726520747320746f6f206c61746500000000000000000000000000006044820152606401610458565b50945090925050505b9250929050565b6040517f23b872dd00000000000000000000000000000000000000000000000000000000815273ffffffffffffffffffffffffffffffffffffffff83811660048301523060248301526fffffffffffffffffffffffffffffffff831660448301528416906323b872dd90606401602060405180830381600087803b158015611e2957600080fd5b505af1158015611e3d573d6000803e3d6000fd5b505050506040513d601f19601f82011682018060405250810190611e61919061240d565b50505050565b6000808484604051611e7a9291906126d2565b6040519081900381207f1901000000000000000000000000000000000000000000000000000000000000602083015260228201859052604282018190529150606201604051602081830303815290604052805190602001209150509392505050565b600080808080611eee86880188612443565b965050505093505092506040518060a00160405280606381526020016127e160639139805190602001208314611f80576040517f08c379a000000000000000000000000000000000000000000000000000000000815260206004820152601d60248201527f496e76616c6964207377617020726571756573742074797065686173680000006044820152606401610458565b90969095509350505050565b6000808080808080611fa0888a018a612443565b50509450509350935093506040518060a00160405280606381526020016127e160639139805190602001208414612033576040517f08c379a000000000000000000000000000000000000000000000000000000000815260206004820152601d60248201527f496e76616c6964207377617020726571756573742074797065686173680000006044820152606401610458565b91955093509150509250925092565b73ffffffffffffffffffffffffffffffffffffffff84166120bf576040517f08c379a000000000000000000000000000000000000000000000000000000000815260206004820152601e60248201527f7369676e65722063616e6e6f7420626520656d707479206164647265737300006044820152606401610458565b60006040518060600160405280602b8152602001612844602b9139805160209182012060408051928301919091528101899052606081018890526080016040516020818303038152906040528051906020012090506000868260405160200161215a9291907f190100000000000000000000000000000000000000000000000000000000000081526002810192909252602282015260420190565b604080517fffffffffffffffffffffffffffffffffffffffffffffffffffffffffffffffe081840301815282825280516020918201206000845290830180835281905260ff8616918301919091526060820187905260808201869052915060019060a0016020604051602081039080840390855afa1580156121e0573d6000803e3d6000fd5b5050506020604051035173ffffffffffffffffffffffffffffffffffffffff168673ffffffffffffffffffffffffffffffffffffffff161461227e576040517f08c379a000000000000000000000000000000000000000000000000000000000815260206004820152601160248201527f696e76616c6964207369676e61747572650000000000000000000000000000006044820152606401610458565b505050505050505050565b60006fffffffffffffffffffffffffffffffff83166122a8838561271d565b9150816fffffffffffffffffffffffffffffffff1610156118d357600080fd5b803573ffffffffffffffffffffffffffffffffffffffff811681146122ec57600080fd5b919050565b60008083601f84011261230357600080fd5b50813567ffffffffffffffff81111561231b57600080fd5b602083019150836020828501011115611d9b57600080fd5b80356fffffffffffffffffffffffffffffffff811681146122ec57600080fd5b803563ffffffff811681146122ec57600080fd5b803565ffffffffffff811681146122ec57600080fd5b803560ff811681146122ec57600080fd5b6000602082840312156123a057600080fd5b6123a9826122c8565b9392505050565b600080604083850312156123c357600080fd5b6123cc836122c8565b91506123da602084016122c8565b90509250929050565b600080604083850312156123f657600080fd5b6123ff836122c8565b91506123da60208401612333565b60006020828403121561241f57600080fd5b81516123a9816127d2565b60006020828403121561243c57600080fd5b5035919050565b600080600080600080600060e0888a03121561245e57600080fd5b873596506020880135955061247560408901612333565b945061248360608901612367565b935061249160808901612367565b925060a08801357fffffffff00000000000000000000000000000000000000000000000000000000811681146124c657600080fd5b8092505060c0880135905092959891949750929550565b600080604083850312156124f057600080fd5b823591506123da60208401612353565b6000806020838503121561251357600080fd5b823567ffffffffffffffff81111561252a57600080fd5b611f80858286016122f1565b600080600080600080600060c0888a03121561255157600080fd5b873567ffffffffffffffff81111561256857600080fd5b6125748a828b016122f1565b90985096506125879050602089016122c8565b945060408801359350606088013592506125a36080890161237d565b91506125b160a08901612353565b905092959891949750929550565b600080600080600080600060c0888a0312156125da57600080fd5b873567ffffffffffffffff8111156125f157600080fd5b6125fd8a828b016122f1565b90985096505060208801359450612616604089016122c8565b935060608801359250608088013591506125b160a0890161237d565b600080600080600080600060c0888a03121561264d57600080fd5b873567ffffffffffffffff81111561266457600080fd5b6126708a828b016122f1565b9098509650506020880135945060408801359350606088013592506126976080890161237d565b915060a08801356126a7816127d2565b8091505092959891949750929550565b6000602082840312156126c957600080fd5b6123a982612353565b8183823760009101908152919050565b6000825160005b8181101561270357602081860181015185830152016126e9565b81811115612712576000828501525b509190910192915050565b60006fffffffffffffffffffffffffffffffff808316818516808303821115612748576127486127a3565b01949350505050565b600065ffffffffffff808316818516808303821115612748576127486127a3565b60006fffffffffffffffffffffffffffffffff8381169083168181101561279b5761279b6127a3565b039392505050565b7f4e487b7100000000000000000000000000000000000000000000000000000000600052601160045260246000fd5b801515811461039457600080fdfe537761705265717565737428627974657320696e546f6b656e2c75696e7431323820616d6f756e742c75696e743438206665652c75696e7434382065787069726554732c627974657334206f7574436861696e2c6279746573206f7574546f6b656e295377617052656c656173652862797465733332207377617049642c627974657320726563697069656e7429a164736f6c6343000806000a454950373132446f6d61696e28737472696e67206e616d652c737472696e672076657273696f6e2c75696e7432353620636861696e49642c6164647265737320766572696679696e67436f6e747261637429",
  "linkReferences": {},
  "deployedLinkReferences": {}
}