{
  "_format": "hh-sol-artifact-1",
  "contractName": "Meson",
  "sourceName": "contracts/Meson.sol",
  "abi": [
    {
      "inputs": [
        {
          "internalType": "address[]",
          "name": "supportedTokens",
          "type": "address[]"
        }
      ],
      "stateMutability": "nonpayable",
      "type": "constructor"
    },
    {
      "anonymous": false,
      "inputs": [
        {
          "indexed": true,
          "internalType": "uint256",
          "name": "encodedSwap",
          "type": "uint256"
        }
      ],
      "name": "SwapBonded",
      "type": "event"
    },
    {
      "anonymous": false,
      "inputs": [
        {
          "indexed": true,
          "internalType": "uint256",
          "name": "encodedSwap",
          "type": "uint256"
        }
      ],
      "name": "SwapCancelled",
      "type": "event"
    },
    {
      "anonymous": false,
      "inputs": [
        {
          "indexed": true,
          "internalType": "uint256",
          "name": "encodedSwap",
          "type": "uint256"
        }
      ],
      "name": "SwapLocked",
      "type": "event"
    },
    {
      "anonymous": false,
      "inputs": [
        {
          "indexed": true,
          "internalType": "uint256",
          "name": "encodedSwap",
          "type": "uint256"
        }
      ],
      "name": "SwapPosted",
      "type": "event"
    },
    {
      "anonymous": false,
      "inputs": [
        {
          "indexed": true,
          "internalType": "uint256",
          "name": "encodedSwap",
          "type": "uint256"
        }
      ],
      "name": "SwapReleased",
      "type": "event"
    },
    {
      "inputs": [
        {
          "internalType": "address",
          "name": "addr",
          "type": "address"
        }
      ],
      "name": "addAuthorizedAddr",
      "outputs": [],
      "stateMutability": "nonpayable",
      "type": "function"
    },
    {
      "inputs": [
        {
          "internalType": "uint256",
          "name": "encodedSwap",
          "type": "uint256"
        },
        {
          "internalType": "uint40",
          "name": "poolIndex",
          "type": "uint40"
        }
      ],
      "name": "bondSwap",
      "outputs": [],
      "stateMutability": "nonpayable",
      "type": "function"
    },
    {
      "inputs": [
        {
          "internalType": "uint256",
          "name": "encodedSwap",
          "type": "uint256"
        }
      ],
      "name": "cancelSwap",
      "outputs": [],
      "stateMutability": "nonpayable",
      "type": "function"
    },
    {
      "inputs": [
        {
          "internalType": "uint256",
          "name": "amount",
          "type": "uint256"
        },
        {
          "internalType": "uint48",
          "name": "poolTokenIndex",
          "type": "uint48"
        }
      ],
      "name": "deposit",
      "outputs": [],
      "stateMutability": "nonpayable",
      "type": "function"
    },
    {
      "inputs": [
        {
          "internalType": "uint256",
          "name": "amount",
          "type": "uint256"
        },
        {
          "internalType": "uint48",
          "name": "poolTokenIndex",
          "type": "uint48"
        }
      ],
      "name": "depositAndRegister",
      "outputs": [],
      "stateMutability": "nonpayable",
      "type": "function"
    },
    {
      "inputs": [
        {
          "internalType": "uint256",
          "name": "encodedSwap",
          "type": "uint256"
        },
        {
          "internalType": "bytes32",
          "name": "r",
          "type": "bytes32"
        },
        {
          "internalType": "bytes32",
          "name": "s",
          "type": "bytes32"
        },
        {
          "internalType": "uint8",
          "name": "v",
          "type": "uint8"
        },
        {
          "internalType": "address",
          "name": "recipient",
          "type": "address"
        },
        {
          "internalType": "bool",
          "name": "depositToPool",
          "type": "bool"
        }
      ],
      "name": "executeSwap",
      "outputs": [],
      "stateMutability": "nonpayable",
      "type": "function"
    },
    {
      "inputs": [
        {
          "internalType": "uint256",
          "name": "encodedSwap",
          "type": "uint256"
        },
        {
          "internalType": "address",
          "name": "initiator",
          "type": "address"
        }
      ],
      "name": "getLockedSwap",
      "outputs": [
        {
          "internalType": "address",
          "name": "poolOwner",
          "type": "address"
        },
        {
          "internalType": "uint40",
          "name": "until",
          "type": "uint40"
        }
      ],
      "stateMutability": "view",
      "type": "function"
    },
    {
      "inputs": [
        {
          "internalType": "uint256",
          "name": "encodedSwap",
          "type": "uint256"
        }
      ],
      "name": "getPostedSwap",
      "outputs": [
        {
          "internalType": "address",
          "name": "initiator",
          "type": "address"
        },
        {
          "internalType": "address",
          "name": "poolOwner",
          "type": "address"
        },
        {
          "internalType": "bool",
          "name": "executed",
          "type": "bool"
        }
      ],
      "stateMutability": "view",
      "type": "function"
    },
    {
      "inputs": [],
      "name": "getShortCoinType",
      "outputs": [
        {
          "internalType": "bytes2",
          "name": "",
          "type": "bytes2"
        }
      ],
      "stateMutability": "pure",
      "type": "function"
    },
    {
      "inputs": [
        {
          "internalType": "address",
          "name": "token",
          "type": "address"
        }
      ],
      "name": "indexOfToken",
      "outputs": [
        {
          "internalType": "uint8",
          "name": "",
          "type": "uint8"
        }
      ],
      "stateMutability": "view",
      "type": "function"
    },
    {
      "inputs": [
        {
          "internalType": "uint256",
          "name": "encodedSwap",
          "type": "uint256"
        },
        {
          "internalType": "bytes32",
          "name": "r",
          "type": "bytes32"
        },
        {
          "internalType": "bytes32",
          "name": "s",
          "type": "bytes32"
        },
        {
          "internalType": "uint8",
          "name": "v",
          "type": "uint8"
        },
        {
          "internalType": "address",
          "name": "initiator",
          "type": "address"
        }
      ],
      "name": "lock",
      "outputs": [],
      "stateMutability": "nonpayable",
      "type": "function"
    },
    {
      "inputs": [
        {
          "internalType": "uint40",
          "name": "",
          "type": "uint40"
        }
      ],
      "name": "ownerOfPool",
      "outputs": [
        {
          "internalType": "address",
          "name": "",
          "type": "address"
        }
      ],
      "stateMutability": "view",
      "type": "function"
    },
    {
      "inputs": [
        {
          "internalType": "address",
          "name": "",
          "type": "address"
        }
      ],
      "name": "poolOfAuthorizedAddr",
      "outputs": [
        {
          "internalType": "uint40",
          "name": "",
          "type": "uint40"
        }
      ],
      "stateMutability": "view",
      "type": "function"
    },
    {
      "inputs": [
        {
          "internalType": "address",
          "name": "token",
          "type": "address"
        },
        {
          "internalType": "address",
          "name": "addr",
          "type": "address"
        }
      ],
      "name": "poolTokenBalance",
      "outputs": [
        {
          "internalType": "uint256",
          "name": "",
          "type": "uint256"
        }
      ],
      "stateMutability": "view",
      "type": "function"
    },
    {
      "inputs": [
        {
          "internalType": "uint256",
          "name": "encodedSwap",
          "type": "uint256"
        },
        {
          "internalType": "bytes32",
          "name": "r",
          "type": "bytes32"
        },
        {
          "internalType": "bytes32",
          "name": "s",
          "type": "bytes32"
        },
        {
          "internalType": "uint8",
          "name": "v",
          "type": "uint8"
        },
        {
          "internalType": "uint200",
          "name": "postingValue",
          "type": "uint200"
        }
      ],
      "name": "postSwap",
      "outputs": [],
      "stateMutability": "nonpayable",
      "type": "function"
    },
    {
      "inputs": [
        {
          "internalType": "uint256",
          "name": "encodedSwap",
          "type": "uint256"
        },
        {
          "internalType": "bytes32",
          "name": "r",
          "type": "bytes32"
        },
        {
          "internalType": "bytes32",
          "name": "s",
          "type": "bytes32"
        },
        {
          "internalType": "uint8",
          "name": "v",
          "type": "uint8"
        },
        {
          "internalType": "address",
          "name": "initiator",
          "type": "address"
        },
        {
          "internalType": "address",
          "name": "recipient",
          "type": "address"
        }
      ],
      "name": "release",
      "outputs": [],
      "stateMutability": "nonpayable",
      "type": "function"
    },
    {
      "inputs": [
        {
          "internalType": "address",
          "name": "addr",
          "type": "address"
        }
      ],
      "name": "removeAuthorizedAddr",
      "outputs": [],
      "stateMutability": "nonpayable",
      "type": "function"
    },
    {
      "inputs": [
        {
          "internalType": "uint8",
          "name": "tokenIndex",
          "type": "uint8"
        }
      ],
      "name": "serviceFeeCollected",
      "outputs": [
        {
          "internalType": "uint256",
          "name": "",
          "type": "uint256"
        }
      ],
      "stateMutability": "view",
      "type": "function"
    },
    {
      "inputs": [],
      "name": "supportedTokens",
      "outputs": [
        {
          "internalType": "address[]",
          "name": "tokens",
          "type": "address[]"
        }
      ],
      "stateMutability": "view",
      "type": "function"
    },
    {
      "inputs": [
        {
          "internalType": "uint8",
          "name": "tokenIndex",
          "type": "uint8"
        }
      ],
      "name": "tokenForIndex",
      "outputs": [
        {
          "internalType": "address",
          "name": "",
          "type": "address"
        }
      ],
      "stateMutability": "view",
      "type": "function"
    },
    {
      "inputs": [
        {
          "internalType": "uint256",
          "name": "encodedSwap",
          "type": "uint256"
        },
        {
          "internalType": "address",
          "name": "initiator",
          "type": "address"
        }
      ],
      "name": "unlock",
      "outputs": [],
      "stateMutability": "nonpayable",
      "type": "function"
    },
    {
      "inputs": [
        {
          "internalType": "uint256",
          "name": "amount",
          "type": "uint256"
        },
        {
          "internalType": "uint48",
          "name": "poolTokenIndex",
          "type": "uint48"
        }
      ],
      "name": "withdraw",
      "outputs": [],
      "stateMutability": "nonpayable",
      "type": "function"
    }
  ],
  "bytecode": "0x60806040523480156200001157600080fd5b50604051620037e4380380620037e4833981016040819052620000349162000156565b60005b81518160ff16101562000092576200007d828260ff168151811062000060576200006062000290565b60200260200101518260016200007791906200022f565b6200009a565b80620000898162000257565b91505062000037565b5050620002bc565b60ff8116620000ef5760405162461bcd60e51b815260206004820152601b60248201527f43616e6e6f7420757365203020617320746f6b656e20696e6465780000000000604482015260640160405180910390fd5b6001600160a01b039091166000818152600160209081526040808320805460ff90961660ff19909616861790559382528190529190912080546001600160a01b0319169091179055565b80516001600160a01b03811681146200015157600080fd5b919050565b600060208083850312156200016a57600080fd5b82516001600160401b03808211156200018257600080fd5b818501915085601f8301126200019757600080fd5b815181811115620001ac57620001ac620002a6565b8060051b604051601f19603f83011681018181108582111715620001d457620001d4620002a6565b604052828152858101935084860182860187018a1015620001f457600080fd5b600095505b8386101562000222576200020d8162000139565b855260019590950194938601938601620001f9565b5098975050505050505050565b600060ff821660ff84168060ff038211156200024f576200024f6200027a565b019392505050565b600060ff821660ff8114156200027157620002716200027a565b60010192915050565b634e487b7160e01b600052601160045260246000fd5b634e487b7160e01b600052603260045260246000fd5b634e487b7160e01b600052604160045260246000fd5b61351880620002cc6000396000f3fe608060405234801561001057600080fd5b50600436106101825760003560e01c80638b0a7765116100d8578063ce9247431161008c578063f1d2ec1d11610066578063f1d2ec1d14610409578063ff22f2721461041c578063ff3787191461042f57600080fd5b8063ce924743146103b6578063d3e95ea4146103c9578063eba7fb77146103dc57600080fd5b8063b002249d116100bd578063b002249d1461037b578063be18e8a414610390578063ce7f79b9146103a357600080fd5b80638b0a77651461032f5780638f487dc91461036857600080fd5b80634d11b0f11161013a5780637fe0282b116101145780637fe0282b1461029e5780638302ce5a146102db57806389a734c0146102ee57600080fd5b80634d11b0f11461024057806354d6a2b71461025357806360a2da981461026657600080fd5b80632335093c1161016b5780632335093c146101dc57806335eff30f1461021a57806337b90a4f1461022d57600080fd5b8063051119f5146101875780631e2a60751461019c575b600080fd5b61019a610195366004613072565b61045b565b005b6101af6101aa3660046130e4565b610659565b604080516001600160a01b0394851681529390921660208401521515908201526060015b60405180910390f35b6102086101ea366004613072565b6001600160a01b031660009081526001602052604090205460ff1690565b60405160ff90911681526020016101d3565b61019a6102283660046132a4565b6106d1565b61019a61023b3660046132c7565b6108b4565b61019a61024e3660046131cf565b610a52565b61019a6102613660046130e4565b610c20565b6102796102743660046130fd565b610d91565b604080516001600160a01b03909316835264ffffffffff9091166020830152016101d3565b6102c56102ac366004613072565b60026020526000908152604090205464ffffffffff1681565b60405164ffffffffff90911681526020016101d3565b61019a6102e9366004613232565b610ddf565b6103176102fc366004613302565b6003602052600090815260409020546001600160a01b031681565b6040516001600160a01b0390911681526020016101d3565b61035a61033d36600461331d565b60281b65ff00000000001660009081526004602052604090205490565b6040519081526020016101d3565b61019a6103763660046132c7565b611168565b6103836113ef565b6040516101d39190613373565b61019a61039e366004613120565b611515565b61019a6103b13660046132c7565b6117f7565b61019a6103c4366004613170565b61198f565b61035a6103d7366004613094565b611c7b565b6040517e3c00000000000000000000000000000000000000000000000000000000000081526020016101d3565b61019a6104173660046130fd565b611cfe565b61019a61042a366004613072565b611e62565b61031761043d36600461331d565b60ff166000908152602081905260409020546001600160a01b031690565b3360008181526002602052604090205464ffffffffff16806104ea5760405162461bcd60e51b815260206004820152602360248201527f546865207369676e657220646f6573206e6f742072656769737465722061207060448201527f6f6f6c000000000000000000000000000000000000000000000000000000000060648201526084015b60405180910390fd5b64ffffffffff81166000908152600360205260409020546001600160a01b038381169116146105815760405162461bcd60e51b815260206004820152602160248201527f4e6565642074686520706f6f6c206f776e657220617320746865207369676e6560448201527f720000000000000000000000000000000000000000000000000000000000000060648201526084016104e1565b6001600160a01b03831660009081526002602052604090205464ffffffffff8281169116146106185760405162461bcd60e51b815260206004820152602c60248201527f41646472206973206e6f7420617574686f72697a656420666f7220746865207360448201527f69676e6572277320706f6f6c000000000000000000000000000000000000000060648201526084016104e1565b50506001600160a01b0316600090815260026020526040902080547fffffffffffffffffffffffffffffffffffffffffffffffffffffff0000000000169055565b600081815260056020526040812054602881901c6001600160a01b0316919078ffffffffffffffffffffffffffffffffffffffffffffffffff166001811490836106a657600092506106c9565b64ffffffffff81166000908152600360205260409020546001600160a01b031692505b509193909250565b60008281526005602052604090205478ffffffffffffffffffffffffffffffffffffffffffffffffff166001811161074b5760405162461bcd60e51b815260206004820152601360248201527f5377617020646f6573206e6f742065786973740000000000000000000000000060448201526064016104e1565b8064ffffffffff16156107a05760405162461bcd60e51b815260206004820152601b60248201527f5377617020626f6e64656420746f20616e6f7468657220706f6f6c000000000060448201526064016104e1565b3360009081526002602052604090205464ffffffffff83811691161461082e5760405162461bcd60e51b815260206004820152603860248201527f5369676e65722073686f756c6420626520616e20617574686f72697a6564206160448201527f646472657373206f662074686520676976656e20706f6f6c000000000000000060648201526084016104e1565b60008381526005602052604080822080547fffffffffffffff000000000000000000000000000000000000000000000000001664ffffffffff861678ffffffffffffffffffffffffffffffffffffffffffffffffff8616171790555184917f60a99b51ae498c44acbbe11031aed2a06a32be66d2122e6e2a7a16c087865cc991a2505050565b600082116109045760405162461bcd60e51b815260206004820152601760248201527f416d6f756e74206d75737420626520706f73697469766500000000000000000060448201526064016104e1565b8064ffffffffff81166109595760405162461bcd60e51b815260206004820152601a60248201527f43616e6e6f7420757365203020617320706f6f6c20696e64657800000000000060448201526064016104e1565b64ffffffffff81166000908152600360205260409020546001600160a01b031633146109ed5760405162461bcd60e51b815260206004820152602160248201527f4e6565642074686520706f6f6c206f776e657220617320746865207369676e6560448201527f720000000000000000000000000000000000000000000000000000000000000060648201526084016104e1565b65ffffffffffff821660009081526004602052604081208054859290610a149084906133c0565b909155505060ff602883901c81166000818152602081905260409020549091610a4c916001600160a01b031690339087908514612067565b50505050565b60008681526005602052604090205478ffffffffffffffffffffffffffffffffffffffffffffffffff1660018111610acc5760405162461bcd60e51b815260206004820152601360248201527f5377617020646f6573206e6f742065786973740000000000000000000000000060448201526064016104e1565b610ad8610e10426133c0565b603088901c64ffffffffff161015610b2357600087815260056020526040902080547fffffffffffffff00000000000000000000000000000000000000000000000000169055610b5b565b600087815260056020526040902080547fffffffffffffff000000000000000000000000000000000000000000000000001660011790555b610b768784888888602887901c6001600160a01b031661225d565b86818315610bc757610b888960d01c90565b64ffffffffff8216602884901b65ff0000000000161760009081526004602052604081208054909190610bbc9084906133c0565b90915550610c159050565b60ff82166000908152602081815260408083205464ffffffffff85168452600390925290912054610c15916001600160a01b039081169116610c098c60d01c90565b8560ff1660ff146127aa565b505050505050505050565b60008181526005602052604090205478ffffffffffffffffffffffffffffffffffffffffffffffffff1660018111610c9a5760405162461bcd60e51b815260206004820152601360248201527f5377617020646f6573206e6f742065786973740000000000000000000000000060448201526064016104e1565b42603083901c64ffffffffff1610610cf45760405162461bcd60e51b815260206004820152601460248201527f53776170206973207374696c6c206c6f636b656400000000000000000000000060448201526064016104e1565b600082815260056020908152604080832080547fffffffffffffff0000000000000000000000000000000000000000000000000016905560ff85168352908290529020548290610d61906001600160a01b0390811690602885901c1660d084901c8460ff1660ff146127aa565b60405183907ff6b6b4f7a13f02512c1b3aa8dcc4a07d7775a6a4becbd439efcbd37c5408e67f90600090a2505050565b6000806000610da085856128ec565b60009081526007602090815260408083205464ffffffffff808216855260039093529220546001600160a01b03169760289290921c1695509350505050565b84603c610dec8260081c90565b61ffff1614610e3d5760405162461bcd60e51b815260206004820152601760248201527f53776170206e6f7420666f72207468697320636861696e00000000000000000060448201526064016104e1565b60008681526005602052604090205478ffffffffffffffffffffffffffffffffffffffffffffffffff1615610eb45760405162461bcd60e51b815260206004820152601360248201527f5377617020616c7265616479206578697374730000000000000000000000000060448201526064016104e1565b6000610ec08760d01c90565b905064174876e800811115610f3d5760405162461bcd60e51b815260206004820152603760248201527f466f7220736563757269747920726561736f6e2c20616d6f756e742063616e6e60448201527f6f742062652067726561746572207468616e203130306b00000000000000000060648201526084016104e1565b6000610f544264ffffffffff60308b901c16613413565b9050610e108111610fa75760405162461bcd60e51b815260206004820152601360248201527f45787069726520747320746f6f206561726c790000000000000000000000000060448201526064016104e1565b611c208110610ff85760405162461bcd60e51b815260206004820152601260248201527f45787069726520747320746f6f206c617465000000000000000000000000000060448201526064016104e1565b8364ffffffffff811615611094573360009081526002602052604090205464ffffffffff8281169116146110945760405162461bcd60e51b815260206004820152603860248201527f5369676e65722073686f756c6420626520616e20617574686f72697a6564206160448201527f646472657373206f662074686520676976656e20706f6f6c000000000000000060648201526084016104e1565b6001600160a01b03602886901c166110af8a8a8a8a8561294d565b60008a815260056020526040812080547fffffffffffffff000000000000000000000000000000000000000000000000001678ffffffffffffffffffffffffffffffffffffffffffffffffff89161790558a60ff808216600081815260208190526040902054929350611130926001600160a01b0316918591899114612067565b6040518b907f5ce4019f772fda6cb703b26bce3ec3006eb36b73f1d3a0eb441213317d9f5e9d90600090a25050505050505050505050565b600082116111b85760405162461bcd60e51b815260206004820152601760248201527f416d6f756e74206d75737420626520706f73697469766500000000000000000060448201526064016104e1565b338164ffffffffff811661120e5760405162461bcd60e51b815260206004820152601a60248201527f43616e6e6f7420757365203020617320706f6f6c20696e64657800000000000060448201526064016104e1565b64ffffffffff81166000908152600360205260409020546001600160a01b03161561127b5760405162461bcd60e51b815260206004820152601d60248201527f506f6f6c20696e64657820616c7265616479207265676973746572656400000060448201526064016104e1565b6001600160a01b03821660009081526002602052604090205464ffffffffff161561130e5760405162461bcd60e51b815260206004820152602160248201527f5369676e6572206164647265737320616c72656164792072656769737465726560448201527f640000000000000000000000000000000000000000000000000000000000000060648201526084016104e1565b64ffffffffff8116600081815260036020908152604080832080547fffffffffffffffffffffffff0000000000000000000000000000000000000000166001600160a01b03881690811790915583526002825280832080547fffffffffffffffffffffffffffffffffffffffffffffffffffffff00000000001690941790935565ffffffffffff861682526004905290812080548692906113b09084906133c0565b909155505060ff602884901c811660008181526020819052604090205490916113e8916001600160a01b031690859088908514612067565b5050505050565b606060015b6101008160ff16101561149a5760ff81166000908152602081905260409020546001600160a01b0316611488578060ff1660011415611431575090565b61143c60018261342a565b60ff1667ffffffffffffffff811115611457576114576134cb565b604051908082528060200260200182016040528015611480578160200160208202803683370190505b50915061149a565b806114928161344d565b9150506113f4565b60015b8160ff168160ff1610156115105760ff81166000908152602081905260409020546001600160a01b0316836114d360018461342a565b60ff16815181106114e6576114e661349c565b6001600160a01b0390921660209283029190910190910152806115088161344d565b91505061149d565b505090565b84603c6115228260201c90565b61ffff16146115735760405162461bcd60e51b815260206004820152601760248201527f53776170206e6f7420666f72207468697320636861696e00000000000000000060448201526064016104e1565b600061157f87846128ec565b60008181526007602052604090205490915069ffffffffffffffffffff16156115ea5760405162461bcd60e51b815260206004820152601360248201527f5377617020616c7265616479206578697374730000000000000000000000000060448201526064016104e1565b6115f7878787878761294d565b3360009081526002602052604090205464ffffffffff16806116815760405162461bcd60e51b815260206004820152602f60248201527f43616c6c6572206e6f7420726567697374657265642e2043616c6c206465706f60448201527f736974416e6452656769737465722e000000000000000000000000000000000060648201526084016104e1565b600061168f610960426133c0565b90506116a861012c64ffffffffff60308c901c16613413565b811061171c5760405162461bcd60e51b815260206004820152602560248201527f43616e6e6f74206c6f636b20626563617573652065787069726554732069732060448201527f736f6f6e2e00000000000000000000000000000000000000000000000000000060648201526084016104e1565b64ffffffffff82811660108b901b65ff000000000016179060588b901c1660d08b901c6117499190613413565b65ffffffffffff821660009081526004602052604081208054909190611770908490613413565b909155505060008481526007602052604080822080547fffffffffffffffffffffffffffffffffffffffffffff000000000000000000001664ffffffffff8716602887901b69ffffffffff00000000001617179055518b917fbfb879c34323c5601fafe832c3a8a1e31e12c288695838726ddeada86034edb491a250505050505050505050565b600082116118475760405162461bcd60e51b815260206004820152601760248201527f416d6f756e74206d75737420626520706f73697469766500000000000000000060448201526064016104e1565b8064ffffffffff811661189c5760405162461bcd60e51b815260206004820152601a60248201527f43616e6e6f7420757365203020617320706f6f6c20696e64657800000000000060448201526064016104e1565b64ffffffffff81166000908152600360205260409020546001600160a01b031633146119305760405162461bcd60e51b815260206004820152602160248201527f4e6565642074686520706f6f6c206f776e657220617320746865207369676e6560448201527f720000000000000000000000000000000000000000000000000000000000000060648201526084016104e1565b65ffffffffffff821660009081526004602052604081208054859290611957908490613413565b909155505060ff602883901c81166000818152602081905260409020549091610a4c916001600160a01b0316903390879085146127aa565b60065474010000000000000000000000000000000000000000900460ff16156119fa5760405162461bcd60e51b815260206004820152601a60248201527f416e6f746865722072656c656173652069732072756e6e696e6700000000000060448201526064016104e1565b794000000000000000000000000000000000000000000000000000861615801590611a2757611a27612d4e565b6000611a3388856128ec565b60008181526007602052604090205490915069ffffffffffffffffffff1680611a9e5760405162461bcd60e51b815260206004820152601360248201527f5377617020646f6573206e6f742065786973740000000000000000000000000060448201526064016104e1565b6001600160a01b038416611af45760405162461bcd60e51b815260206004820181905260248201527f526563697069656e742063616e6e6f74206265207a65726f206164647265737360448201526064016104e1565b4260308a901c64ffffffffff1611611b4e5760405162461bcd60e51b815260206004820152601e60248201527f43616e6e6f742072656c6561736520626563617573652065787069726564000060448201526064016104e1565b611b5c89858a8a8a8a61225d565b600082815260076020526040812080547fffffffffffffffffffffffffffffffffffffffffffff00000000000000000000169055611b9a8a60181c90565b9050600060588b901c64ffffffffff16611bb48c60d01c90565b611bbe9190613413565b905084611c36576000611bd08c612dd0565b9050611bdc8183613413565b91508060046000611c028f600064ffffffffff1660109190911b65ff0000000000161790565b65ffffffffffff1665ffffffffffff1681526020019081526020016000206000828254611c2f91906133c0565b9091555050505b611c438b83898985612de9565b6040518b907ffa628b578e095243f0544bfad9255f49d79d03a5bbf6c85875d05a215e247ad290600090a25050505050505050505050565b6001600160a01b0380831660009081526001602090815260408083205493851683526002909152812054909160ff169064ffffffffff16801580611cc0575060ff8216155b15611cd057600092505050611cf8565b64ffffffffff1660289190911b65ff0000000000161760009081526004602052604090205490505b92915050565b6000611d0a83836128ec565b60008181526007602052604090205490915069ffffffffffffffffffff1680611d755760405162461bcd60e51b815260206004820152601360248201527f5377617020646f6573206e6f742065786973740000000000000000000000000060448201526064016104e1565b42602882901c64ffffffffff1610611dcf5760405162461bcd60e51b815260206004820152601260248201527f53776170207374696c6c20696e206c6f636b000000000000000000000000000060448201526064016104e1565b64ffffffffff818116601086901b65ff0000000000161790605886901c1660d086901c611dfc9190613413565b65ffffffffffff821660009081526004602052604081208054909190611e239084906133c0565b90915550505060009182525060076020526040902080547fffffffffffffffffffffffffffffffffffffffffffff000000000000000000001690555050565b6001600160a01b03811660009081526002602052604090205464ffffffffff1615611ef55760405162461bcd60e51b815260206004820152602360248201527f4164647220697320617574686f72697a656420666f7220616e6f74686572207060448201527f6f6f6c000000000000000000000000000000000000000000000000000000000060648201526084016104e1565b3360008181526002602052604090205464ffffffffff1680611f7f5760405162461bcd60e51b815260206004820152602360248201527f546865207369676e657220646f6573206e6f742072656769737465722061207060448201527f6f6f6c000000000000000000000000000000000000000000000000000000000060648201526084016104e1565b64ffffffffff81166000908152600360205260409020546001600160a01b038381169116146120165760405162461bcd60e51b815260206004820152602160248201527f4e6565642074686520706f6f6c206f776e657220617320746865207369676e6560448201527f720000000000000000000000000000000000000000000000000000000000000060648201526084016104e1565b6001600160a01b0392909216600090815260026020526040902080547fffffffffffffffffffffffffffffffffffffffffffffffffffffff00000000001664ffffffffff9093169290921790915550565b6001600160a01b0384166120bd5760405162461bcd60e51b815260206004820152601360248201527f546f6b656e206e6f7420737570706f727465640000000000000000000000000060448201526064016104e1565b6000821161210d5760405162461bcd60e51b815260206004820181905260248201527f416d6f756e74206d7573742062652067726561746572207468616e207a65726f60448201526064016104e1565b604080516001600160a01b038581166024830152306044830152606480830186905283518084039091018152608490920183526020820180517bffffffffffffffffffffffffffffffffffffffffffffffffffffffff167f23b872dd00000000000000000000000000000000000000000000000000000000179052915160009283929088169161219d9190613338565b6000604051808303816000865af19150503d80600081146121da576040519150601f19603f3d011682016040523d82523d6000602084013e6121df565b606091505b509150915081801561220957508051158061220957508080602001905181019061220991906130c7565b6122555760405162461bcd60e51b815260206004820152601360248201527f7472616e7366657246726f6d206661696c65640000000000000000000000000060448201526064016104e1565b505050505050565b6001600160a01b0381166122b35760405162461bcd60e51b815260206004820152601e60248201527f5369676e65722063616e6e6f7420626520656d7074792061646472657373000060448201526064016104e1565b8160ff16601b14806122c857508160ff16601c145b6123145760405162461bcd60e51b815260206004820152601160248201527f496e76616c6964207369676e617475726500000000000000000000000000000060448201526064016104e1565b7f7fffffffffffffffffffffffffffffff5d576e7357a4501ddfe92f46681b20a08311156123845760405162461bcd60e51b815260206004820152601160248201527f496e76616c6964207369676e617475726500000000000000000000000000000060448201526064016104e1565b79080000000000000000000000000000000000000000000000000086161515600887901c61ffff1660c3141561255c576000816123e1577f1954524f4e205369676e6564204d6573736167653a0a33320a00000000000000612403565b7f1954524f4e205369676e6564204d6573736167653a0a35330a000000000000005b6040517fffffffffffffffffffffffffffffffffffffffffffffffffff000000000000009091166020820152603981018990527fffffffffffffffffffffffffffffffffffffffff000000000000000000000000606089901b166059820152606d01604080517fffffffffffffffffffffffffffffffffffffffffffffffffffffffffffffffe081840301815282825280516020918201206000845290830180835281905260ff8716918301919091526060820188905260808201879052915060019060a0016020604051602081039080840390855afa1580156124eb573d6000803e3d6000fd5b505050602060405103516001600160a01b0316836001600160a01b0316146125555760405162461bcd60e51b815260206004820152601160248201527f496e76616c6964207369676e617475726500000000000000000000000000000060448201526064016104e1565b5050612255565b6000811561264e576040517f19457468657265756d205369676e6564204d6573736167653a0a333200000000906125c7908a908a9060200191825260601b7fffffffffffffffffffffffffffffffffffffffff00000000000000000000000016602082015260340190565b604080517fffffffffffffffffffffffffffffffffffffffffffffffffffffffffffffffe08184030181529082905280516020918201207fffffffffffffffffffffffffffffffffffffffffffffffffffffffff0000000090931690820152603c810191909152605c016040516020818303038152906040528051906020012090506126e3565b6126588860201c90565b61ffff1660c314156126a9578660155260416020538760005260356000206020527ff6ea10de668a877958d46ed7d53eaf47124fda9bee9423390a28c203556a2e55600052604060002090506126e3565b5060148690526000878152603481206020527fd23291d9d999318ac3ed13f43ac8003d6fbd69a4b532aeec9ffad516010a208c8152604090205b60408051600081526020810180835283905260ff861691810191909152606081018790526080810186905260019060a0016020604051602081039080840390855afa158015612736573d6000803e3d6000fd5b505050602060405103516001600160a01b0316836001600160a01b0316146127a05760405162461bcd60e51b815260206004820152601160248201527f496e76616c6964207369676e617475726500000000000000000000000000000060448201526064016104e1565b5050505050505050565b604080516001600160a01b038581166024830152604480830186905283518084039091018152606490920183526020820180517bffffffffffffffffffffffffffffffffffffffffffffffffffffffff167fa9059cbb0000000000000000000000000000000000000000000000000000000017905291516000928392908816916128349190613338565b6000604051808303816000865af19150503d8060008114612871576040519150601f19603f3d011682016040523d82523d6000602084013e612876565b606091505b50915091508180156128a05750805115806128a05750808060200190518101906128a091906130c7565b6122555760405162461bcd60e51b815260206004820152600f60248201527f7472616e73666572206661696c6564000000000000000000000000000000000060448201526064016104e1565b6000828260405160200161292f92919091825260601b7fffffffffffffffffffffffffffffffffffffffff00000000000000000000000016602082015260340190565b60405160208183030381529060405280519060200120905092915050565b6001600160a01b0381166129a35760405162461bcd60e51b815260206004820152601e60248201527f5369676e65722063616e6e6f7420626520656d7074792061646472657373000060448201526064016104e1565b8160ff16601b14806129b857508160ff16601c145b612a045760405162461bcd60e51b815260206004820152601160248201527f496e76616c6964207369676e617475726500000000000000000000000000000060448201526064016104e1565b7f7fffffffffffffffffffffffffffffff5d576e7357a4501ddfe92f46681b20a0831115612a745760405162461bcd60e51b815260206004820152601160248201527f496e76616c6964207369676e617475726500000000000000000000000000000060448201526064016104e1565b79080000000000000000000000000000000000000000000000000085161515600886901c61ffff1660c31415612c2157600081612ad1577f1954524f4e205369676e6564204d6573736167653a0a33320a00000000000000612af3565b7f1954524f4e205369676e6564204d6573736167653a0a33330a000000000000005b6040517fffffffffffffffffffffffffffffffffffffffffffffffffff000000000000009091166020820152603981018890526059015b604080517fffffffffffffffffffffffffffffffffffffffffffffffffffffffffffffffe081840301815282825280516020918201206000845290830180835281905260ff8716918301919091526060820188905260808201879052915060019060a0016020604051602081039080840390855afa158015612bb0573d6000803e3d6000fd5b505050602060405103516001600160a01b0316836001600160a01b031614612c1a5760405162461bcd60e51b815260206004820152601160248201527f496e76616c6964207369676e617475726500000000000000000000000000000060448201526064016104e1565b50506113e8565b8015612c62576040517f19457468657265756d205369676e6564204d6573736167653a0a3332000000006020820152603c8101879052600090605c01612b2a565b6000868152602080822081527f7b521e60f64ab56ff03ddfb26df49be54b20672b7acfffc1adeb256b554ccb258083526040808420815194855292840180825283905260ff87169084015260608301889052608083018790529160019060a0016020604051602081039080840390855afa158015612ce4573d6000803e3d6000fd5b505050602060405103516001600160a01b0316846001600160a01b0316146127a05760405162461bcd60e51b815260206004820152601160248201527f496e76616c6964207369676e617475726500000000000000000000000000000060448201526064016104e1565b6006546001600160a01b03163314612dce5760405162461bcd60e51b815260206004820152602160248201527f43616c6c6572206973206e6f7420746865207072656d69756d206d616e61676560448201527f720000000000000000000000000000000000000000000000000000000000000060648201526084016104e1565b565b60006103e8612ddf8360d01c90565b611cf891906133d8565b7980000000000000000000000000000000000000000000000000008516612eb057600680547fffffffffffffffffffffff00ffffffffffffffffffffffffffffffffffffffff167401000000000000000000000000000000000000000017905560ff848116600081815260208190526040902054612e83926001600160a01b039091169185918791869114612e7e8b60801c90565b612ede565b600680547fffffffffffffffffffffff00ffffffffffffffffffffffffffffffffffffffff1690556113e8565b60ff8085166000818152602081905260409020546113e8926001600160a01b039091169185918591146127aa565b6040517f395093510000000000000000000000000000000000000000000000000000000081526001600160a01b03868116600483015260248201859052849190881690633950935190604401602060405180830381600087803b158015612f4457600080fd5b505af1158015612f58573d6000803e3d6000fd5b505050506040513d601f19601f82011682018060405250810190612f7c91906130c7565b506040517f3ea1ef2d0000000000000000000000000000000000000000000000000000000081526001600160a01b03888116600483015260248201839052868116604483015267ffffffffffffffff84166064830152871690633ea1ef2d90608401602060405180830381600087803b158015612ff857600080fd5b505af115801561300c573d6000803e3d6000fd5b505050506040513d601f19601f820116820180604052508101906127a091906130c7565b80356001600160a01b038116811461304757600080fd5b919050565b803564ffffffffff8116811461304757600080fd5b803560ff8116811461304757600080fd5b60006020828403121561308457600080fd5b61308d82613030565b9392505050565b600080604083850312156130a757600080fd5b6130b083613030565b91506130be60208401613030565b90509250929050565b6000602082840312156130d957600080fd5b815161308d816134fa565b6000602082840312156130f657600080fd5b5035919050565b6000806040838503121561311057600080fd5b823591506130be60208401613030565b600080600080600060a0868803121561313857600080fd5b85359450602086013593506040860135925061315660608701613061565b915061316460808701613030565b90509295509295909350565b60008060008060008060c0878903121561318957600080fd5b8635955060208701359450604087013593506131a760608801613061565b92506131b560808801613030565b91506131c360a08801613030565b90509295509295509295565b60008060008060008060c087890312156131e857600080fd5b86359550602087013594506040870135935061320660608801613061565b925061321460808801613030565b915060a0870135613224816134fa565b809150509295509295509295565b600080600080600060a0868803121561324a57600080fd5b85359450602086013593506040860135925061326860608701613061565b9150608086013578ffffffffffffffffffffffffffffffffffffffffffffffffff8116811461329657600080fd5b809150509295509295909350565b600080604083850312156132b757600080fd5b823591506130be6020840161304c565b600080604083850312156132da57600080fd5b82359150602083013565ffffffffffff811681146132f757600080fd5b809150509250929050565b60006020828403121561331457600080fd5b61308d8261304c565b60006020828403121561332f57600080fd5b61308d82613061565b6000825160005b81811015613359576020818601810151858301520161333f565b81811115613368576000828501525b509190910192915050565b6020808252825182820181905260009190848201906040850190845b818110156133b45783516001600160a01b03168352928401929184019160010161338f565b50909695505050505050565b600082198211156133d3576133d361346d565b500190565b60008261340e577f4e487b7100000000000000000000000000000000000000000000000000000000600052601260045260246000fd5b500490565b6000828210156134255761342561346d565b500390565b600060ff821660ff8416808210156134445761344461346d565b90039392505050565b600060ff821660ff8114156134645761346461346d565b60010192915050565b7f4e487b7100000000000000000000000000000000000000000000000000000000600052601160045260246000fd5b7f4e487b7100000000000000000000000000000000000000000000000000000000600052603260045260246000fd5b7f4e487b7100000000000000000000000000000000000000000000000000000000600052604160045260246000fd5b801515811461350857600080fd5b5056fea164736f6c6343000806000a",
  "linkReferences": {},
  "deployedLinkReferences": {}
}