{
  "_format": "hh-sol-artifact-1",
  "contractName": "Meson",
  "sourceName": "contracts/Meson.sol",
  "abi": [
    {
      "inputs": [
        {
          "internalType": "address[]",
          "name": "supportedTokens",
          "type": "address[]"
        }
      ],
      "stateMutability": "nonpayable",
      "type": "constructor"
    },
    {
      "anonymous": false,
      "inputs": [
        {
          "indexed": true,
          "internalType": "uint256",
          "name": "encodedSwap",
          "type": "uint256"
        }
      ],
      "name": "SwapBonded",
      "type": "event"
    },
    {
      "anonymous": false,
      "inputs": [
        {
          "indexed": true,
          "internalType": "uint256",
          "name": "encodedSwap",
          "type": "uint256"
        }
      ],
      "name": "SwapCancelled",
      "type": "event"
    },
    {
      "anonymous": false,
      "inputs": [
        {
          "indexed": true,
          "internalType": "uint256",
          "name": "encodedSwap",
          "type": "uint256"
        }
      ],
      "name": "SwapLocked",
      "type": "event"
    },
    {
      "anonymous": false,
      "inputs": [
        {
          "indexed": true,
          "internalType": "uint256",
          "name": "encodedSwap",
          "type": "uint256"
        }
      ],
      "name": "SwapPosted",
      "type": "event"
    },
    {
      "anonymous": false,
      "inputs": [
        {
          "indexed": true,
          "internalType": "uint256",
          "name": "encodedSwap",
          "type": "uint256"
        }
      ],
      "name": "SwapReleased",
      "type": "event"
    },
    {
      "inputs": [
        {
          "internalType": "uint40",
          "name": "",
          "type": "uint40"
        }
      ],
      "name": "addressOfIndex",
      "outputs": [
        {
          "internalType": "address",
          "name": "",
          "type": "address"
        }
      ],
      "stateMutability": "view",
      "type": "function"
    },
    {
      "inputs": [
        {
          "internalType": "address",
          "name": "token",
          "type": "address"
        },
        {
          "internalType": "address",
          "name": "addr",
          "type": "address"
        }
      ],
      "name": "balanceOf",
      "outputs": [
        {
          "internalType": "uint256",
          "name": "",
          "type": "uint256"
        }
      ],
      "stateMutability": "view",
      "type": "function"
    },
    {
      "inputs": [
        {
          "internalType": "uint256",
          "name": "encodedSwap",
          "type": "uint256"
        },
        {
          "internalType": "uint40",
          "name": "providerIndex",
          "type": "uint40"
        }
      ],
      "name": "bondSwap",
      "outputs": [],
      "stateMutability": "nonpayable",
      "type": "function"
    },
    {
      "inputs": [
        {
          "internalType": "uint256",
          "name": "encodedSwap",
          "type": "uint256"
        }
      ],
      "name": "cancelSwap",
      "outputs": [],
      "stateMutability": "nonpayable",
      "type": "function"
    },
    {
      "inputs": [
        {
          "internalType": "uint256",
          "name": "amount",
          "type": "uint256"
        },
        {
          "internalType": "uint48",
          "name": "balanceIndex",
          "type": "uint48"
        }
      ],
      "name": "deposit",
      "outputs": [],
      "stateMutability": "nonpayable",
      "type": "function"
    },
    {
      "inputs": [
        {
          "internalType": "uint256",
          "name": "amount",
          "type": "uint256"
        },
        {
          "internalType": "uint48",
          "name": "balanceIndex",
          "type": "uint48"
        }
      ],
      "name": "depositAndRegister",
      "outputs": [],
      "stateMutability": "nonpayable",
      "type": "function"
    },
    {
      "inputs": [
        {
          "internalType": "uint256",
          "name": "encodedSwap",
          "type": "uint256"
        },
        {
          "internalType": "bytes32",
          "name": "recipientHash",
          "type": "bytes32"
        },
        {
          "internalType": "bytes32",
          "name": "r",
          "type": "bytes32"
        },
        {
          "internalType": "bytes32",
          "name": "s",
          "type": "bytes32"
        },
        {
          "internalType": "uint8",
          "name": "v",
          "type": "uint8"
        },
        {
          "internalType": "bool",
          "name": "depositToPool",
          "type": "bool"
        }
      ],
      "name": "executeSwap",
      "outputs": [],
      "stateMutability": "nonpayable",
      "type": "function"
    },
    {
      "inputs": [
        {
          "internalType": "uint256",
          "name": "encodedSwap",
          "type": "uint256"
        }
      ],
      "name": "getLockedSwap",
      "outputs": [
        {
          "internalType": "address",
          "name": "initiator",
          "type": "address"
        },
        {
          "internalType": "address",
          "name": "provider",
          "type": "address"
        },
        {
          "internalType": "uint40",
          "name": "until",
          "type": "uint40"
        }
      ],
      "stateMutability": "view",
      "type": "function"
    },
    {
      "inputs": [
        {
          "internalType": "uint256",
          "name": "encodedSwap",
          "type": "uint256"
        }
      ],
      "name": "getPostedSwap",
      "outputs": [
        {
          "internalType": "address",
          "name": "initiator",
          "type": "address"
        },
        {
          "internalType": "address",
          "name": "provider",
          "type": "address"
        },
        {
          "internalType": "bool",
          "name": "executed",
          "type": "bool"
        }
      ],
      "stateMutability": "view",
      "type": "function"
    },
    {
      "inputs": [],
      "name": "getShortCoinType",
      "outputs": [
        {
          "internalType": "bytes2",
          "name": "",
          "type": "bytes2"
        }
      ],
      "stateMutability": "pure",
      "type": "function"
    },
    {
      "inputs": [
        {
          "internalType": "address",
          "name": "",
          "type": "address"
        }
      ],
      "name": "indexOfAddress",
      "outputs": [
        {
          "internalType": "uint40",
          "name": "",
          "type": "uint40"
        }
      ],
      "stateMutability": "view",
      "type": "function"
    },
    {
      "inputs": [
        {
          "internalType": "address",
          "name": "token",
          "type": "address"
        }
      ],
      "name": "indexOfToken",
      "outputs": [
        {
          "internalType": "uint8",
          "name": "",
          "type": "uint8"
        }
      ],
      "stateMutability": "view",
      "type": "function"
    },
    {
      "inputs": [
        {
          "internalType": "uint256",
          "name": "encodedSwap",
          "type": "uint256"
        },
        {
          "internalType": "bytes32",
          "name": "r",
          "type": "bytes32"
        },
        {
          "internalType": "bytes32",
          "name": "s",
          "type": "bytes32"
        },
        {
          "internalType": "uint8",
          "name": "v",
          "type": "uint8"
        },
        {
          "internalType": "address",
          "name": "initiator",
          "type": "address"
        }
      ],
      "name": "lock",
      "outputs": [],
      "stateMutability": "nonpayable",
      "type": "function"
    },
    {
      "inputs": [
        {
          "internalType": "uint8",
          "name": "tokenIndex",
          "type": "uint8"
        }
      ],
      "name": "mesonFeeCollected",
      "outputs": [
        {
          "internalType": "uint256",
          "name": "",
          "type": "uint256"
        }
      ],
      "stateMutability": "view",
      "type": "function"
    },
    {
      "inputs": [
        {
          "internalType": "uint256",
          "name": "encodedSwap",
          "type": "uint256"
        },
        {
          "internalType": "bytes32",
          "name": "r",
          "type": "bytes32"
        },
        {
          "internalType": "bytes32",
          "name": "s",
          "type": "bytes32"
        },
        {
          "internalType": "uint8",
          "name": "v",
          "type": "uint8"
        },
        {
          "internalType": "uint200",
          "name": "postingValue",
          "type": "uint200"
        }
      ],
      "name": "postSwap",
      "outputs": [],
      "stateMutability": "nonpayable",
      "type": "function"
    },
    {
      "inputs": [
        {
          "internalType": "uint256",
          "name": "encodedSwap",
          "type": "uint256"
        },
        {
          "internalType": "bytes32",
          "name": "r",
          "type": "bytes32"
        },
        {
          "internalType": "bytes32",
          "name": "s",
          "type": "bytes32"
        },
        {
          "internalType": "uint8",
          "name": "v",
          "type": "uint8"
        },
        {
          "internalType": "address",
          "name": "recipient",
          "type": "address"
        }
      ],
      "name": "release",
      "outputs": [],
      "stateMutability": "nonpayable",
      "type": "function"
    },
    {
      "inputs": [],
      "name": "supportedTokens",
      "outputs": [
        {
          "internalType": "address[]",
          "name": "tokens",
          "type": "address[]"
        }
      ],
      "stateMutability": "view",
      "type": "function"
    },
    {
      "inputs": [
        {
          "internalType": "uint8",
          "name": "tokenIndex",
          "type": "uint8"
        }
      ],
      "name": "tokenForIndex",
      "outputs": [
        {
          "internalType": "address",
          "name": "",
          "type": "address"
        }
      ],
      "stateMutability": "view",
      "type": "function"
    },
    {
      "inputs": [
        {
          "internalType": "uint256",
          "name": "encodedSwap",
          "type": "uint256"
        }
      ],
      "name": "unlock",
      "outputs": [],
      "stateMutability": "nonpayable",
      "type": "function"
    },
    {
      "inputs": [
        {
          "internalType": "uint256",
          "name": "amount",
          "type": "uint256"
        },
        {
          "internalType": "uint8",
          "name": "tokenIndex",
          "type": "uint8"
        }
      ],
      "name": "withdraw",
      "outputs": [],
      "stateMutability": "nonpayable",
      "type": "function"
    }
  ],
  "bytecode": "0x60806040523480156200001157600080fd5b506040516200260338038062002603833981016040819052620000349162000156565b60005b81518160ff16101562000092576200007d828260ff168151811062000060576200006062000290565b60200260200101518260016200007791906200022f565b6200009a565b80620000898162000257565b91505062000037565b5050620002bc565b60ff8116620000ef5760405162461bcd60e51b815260206004820152601b60248201527f43616e6e6f7420757365203020617320746f6b656e20696e6465780000000000604482015260640160405180910390fd5b6001600160a01b039091166000818152600160209081526040808320805460ff90961660ff19909616861790559382528190529190912080546001600160a01b0319169091179055565b80516001600160a01b03811681146200015157600080fd5b919050565b600060208083850312156200016a57600080fd5b82516001600160401b03808211156200018257600080fd5b818501915085601f8301126200019757600080fd5b815181811115620001ac57620001ac620002a6565b8060051b604051601f19603f83011681018181108582111715620001d457620001d4620002a6565b604052828152858101935084860182860187018a1015620001f457600080fd5b600095505b8386101562000222576200020d8162000139565b855260019590950194938601938601620001f9565b5098975050505050505050565b600060ff821660ff84168060ff038211156200024f576200024f6200027a565b019392505050565b600060ff821660ff8114156200027157620002716200027a565b60010192915050565b634e487b7160e01b600052601160045260246000fd5b634e487b7160e01b600052603260045260246000fd5b634e487b7160e01b600052604160045260246000fd5b61233780620002cc6000396000f3fe608060405234801561001057600080fd5b506004361061016c5760003560e01c80638f487dc9116100cd578063e16a567d11610081578063eba7fb7711610066578063eba7fb7714610464578063f7888aec14610491578063ff378719146104a457600080fd5b8063e16a567d14610376578063e76afb54146103af57600080fd5b8063b002249d116100b2578063b002249d146102f3578063b3df5b3614610308578063be18e8a41461036357600080fd5b80638f487dc9146102cd578063903d4296146102e057600080fd5b806337b90a4f116101245780636198e339116101095780636198e339146102945780637c850187146102a75780638302ce5a146102ba57600080fd5b806337b90a4f1461026e57806354d6a2b71461028157600080fd5b80631e2a6075116101555780631e2a6075146101c85780632335093c1461021057806335eff30f1461025b57600080fd5b80630b9b44af146101715780631aba3a5514610186575b600080fd5b61018461017f36600461200c565b6104dd565b005b6101ad610194366004611f25565b60026020526000908152604090205464ffffffffff1681565b60405164ffffffffff90911681526020015b60405180910390f35b6101db6101d6366004611f97565b610656565b6040805173ffffffffffffffffffffffffffffffffffffffff94851681529390921660208401521515908201526060016101bf565b61024961021e366004611f25565b73ffffffffffffffffffffffffffffffffffffffff1660009081526001602052604090205460ff1690565b60405160ff90911681526020016101bf565b6101846102693660046120ce565b6106e8565b61018461027c3660046120f1565b61083a565b61018461028f366004611f97565b6108fe565b6101846102a2366004611f97565b610a85565b6101846102b5366004611fb0565b610c1f565b6101846102c836600461205c565b610e70565b6101846102db3660046120f1565b6110f1565b6101846102ee36600461212c565b611387565b6102fb611491565b6040516101bf91906121c0565b61033e61031636600461214f565b60036020526000908152604090205473ffffffffffffffffffffffffffffffffffffffff1681565b60405173ffffffffffffffffffffffffffffffffffffffff90911681526020016101bf565b61018461037136600461200c565b6115de565b6103a161038436600461216a565b60281b65ff00000000001660009081526004602052604090205490565b6040519081526020016101bf565b61042a6103bd366004611f97565b60009081526006602090815260408083205464ffffffffff60a082901c8116855260039093529220547dffffffffffffffffffffffffffffffffffffffffffffffffffffffffffff83169373ffffffffffffffffffffffffffffffffffffffff9091169260c81c90911690565b6040805173ffffffffffffffffffffffffffffffffffffffff948516815293909216602084015264ffffffffff16908201526060016101bf565b6040517e3c00000000000000000000000000000000000000000000000000000000000081526020016101bf565b6103a161049f366004611f47565b611859565b61033e6104b236600461216a565b60ff1660009081526020819052604090205473ffffffffffffffffffffffffffffffffffffffff1690565b6000858152600660205260409020547dffffffffffffffffffffffffffffffffffffffffffffffffffffffffffff168061055e5760405162461bcd60e51b815260206004820152601360248201527f5377617020646f6573206e6f742065786973740000000000000000000000000060448201526064015b60405180910390fd5b6040517fffffffffffffffffffffffffffffffffffffffff000000000000000000000000606084901b1660208201526105b590879060340160405160208183030381529060405280519060200120878787866118e9565b600086815260066020908152604080832080547fffff00000000000000000000000000000000000000000000000000000000000016905560ff60188a901c1683529082905290205473ffffffffffffffffffffffffffffffffffffffff16610622818460a08a901c611a5d565b60405187907ffa628b578e095243f0544bfad9255f49d79d03a5bbf6c85875d05a215e247ad290600090a250505050505050565b60008181526005602052604081205473ffffffffffffffffffffffffffffffffffffffff602882901c16919078ffffffffffffffffffffffffffffffffffffffffffffffffff166001811490836106b057600092506106e0565b64ffffffffff811660009081526003602052604090205473ffffffffffffffffffffffffffffffffffffffff1692505b509193909250565b60008281526005602052604090205478ffffffffffffffffffffffffffffffffffffffffffffffffff168061075f5760405162461bcd60e51b815260206004820152601360248201527f5377617020646f6573206e6f74206578697374000000000000000000000000006044820152606401610555565b64ffffffffff8116156107b45760405162461bcd60e51b815260206004820152601f60248201527f5377617020626f6e64656420746f20616e6f746865722070726f7669646572006044820152606401610555565b60008381526005602052604080822080547fffffffffffffff000000000000000000000000000000000000000000000000001664ffffffffff861678ffffffffffffffffffffffffffffffffffffffffffffffffff8616171790555184917f60a99b51ae498c44acbbe11031aed2a06a32be66d2122e6e2a7a16c087865cc991a2505050565b6000821161088a5760405162461bcd60e51b815260206004820152601760248201527f416d6f756e74206d75737420626520706f7369746976650000000000000000006044820152606401610555565b65ffffffffffff81166000908152600460205260409020546108ac9083611bac565b65ffffffffffff8216600090815260046020908152604080832093909355602884901c60ff16825281905220546108fa9073ffffffffffffffffffffffffffffffffffffffff163384611c0a565b5050565b60008181526005602052604090205478ffffffffffffffffffffffffffffffffffffffffffffffffff16600181116109785760405162461bcd60e51b815260206004820152601360248201527f5377617020646f6573206e6f74206578697374000000000000000000000000006044820152606401610555565b42603083901c64ffffffffff16106109d25760405162461bcd60e51b815260206004820152601460248201527f53776170206973207374696c6c206c6f636b65640000000000000000000000006044820152606401610555565b600082815260056020908152604080832080547fffffffffffffff0000000000000000000000000000000000000000000000000016905560ff8516835290829052902054610a569073ffffffffffffffffffffffffffffffffffffffff90811690602884901c16610a5163ffffffff605887901c1660a087901c61221a565b611a5d565b60405182907ff6b6b4f7a13f02512c1b3aa8dcc4a07d7775a6a4becbd439efcbd37c5408e67f90600090a25050565b6000818152600660205260409020547dffffffffffffffffffffffffffffffffffffffffffffffffffffffffffff1680610b015760405162461bcd60e51b815260206004820152601360248201527f5377617020646f6573206e6f74206578697374000000000000000000000000006044820152606401610555565b807dffffffffffffffffffffffffffffffffffffffffffffffffffffffffffff1660c842901b7dffffffffffffffffffffffffffffffffffffffffffffffffffffffffffff1611610b945760405162461bcd60e51b815260206004820152601260248201527f53776170207374696c6c20696e206c6f636b00000000000000000000000000006044820152606401610555565b60a081811c64ffffffffff16601084901b65ff000000000016176000818152600460205260409020549091610bcc919085901c611bac565b65ffffffffffff909116600090815260046020908152604080832093909355938152600690935290912080547fffff00000000000000000000000000000000000000000000000000000000000016905550565b60008681526005602052604090205478ffffffffffffffffffffffffffffffffffffffffffffffffff1680610c965760405162461bcd60e51b815260206004820152601360248201527f5377617020646f6573206e6f74206578697374000000000000000000000000006044820152606401610555565b610ca2610e104261221a565b603088901c64ffffffffff161015610ced57600087815260056020526040902080547fffffffffffffff00000000000000000000000000000000000000000000000000169055610d25565b600087815260056020526040902080547fffffffffffffff000000000000000000000000000000000000000000000000001660011790555b610d52878787878760288778ffffffffffffffffffffffffffffffffffffffffffffffffff16901c6118e9565b602887901b65ffffffffffff8116600090815260046020526040902054605a89901c633fffffff1690610d859082611bac565b65ffffffffffff831660009081526004602052604081209190915581610db963ffffffff60588d901c1660a08d901c61221a565b610dc39190612232565b90508415610e195764ffffffffff841665ffffffffffff8416811760009081526004602052604090205490841790610dfb9083611bac565b65ffffffffffff909116600090815260046020526040902055610e64565b60ff8a166000908152602081815260408083205464ffffffffff88168452600390925290912054610e649173ffffffffffffffffffffffffffffffffffffffff908116911683611a5d565b50505050505050505050565b84600881901c61ffff16603c14610ec95760405162461bcd60e51b815260206004820152601760248201527f53776170206e6f7420666f72207468697320636861696e0000000000000000006044820152606401610555565b60008681526005602052604090205478ffffffffffffffffffffffffffffffffffffffffffffffffff1615610f405760405162461bcd60e51b815260206004820152601360248201527f5377617020616c726561647920657869737473000000000000000000000000006044820152606401610555565b6000610f574264ffffffffff60308a901c16612232565b9050610e108111610faa5760405162461bcd60e51b815260206004820152601360248201527f45787069726520747320746f6f206561726c79000000000000000000000000006044820152606401610555565b611c208110610ffb5760405162461bcd60e51b815260206004820152601260248201527f45787069726520747320746f6f206c61746500000000000000000000000000006044820152606401610555565b73ffffffffffffffffffffffffffffffffffffffff602884901c166110238888888885611d08565b600088815260056020908152604080832080547fffffffffffffff000000000000000000000000000000000000000000000000001678ffffffffffffffffffffffffffffffffffffffffffffffffff891617905560ff8b168352908290529020546110bc9073ffffffffffffffffffffffffffffffffffffffff16826110b760588c901c63ffffffff1660a08d901c61221a565b611c0a565b60405188907f5ce4019f772fda6cb703b26bce3ec3006eb36b73f1d3a0eb441213317d9f5e9d90600090a25050505050505050565b600082116111415760405162461bcd60e51b815260206004820152601760248201527f416d6f756e74206d75737420626520706f7369746976650000000000000000006044820152606401610555565b338164ffffffffff81166111975760405162461bcd60e51b815260206004820152601e60248201527f43616e6e6f742075736520302061732070726f766964657220696e64657800006044820152606401610555565b64ffffffffff811660009081526003602052604090205473ffffffffffffffffffffffffffffffffffffffff16156112115760405162461bcd60e51b815260206004820152601860248201527f496e64657820616c7265616479207265676973746572656400000000000000006044820152606401610555565b73ffffffffffffffffffffffffffffffffffffffff821660009081526002602052604090205464ffffffffff161561128b5760405162461bcd60e51b815260206004820152601a60248201527f4164647265737320616c726561647920726567697374657265640000000000006044820152606401610555565b64ffffffffff8116600081815260036020908152604080832080547fffffffffffffffffffffffff00000000000000000000000000000000000000001673ffffffffffffffffffffffffffffffffffffffff881690811790915583526002825280832080547fffffffffffffffffffffffffffffffffffffffffffffffffffffff00000000001690941790935565ffffffffffff861682526004905220546113339085611bac565b65ffffffffffff841660009081526004602090815260408083209390935560ff602887901c16825281905220546113819073ffffffffffffffffffffffffffffffffffffffff168386611c0a565b50505050565b3360008181526002602052604090205464ffffffffff16806114115760405162461bcd60e51b815260206004820152602e60248201527f43616c6c6572206e6f7420726567697374657265642e2043616c6c206465706f60448201527f736974416e6452656769737465720000000000000000000000000000000000006064820152608401610555565b65ff0000000000602884901b1664ffffffffff8216176000818152600460205260409020546114409086611e78565b65ffffffffffff821660009081526004602090815260408083209390935560ff87168252819052205461148a9073ffffffffffffffffffffffffffffffffffffffff168487611a5d565b5050505050565b606060015b6101008160ff1610156115495760ff811660009081526020819052604090205473ffffffffffffffffffffffffffffffffffffffff16611537578060ff16600114156114e0575090565b6114eb600182612249565b60ff1667ffffffffffffffff811115611506576115066122ea565b60405190808252806020026020018201604052801561152f578160200160208202803683370190505b509150611549565b806115418161226c565b915050611496565b60015b8160ff168160ff1610156115d95760ff811660009081526020819052604090205473ffffffffffffffffffffffffffffffffffffffff168361158f600184612249565b60ff16815181106115a2576115a26122bb565b73ffffffffffffffffffffffffffffffffffffffff90921660209283029190910190910152806115d18161226c565b91505061154c565b505090565b84602081901c61ffff16603c146116375760405162461bcd60e51b815260206004820152601760248201527f53776170206e6f7420666f72207468697320636861696e0000000000000000006044820152606401610555565b6000868152600660205260409020547dffffffffffffffffffffffffffffffffffffffffffffffffffffffffffff16156116b35760405162461bcd60e51b815260206004820152601360248201527f5377617020616c726561647920657869737473000000000000000000000000006044820152606401610555565b6116c08686868686611d08565b3360009081526002602052604090205464ffffffffff168061174a5760405162461bcd60e51b815260206004820152602f60248201527f43616c6c6572206e6f7420726567697374657265642e2043616c6c206465706f60448201527f736974416e6452656769737465722e00000000000000000000000000000000006064820152608401610555565b65ff0000000000601088901b1664ffffffffff82161760008181526004602052604090205461177d9060a08a901c611e78565b65ffffffffffff821660009081526004602052604081209190915573ffffffffffffffffffffffffffffffffffffffff85169060c86117be6104b04261221a565b60008c81526006602052604080822080547fffff000000000000000000000000000000000000000000000000000000000000167dffffffffffffffffffffffffffffffffffffffffffffffffffffffffffff94851690951b959095179590951790911691909117909155905189917fbfb879c34323c5601fafe832c3a8a1e31e12c288695838726ddeada86034edb491a25050505050505050565b73ffffffffffffffffffffffffffffffffffffffff80831660009081526001602090815260408083205493851683526002909152812054909160ff169064ffffffffff168015806118ab575060ff8216155b156118bb576000925050506118e3565b64ffffffffff1660289190911b65ff0000000000161760009081526004602052604090205490505b92915050565b73ffffffffffffffffffffffffffffffffffffffff811661194c5760405162461bcd60e51b815260206004820152601e60248201527f5369676e65722063616e6e6f7420626520656d707479206164647265737300006044820152606401610555565b60008681526020868152604080832082527f5ef297f2881340f11ed62c7c08e0e0c235c333ad8f340d7285f529f16716968a8352808320815193845291830180825282905260ff85169083015260608201869052608082018590529060019060a0016020604051602081039080840390855afa1580156119d0573d6000803e3d6000fd5b5050506020604051035173ffffffffffffffffffffffffffffffffffffffff168273ffffffffffffffffffffffffffffffffffffffff1614611a545760405162461bcd60e51b815260206004820152601160248201527f496e76616c6964207369676e61747572650000000000000000000000000000006044820152606401610555565b50505050505050565b6040805173ffffffffffffffffffffffffffffffffffffffff8481166024830152604480830185905283518084039091018152606490920183526020820180517bffffffffffffffffffffffffffffffffffffffffffffffffffffffff167fa9059cbb000000000000000000000000000000000000000000000000000000001790529151600092839290871691611af49190612185565b6000604051808303816000865af19150503d8060008114611b31576040519150601f19603f3d011682016040523d82523d6000602084013e611b36565b606091505b5091509150818015611b60575080511580611b60575080806020019051810190611b609190611f7a565b61148a5760405162461bcd60e51b815260206004820152600f60248201527f5472616e73666572206661696c656400000000000000000000000000000000006044820152606401610555565b600082611bb9838261221a565b91508110156118e35760405162461bcd60e51b815260206004820152600860248201527f6f766572666c6f770000000000000000000000000000000000000000000000006044820152606401610555565b60008111611c5a5760405162461bcd60e51b815260206004820181905260248201527f416d6f756e74206d7573742062652067726561746572207468616e207a65726f6044820152606401610555565b6040517f23b872dd00000000000000000000000000000000000000000000000000000000815273ffffffffffffffffffffffffffffffffffffffff8381166004830152306024830152604482018390528416906323b872dd90606401602060405180830381600087803b158015611cd057600080fd5b505af1158015611ce4573d6000803e3d6000fd5b505050506040513d601f19601f820116820180604052508101906113819190611f7a565b73ffffffffffffffffffffffffffffffffffffffff8116611d6b5760405162461bcd60e51b815260206004820152601e60248201527f5369676e65722063616e6e6f7420626520656d707479206164647265737300006044820152606401610555565b6000858152602080822081527f9862d877599564bcd97c37305a7b0fdbe621d9c2a125026f2ad601f754a75abc82526040808320815193845291830180825282905260ff85169083015260608201869052608082018590529060019060a0016020604051602081039080840390855afa158015611dec573d6000803e3d6000fd5b5050506020604051035173ffffffffffffffffffffffffffffffffffffffff168273ffffffffffffffffffffffffffffffffffffffff1614611e705760405162461bcd60e51b815260206004820152601160248201527f496e76616c6964207369676e61747572650000000000000000000000000000006044820152606401610555565b505050505050565b600082611e858382612232565b91508111156118e35760405162461bcd60e51b815260206004820152600960248201527f756e646572666c6f7700000000000000000000000000000000000000000000006044820152606401610555565b803573ffffffffffffffffffffffffffffffffffffffff81168114611efa57600080fd5b919050565b803564ffffffffff81168114611efa57600080fd5b803560ff81168114611efa57600080fd5b600060208284031215611f3757600080fd5b611f4082611ed6565b9392505050565b60008060408385031215611f5a57600080fd5b611f6383611ed6565b9150611f7160208401611ed6565b90509250929050565b600060208284031215611f8c57600080fd5b8151611f4081612319565b600060208284031215611fa957600080fd5b5035919050565b60008060008060008060c08789031215611fc957600080fd5b86359550602087013594506040870135935060608701359250611fee60808801611f14565b915060a0870135611ffe81612319565b809150509295509295509295565b600080600080600060a0868803121561202457600080fd5b85359450602086013593506040860135925061204260608701611f14565b915061205060808701611ed6565b90509295509295909350565b600080600080600060a0868803121561207457600080fd5b85359450602086013593506040860135925061209260608701611f14565b9150608086013578ffffffffffffffffffffffffffffffffffffffffffffffffff811681146120c057600080fd5b809150509295509295909350565b600080604083850312156120e157600080fd5b82359150611f7160208401611eff565b6000806040838503121561210457600080fd5b82359150602083013565ffffffffffff8116811461212157600080fd5b809150509250929050565b6000806040838503121561213f57600080fd5b82359150611f7160208401611f14565b60006020828403121561216157600080fd5b611f4082611eff565b60006020828403121561217c57600080fd5b611f4082611f14565b6000825160005b818110156121a6576020818601810151858301520161218c565b818111156121b5576000828501525b509190910192915050565b6020808252825182820181905260009190848201906040850190845b8181101561220e57835173ffffffffffffffffffffffffffffffffffffffff16835292840192918401916001016121dc565b50909695505050505050565b6000821982111561222d5761222d61228c565b500190565b6000828210156122445761224461228c565b500390565b600060ff821660ff8416808210156122635761226361228c565b90039392505050565b600060ff821660ff8114156122835761228361228c565b60010192915050565b7f4e487b7100000000000000000000000000000000000000000000000000000000600052601160045260246000fd5b7f4e487b7100000000000000000000000000000000000000000000000000000000600052603260045260246000fd5b7f4e487b7100000000000000000000000000000000000000000000000000000000600052604160045260246000fd5b801515811461232757600080fd5b5056fea164736f6c6343000806000a",
  "linkReferences": {},
  "deployedLinkReferences": {}
}