{
  "_format": "hh-sol-artifact-1",
  "contractName": "Meson",
  "sourceName": "contracts/Meson.sol",
  "abi": [
    {
      "inputs": [
        {
          "internalType": "address[]",
          "name": "supportedTokens",
          "type": "address[]"
        }
      ],
      "stateMutability": "nonpayable",
      "type": "constructor"
    },
    {
      "anonymous": false,
      "inputs": [
        {
          "indexed": false,
          "internalType": "uint256",
          "name": "encodedSwap",
          "type": "uint256"
        }
      ],
      "name": "SwapBonded",
      "type": "event"
    },
    {
      "anonymous": false,
      "inputs": [
        {
          "indexed": false,
          "internalType": "uint256",
          "name": "encodedSwap",
          "type": "uint256"
        }
      ],
      "name": "SwapCancelled",
      "type": "event"
    },
    {
      "anonymous": false,
      "inputs": [
        {
          "indexed": false,
          "internalType": "uint256",
          "name": "encodedSwap",
          "type": "uint256"
        }
      ],
      "name": "SwapLocked",
      "type": "event"
    },
    {
      "anonymous": false,
      "inputs": [
        {
          "indexed": false,
          "internalType": "uint256",
          "name": "encodedSwap",
          "type": "uint256"
        }
      ],
      "name": "SwapPosted",
      "type": "event"
    },
    {
      "anonymous": false,
      "inputs": [
        {
          "indexed": false,
          "internalType": "uint256",
          "name": "encodedSwap",
          "type": "uint256"
        }
      ],
      "name": "SwapReleased",
      "type": "event"
    },
    {
      "anonymous": false,
      "inputs": [
        {
          "indexed": false,
          "internalType": "uint256",
          "name": "encodedSwap",
          "type": "uint256"
        }
      ],
      "name": "SwapRequested",
      "type": "event"
    },
    {
      "inputs": [
        {
          "internalType": "uint40",
          "name": "",
          "type": "uint40"
        }
      ],
      "name": "addressOfIndex",
      "outputs": [
        {
          "internalType": "address",
          "name": "",
          "type": "address"
        }
      ],
      "stateMutability": "view",
      "type": "function"
    },
    {
      "inputs": [
        {
          "internalType": "address",
          "name": "token",
          "type": "address"
        },
        {
          "internalType": "address",
          "name": "addr",
          "type": "address"
        }
      ],
      "name": "balanceOf",
      "outputs": [
        {
          "internalType": "uint256",
          "name": "",
          "type": "uint256"
        }
      ],
      "stateMutability": "view",
      "type": "function"
    },
    {
      "inputs": [
        {
          "internalType": "uint256",
          "name": "encodedSwap",
          "type": "uint256"
        },
        {
          "internalType": "uint40",
          "name": "providerIndex",
          "type": "uint40"
        }
      ],
      "name": "bondSwap",
      "outputs": [],
      "stateMutability": "nonpayable",
      "type": "function"
    },
    {
      "inputs": [
        {
          "internalType": "uint256",
          "name": "encodedSwap",
          "type": "uint256"
        }
      ],
      "name": "cancelSwap",
      "outputs": [],
      "stateMutability": "nonpayable",
      "type": "function"
    },
    {
      "inputs": [
        {
          "internalType": "uint256",
          "name": "amount",
          "type": "uint256"
        },
        {
          "internalType": "uint48",
          "name": "balanceIndex",
          "type": "uint48"
        }
      ],
      "name": "deposit",
      "outputs": [],
      "stateMutability": "nonpayable",
      "type": "function"
    },
    {
      "inputs": [
        {
          "internalType": "uint256",
          "name": "amount",
          "type": "uint256"
        },
        {
          "internalType": "uint48",
          "name": "balanceIndex",
          "type": "uint48"
        }
      ],
      "name": "depositAndRegister",
      "outputs": [],
      "stateMutability": "nonpayable",
      "type": "function"
    },
    {
      "inputs": [
        {
          "internalType": "uint256",
          "name": "encodedSwap",
          "type": "uint256"
        },
        {
          "internalType": "bytes32",
          "name": "recipientHash",
          "type": "bytes32"
        },
        {
          "internalType": "bytes32",
          "name": "r",
          "type": "bytes32"
        },
        {
          "internalType": "bytes32",
          "name": "s",
          "type": "bytes32"
        },
        {
          "internalType": "uint8",
          "name": "v",
          "type": "uint8"
        },
        {
          "internalType": "bool",
          "name": "depositToPool",
          "type": "bool"
        }
      ],
      "name": "executeSwap",
      "outputs": [],
      "stateMutability": "nonpayable",
      "type": "function"
    },
    {
      "inputs": [
        {
          "internalType": "uint256",
          "name": "encodedSwap",
          "type": "uint256"
        }
      ],
      "name": "getLockedSwap",
      "outputs": [
        {
          "internalType": "address",
          "name": "initiator",
          "type": "address"
        },
        {
          "internalType": "address",
          "name": "provider",
          "type": "address"
        },
        {
          "internalType": "uint40",
          "name": "until",
          "type": "uint40"
        }
      ],
      "stateMutability": "view",
      "type": "function"
    },
    {
      "inputs": [
        {
          "internalType": "uint256",
          "name": "encodedSwap",
          "type": "uint256"
        }
      ],
      "name": "getPostedSwap",
      "outputs": [
        {
          "internalType": "address",
          "name": "initiator",
          "type": "address"
        },
        {
          "internalType": "address",
          "name": "provider",
          "type": "address"
        }
      ],
      "stateMutability": "view",
      "type": "function"
    },
    {
      "inputs": [],
      "name": "getShortCoinType",
      "outputs": [
        {
          "internalType": "bytes2",
          "name": "",
          "type": "bytes2"
        }
      ],
      "stateMutability": "pure",
      "type": "function"
    },
    {
      "inputs": [
        {
          "internalType": "address",
          "name": "",
          "type": "address"
        }
      ],
      "name": "indexOfAddress",
      "outputs": [
        {
          "internalType": "uint40",
          "name": "",
          "type": "uint40"
        }
      ],
      "stateMutability": "view",
      "type": "function"
    },
    {
      "inputs": [
        {
          "internalType": "address",
          "name": "token",
          "type": "address"
        }
      ],
      "name": "indexOfToken",
      "outputs": [
        {
          "internalType": "uint8",
          "name": "",
          "type": "uint8"
        }
      ],
      "stateMutability": "view",
      "type": "function"
    },
    {
      "inputs": [
        {
          "internalType": "uint256",
          "name": "encodedSwap",
          "type": "uint256"
        },
        {
          "internalType": "bytes32",
          "name": "r",
          "type": "bytes32"
        },
        {
          "internalType": "bytes32",
          "name": "s",
          "type": "bytes32"
        },
        {
          "internalType": "uint8",
          "name": "v",
          "type": "uint8"
        },
        {
          "internalType": "address",
          "name": "initiator",
          "type": "address"
        }
      ],
      "name": "lock",
      "outputs": [],
      "stateMutability": "nonpayable",
      "type": "function"
    },
    {
      "inputs": [
        {
          "internalType": "uint256",
          "name": "encodedSwap",
          "type": "uint256"
        },
        {
          "internalType": "bytes32",
          "name": "r",
          "type": "bytes32"
        },
        {
          "internalType": "bytes32",
          "name": "s",
          "type": "bytes32"
        },
        {
          "internalType": "uint208",
          "name": "packedData",
          "type": "uint208"
        }
      ],
      "name": "postSwap",
      "outputs": [],
      "stateMutability": "nonpayable",
      "type": "function"
    },
    {
      "inputs": [
        {
          "internalType": "uint256",
          "name": "encodedSwap",
          "type": "uint256"
        },
        {
          "internalType": "bytes32",
          "name": "r",
          "type": "bytes32"
        },
        {
          "internalType": "bytes32",
          "name": "s",
          "type": "bytes32"
        },
        {
          "internalType": "uint8",
          "name": "v",
          "type": "uint8"
        },
        {
          "internalType": "address",
          "name": "recipient",
          "type": "address"
        }
      ],
      "name": "release",
      "outputs": [],
      "stateMutability": "nonpayable",
      "type": "function"
    },
    {
      "inputs": [
        {
          "internalType": "uint256",
          "name": "encodedSwap",
          "type": "uint256"
        }
      ],
      "name": "requestSwap",
      "outputs": [],
      "stateMutability": "nonpayable",
      "type": "function"
    },
    {
      "inputs": [],
      "name": "supportedTokens",
      "outputs": [
        {
          "internalType": "address[]",
          "name": "tokens",
          "type": "address[]"
        }
      ],
      "stateMutability": "view",
      "type": "function"
    },
    {
      "inputs": [
        {
          "internalType": "uint8",
          "name": "tokenIndex",
          "type": "uint8"
        }
      ],
      "name": "tokenForIndex",
      "outputs": [
        {
          "internalType": "address",
          "name": "",
          "type": "address"
        }
      ],
      "stateMutability": "view",
      "type": "function"
    },
    {
      "inputs": [
        {
          "internalType": "uint256",
          "name": "encodedSwap",
          "type": "uint256"
        }
      ],
      "name": "unlock",
      "outputs": [],
      "stateMutability": "nonpayable",
      "type": "function"
    },
    {
      "inputs": [
        {
          "internalType": "uint256",
          "name": "amount",
          "type": "uint256"
        },
        {
          "internalType": "uint8",
          "name": "tokenIndex",
          "type": "uint8"
        }
      ],
      "name": "withdraw",
      "outputs": [],
      "stateMutability": "nonpayable",
      "type": "function"
    }
  ],
  "bytecode": "0x60806040523480156200001157600080fd5b50604051620027b3380380620027b3833981016040819052620000349162000156565b60005b81518160ff16101562000092576200007d828260ff168151811062000060576200006062000290565b60200260200101518260016200007791906200022f565b6200009a565b80620000898162000257565b91505062000037565b5050620002bc565b60ff8116620000ef5760405162461bcd60e51b815260206004820152601b60248201527f43616e6e6f7420757365203020617320746f6b656e20696e6465780000000000604482015260640160405180910390fd5b6001600160a01b039091166000818152600160209081526040808320805460ff90961660ff19909616861790559382528190529190912080546001600160a01b0319169091179055565b80516001600160a01b03811681146200015157600080fd5b919050565b600060208083850312156200016a57600080fd5b82516001600160401b03808211156200018257600080fd5b818501915085601f8301126200019757600080fd5b815181811115620001ac57620001ac620002a6565b8060051b604051601f19603f83011681018181108582111715620001d457620001d4620002a6565b604052828152858101935084860182860187018a1015620001f457600080fd5b600095505b8386101562000222576200020d8162000139565b855260019590950194938601938601620001f9565b5098975050505050505050565b600060ff821660ff84168060ff038211156200024f576200024f6200027a565b019392505050565b600060ff821660ff8114156200027157620002716200027a565b60010192915050565b634e487b7160e01b600052601160045260246000fd5b634e487b7160e01b600052603260045260246000fd5b634e487b7160e01b600052604160045260246000fd5b6124e780620002cc6000396000f3fe608060405234801561001057600080fd5b506004361061016c5760003560e01c80638f487dc9116100cd578063e76afb5411610081578063f7888aec11610066578063f7888aec14610450578063ff37871914610471578063ffa96ec4146104aa57600080fd5b8063e76afb541461036e578063eba7fb771461042357600080fd5b8063b002249d116100b2578063b002249d146102eb578063b3df5b3614610300578063be18e8a41461035b57600080fd5b80638f487dc9146102c5578063903d4296146102d857600080fd5b806335eff30f1161012457806354d6a2b71161010957806354d6a2b71461028c5780636198e3391461029f5780637c850187146102b257600080fd5b806335eff30f1461026657806337b90a4f1461027957600080fd5b80631e2a6075116101555780631e2a6075146101c85780632217d483146102085780632335093c1461021b57600080fd5b80630b9b44af146101715780631aba3a5514610186575b600080fd5b61018461017f36600461222e565b6104bd565b005b6101ad6101943660046120e7565b60026020526000908152604090205464ffffffffff1681565b60405164ffffffffff90911681526020015b60405180910390f35b6101db6101d6366004612159565b61063f565b6040805173ffffffffffffffffffffffffffffffffffffffff9384168152929091166020830152016101bf565b610184610216366004612159565b6106ca565b6102546102293660046120e7565b73ffffffffffffffffffffffffffffffffffffffff1660009081526001602052604090205460ff1690565b60405160ff90911681526020016101bf565b61018461027436600461227e565b61091e565b6101846102873660046122a1565b610a7d565b61018461029a366004612159565b610b41565b6101846102ad366004612159565b610cbd565b6101846102c0366004612172565b610e57565b6101846102d33660046122a1565b61103e565b6101846102e63660046122dc565b6112d4565b6102f36113de565b6040516101bf9190612370565b61033661030e3660046122ff565b60036020526000908152604090205473ffffffffffffffffffffffffffffffffffffffff1681565b60405173ffffffffffffffffffffffffffffffffffffffff90911681526020016101bf565b61018461036936600461222e565b61152b565b6103e961037c366004612159565b60009081526006602090815260408083205464ffffffffff60a082901c8116855260039093529220547dffffffffffffffffffffffffffffffffffffffffffffffffffffffffffff83169373ffffffffffffffffffffffffffffffffffffffff9091169260c81c90911690565b6040805173ffffffffffffffffffffffffffffffffffffffff948516815293909216602084015264ffffffffff16908201526060016101bf565b6040517e3c00000000000000000000000000000000000000000000000000000000000081526020016101bf565b61046361045e366004612109565b6117b4565b6040519081526020016101bf565b61033661047f36600461231a565b60ff1660009081526020819052604090205473ffffffffffffffffffffffffffffffffffffffff1690565b6101846104b83660046121ce565b611813565b6000858152600660205260409020547dffffffffffffffffffffffffffffffffffffffffffffffffffffffffffff168061053e5760405162461bcd60e51b815260206004820152601360248201527f5377617020646f6573206e6f742065786973740000000000000000000000000060448201526064015b60405180910390fd5b6040517fffffffffffffffffffffffffffffffffffffffff000000000000000000000000606084901b1660208201526105959087906034016040516020818303038152906040528051906020012087878786611a84565b600086815260066020908152604080832080547fffff00000000000000000000000000000000000000000000000000000000000016905560ff60188a901c1683529082905290205473ffffffffffffffffffffffffffffffffffffffff16610602818460a08a901c611bef565b6040518781527ffa628b578e095243f0544bfad9255f49d79d03a5bbf6c85875d05a215e247ad2906020015b60405180910390a150505050505050565b60008181526005602052604081205473ffffffffffffffffffffffffffffffffffffffff602882901c16919078ffffffffffffffffffffffffffffffffffffffffffffffffff168261069457600091506106c4565b64ffffffffff811660009081526003602052604090205473ffffffffffffffffffffffffffffffffffffffff1691505b50915091565b80600881901c61ffff16603c146107235760405162461bcd60e51b815260206004820152601760248201527f53776170206e6f7420666f72207468697320636861696e0000000000000000006044820152606401610535565b60008281526005602052604090205478ffffffffffffffffffffffffffffffffffffffffffffffffff161561079a5760405162461bcd60e51b815260206004820152601360248201527f5377617020616c726561647920657869737473000000000000000000000000006044820152606401610535565b60006107b14264ffffffffff603086901c166123e2565b9050610e1081116108045760405162461bcd60e51b815260206004820152601360248201527f45787069726520747320746f6f206561726c79000000000000000000000000006044820152606401610535565b611c2081106108555760405162461bcd60e51b815260206004820152601260248201527f45787069726520747320746f6f206c61746500000000000000000000000000006044820152606401610535565b600033600085815260056020908152604080832080547fffffffffffffff000000000000000000000000000000000000000000000000001678ffffffffffffffffffffffffffffffffffffffff0000000000602887901b1617905560ff88168352908290529020549091506108e59073ffffffffffffffffffffffffffffffffffffffff168260a087901c611d6e565b6040518481527fffb55ec353614a34485412bc8d469fe16d3c7f0a963be6dd266938f8ff7d6c3f9060200160405180910390a150505050565b60008281526005602052604090205478ffffffffffffffffffffffffffffffffffffffffffffffffff16806109955760405162461bcd60e51b815260206004820152601360248201527f5377617020646f6573206e6f74206578697374000000000000000000000000006044820152606401610535565b64ffffffffff8116156109ea5760405162461bcd60e51b815260206004820152601f60248201527f5377617020626f6e64656420746f20616e6f746865722070726f7669646572006044820152606401610535565b60008381526005602090815260409182902080547fffffffffffffff000000000000000000000000000000000000000000000000001664ffffffffff861678ffffffffffffffffffffffffffffffffffffffffffffffffff86161717905590518481527f60a99b51ae498c44acbbe11031aed2a06a32be66d2122e6e2a7a16c087865cc9910160405180910390a1505050565b60008211610acd5760405162461bcd60e51b815260206004820152601760248201527f416d6f756e74206d75737420626520706f7369746976650000000000000000006044820152606401610535565b65ffffffffffff8116600090815260046020526040902054610aef9083611e6c565b65ffffffffffff8216600090815260046020908152604080832093909355602884901c60ff1682528190522054610b3d9073ffffffffffffffffffffffffffffffffffffffff163384611d6e565b5050565b60008181526005602052604090205478ffffffffffffffffffffffffffffffffffffffffffffffffff1660018111610bbb5760405162461bcd60e51b815260206004820152601360248201527f5377617020646f6573206e6f74206578697374000000000000000000000000006044820152606401610535565b42603083901c64ffffffffff1610610c155760405162461bcd60e51b815260206004820152601460248201527f53776170206973207374696c6c206c6f636b65640000000000000000000000006044820152606401610535565b600082815260056020908152604080832080547fffffffffffffff0000000000000000000000000000000000000000000000000016905560ff8516835290829052902054610c869073ffffffffffffffffffffffffffffffffffffffff90811690602884901c1660a085901c611bef565b6040518281527ff6b6b4f7a13f02512c1b3aa8dcc4a07d7775a6a4becbd439efcbd37c5408e67f9060200160405180910390a15050565b6000818152600660205260409020547dffffffffffffffffffffffffffffffffffffffffffffffffffffffffffff1680610d395760405162461bcd60e51b815260206004820152601360248201527f5377617020646f6573206e6f74206578697374000000000000000000000000006044820152606401610535565b807dffffffffffffffffffffffffffffffffffffffffffffffffffffffffffff1660c842901b7dffffffffffffffffffffffffffffffffffffffffffffffffffffffffffff1611610dcc5760405162461bcd60e51b815260206004820152601260248201527f53776170207374696c6c20696e206c6f636b00000000000000000000000000006044820152606401610535565b60a081811c64ffffffffff16601084901b65ff000000000016176000818152600460205260409020549091610e04919085901c611e6c565b65ffffffffffff909116600090815260046020908152604080832093909355938152600690935290912080547fffff00000000000000000000000000000000000000000000000000000000000016905550565b60008681526005602052604090205478ffffffffffffffffffffffffffffffffffffffffffffffffff1680610ece5760405162461bcd60e51b815260206004820152601360248201527f5377617020646f6573206e6f74206578697374000000000000000000000000006044820152606401610535565b610eda610e10426123ca565b603088901c64ffffffffff161015610f2557600087815260056020526040902080547fffffffffffffff00000000000000000000000000000000000000000000000000169055610f5d565b600087815260056020526040902080547fffffffffffffff000000000000000000000000000000000000000000000000001660011790555b610f8a878787878760288778ffffffffffffffffffffffffffffffffffffffffffffffffff16901c611a84565b8115610fe65764ffffffffff8116602888901b65ffffffffffff81168217600090815260046020526040902054911790610fc89060a08a901c611e6c565b65ffffffffffff909116600090815260046020526040902055611035565b60ff87166000908152602081815260408083205464ffffffffff851684526003909252909120546110359173ffffffffffffffffffffffffffffffffffffffff908116911660a08a901c611bef565b50505050505050565b6000821161108e5760405162461bcd60e51b815260206004820152601760248201527f416d6f756e74206d75737420626520706f7369746976650000000000000000006044820152606401610535565b338164ffffffffff81166110e45760405162461bcd60e51b815260206004820152601e60248201527f43616e6e6f742075736520302061732070726f766964657220696e64657800006044820152606401610535565b64ffffffffff811660009081526003602052604090205473ffffffffffffffffffffffffffffffffffffffff161561115e5760405162461bcd60e51b815260206004820152601860248201527f496e64657820616c7265616479207265676973746572656400000000000000006044820152606401610535565b73ffffffffffffffffffffffffffffffffffffffff821660009081526002602052604090205464ffffffffff16156111d85760405162461bcd60e51b815260206004820152601a60248201527f4164647265737320616c726561647920726567697374657265640000000000006044820152606401610535565b64ffffffffff8116600081815260036020908152604080832080547fffffffffffffffffffffffff00000000000000000000000000000000000000001673ffffffffffffffffffffffffffffffffffffffff881690811790915583526002825280832080547fffffffffffffffffffffffffffffffffffffffffffffffffffffff00000000001690941790935565ffffffffffff861682526004905220546112809085611e6c565b65ffffffffffff841660009081526004602090815260408083209390935560ff602887901c16825281905220546112ce9073ffffffffffffffffffffffffffffffffffffffff168386611d6e565b50505050565b3360008181526002602052604090205464ffffffffff168061135e5760405162461bcd60e51b815260206004820152602e60248201527f43616c6c6572206e6f7420726567697374657265642e2043616c6c206465706f60448201527f736974416e6452656769737465720000000000000000000000000000000000006064820152608401610535565b65ff0000000000602884901b1664ffffffffff82161760008181526004602052604090205461138d9086611eca565b65ffffffffffff821660009081526004602090815260408083209390935560ff8716825281905220546113d79073ffffffffffffffffffffffffffffffffffffffff168487611bef565b5050505050565b606060015b6101008160ff1610156114965760ff811660009081526020819052604090205473ffffffffffffffffffffffffffffffffffffffff16611484578060ff166001141561142d575090565b6114386001826123f9565b60ff1667ffffffffffffffff8111156114535761145361249a565b60405190808252806020026020018201604052801561147c578160200160208202803683370190505b509150611496565b8061148e8161241c565b9150506113e3565b60015b8160ff168160ff1610156115265760ff811660009081526020819052604090205473ffffffffffffffffffffffffffffffffffffffff16836114dc6001846123f9565b60ff16815181106114ef576114ef61246b565b73ffffffffffffffffffffffffffffffffffffffff909216602092830291909101909101528061151e8161241c565b915050611499565b505090565b84602081901c61ffff16603c146115845760405162461bcd60e51b815260206004820152601760248201527f53776170206e6f7420666f72207468697320636861696e0000000000000000006044820152606401610535565b6000868152600660205260409020547dffffffffffffffffffffffffffffffffffffffffffffffffffffffffffff16156116005760405162461bcd60e51b815260206004820152601360248201527f5377617020616c726561647920657869737473000000000000000000000000006044820152606401610535565b61160d8686868686611f28565b3360009081526002602052604090205464ffffffffff16806116975760405162461bcd60e51b815260206004820152602f60248201527f43616c6c6572206e6f7420726567697374657265642e2043616c6c206465706f60448201527f736974416e6452656769737465722e00000000000000000000000000000000006064820152608401610535565b65ff0000000000601088901b1664ffffffffff8216176000818152600460205260409020546116ca9060a08a901c611eca565b65ffffffffffff821660009081526004602052604081209190915573ffffffffffffffffffffffffffffffffffffffff85169060c861170b6104b0426123ca565b60008c8152600660205260409081902080547dffffffffffffffffffffffffffffffffffffffffffffffffffffffffffff93841690941b9490941794909417167fffff000000000000000000000000000000000000000000000000000000000000909116179055517fbfb879c34323c5601fafe832c3a8a1e31e12c288695838726ddeada86034edb4906117a2908a815260200190565b60405180910390a15050505050505050565b73ffffffffffffffffffffffffffffffffffffffff8281166000908152600160209081526040808320549385168352600282528083205464ffffffffff1660289490941b65ff0000000000169390931782526004905220545b92915050565b83600881901c61ffff16603c1461186c5760405162461bcd60e51b815260206004820152601760248201527f53776170206e6f7420666f72207468697320636861696e0000000000000000006044820152606401610535565b60008581526005602052604090205478ffffffffffffffffffffffffffffffffffffffffffffffffff16156118e35760405162461bcd60e51b815260206004820152601360248201527f5377617020616c726561647920657869737473000000000000000000000000006044820152606401610535565b60006118fa4264ffffffffff603089901c166123e2565b9050610e10811161194d5760405162461bcd60e51b815260206004820152601360248201527f45787069726520747320746f6f206561726c79000000000000000000000000006044820152606401610535565b611c20811061199e5760405162461bcd60e51b815260206004820152601260248201527f45787069726520747320746f6f206c61746500000000000000000000000000006044820152606401610535565b74ffffffffffffffffffffffffffffffffffffffffff602884901c166119ce87878760ff60c889901c1685611f28565b600087815260056020908152604080832080547fffffffffffffff000000000000000000000000000000000000000000000000001678ffffffffffffffffffffffffffffffffffffffffffffffffff891617905560ff8a16835290829052902054611a549073ffffffffffffffffffffffffffffffffffffffff168260a08a901c611d6e565b6040518781527f5ce4019f772fda6cb703b26bce3ec3006eb36b73f1d3a0eb441213317d9f5e9d9060200161062e565b73ffffffffffffffffffffffffffffffffffffffff8116611ae75760405162461bcd60e51b815260206004820152601e60248201527f5369676e65722063616e6e6f7420626520656d707479206164647265737300006044820152606401610535565b60008681526020868152604080832082527f5ef297f2881340f11ed62c7c08e0e0c235c333ad8f340d7285f529f16716968a8352808320815193845291830180825282905260ff85169083015260608201869052608082018590529060019060a0016020604051602081039080840390855afa158015611b6b573d6000803e3d6000fd5b5050506020604051035173ffffffffffffffffffffffffffffffffffffffff168273ffffffffffffffffffffffffffffffffffffffff16146110355760405162461bcd60e51b815260206004820152601160248201527f496e76616c6964207369676e61747572650000000000000000000000000000006044820152606401610535565b604080518082018252601981527f7472616e7366657228616464726573732c75696e743235362900000000000000602091820152815173ffffffffffffffffffffffffffffffffffffffff85811660248301526044808301869052845180840390910181526064909201845291810180517bffffffffffffffffffffffffffffffffffffffffffffffffffffffff167fa9059cbb0000000000000000000000000000000000000000000000000000000017905291516000928392871691611cb69190612335565b6000604051808303816000865af19150503d8060008114611cf3576040519150601f19603f3d011682016040523d82523d6000602084013e611cf8565b606091505b5091509150818015611d22575080511580611d22575080806020019051810190611d22919061213c565b6113d75760405162461bcd60e51b815260206004820152600f60248201527f5472616e73666572206661696c656400000000000000000000000000000000006044820152606401610535565b60008111611dbe5760405162461bcd60e51b815260206004820181905260248201527f416d6f756e74206d7573742062652067726561746572207468616e207a65726f6044820152606401610535565b6040517f23b872dd00000000000000000000000000000000000000000000000000000000815273ffffffffffffffffffffffffffffffffffffffff8381166004830152306024830152604482018390528416906323b872dd90606401602060405180830381600087803b158015611e3457600080fd5b505af1158015611e48573d6000803e3d6000fd5b505050506040513d601f19601f820116820180604052508101906112ce919061213c565b600082611e7983826123ca565b915081101561180d5760405162461bcd60e51b815260206004820152600860248201527f6f766572666c6f770000000000000000000000000000000000000000000000006044820152606401610535565b600082611ed783826123e2565b915081111561180d5760405162461bcd60e51b815260206004820152600960248201527f756e646572666c6f7700000000000000000000000000000000000000000000006044820152606401610535565b73ffffffffffffffffffffffffffffffffffffffff8116611f8b5760405162461bcd60e51b815260206004820152601e60248201527f5369676e65722063616e6e6f7420626520656d707479206164647265737300006044820152606401610535565b6000858152602080822081527f9862d877599564bcd97c37305a7b0fdbe621d9c2a125026f2ad601f754a75abc82526040808320815193845291830180825282905260ff85169083015260608201869052608082018590529060019060a0016020604051602081039080840390855afa15801561200c573d6000803e3d6000fd5b5050506020604051035173ffffffffffffffffffffffffffffffffffffffff168273ffffffffffffffffffffffffffffffffffffffff16146120905760405162461bcd60e51b815260206004820152601160248201527f496e76616c6964207369676e61747572650000000000000000000000000000006044820152606401610535565b505050505050565b803573ffffffffffffffffffffffffffffffffffffffff811681146120bc57600080fd5b919050565b803564ffffffffff811681146120bc57600080fd5b803560ff811681146120bc57600080fd5b6000602082840312156120f957600080fd5b61210282612098565b9392505050565b6000806040838503121561211c57600080fd5b61212583612098565b915061213360208401612098565b90509250929050565b60006020828403121561214e57600080fd5b8151612102816124c9565b60006020828403121561216b57600080fd5b5035919050565b60008060008060008060c0878903121561218b57600080fd5b863595506020870135945060408701359350606087013592506121b0608088016120d6565b915060a08701356121c0816124c9565b809150509295509295509295565b600080600080608085870312156121e457600080fd5b843593506020850135925060408501359150606085013579ffffffffffffffffffffffffffffffffffffffffffffffffffff8116811461222357600080fd5b939692955090935050565b600080600080600060a0868803121561224657600080fd5b853594506020860135935060408601359250612264606087016120d6565b915061227260808701612098565b90509295509295909350565b6000806040838503121561229157600080fd5b82359150612133602084016120c1565b600080604083850312156122b457600080fd5b82359150602083013565ffffffffffff811681146122d157600080fd5b809150509250929050565b600080604083850312156122ef57600080fd5b82359150612133602084016120d6565b60006020828403121561231157600080fd5b612102826120c1565b60006020828403121561232c57600080fd5b612102826120d6565b6000825160005b81811015612356576020818601810151858301520161233c565b81811115612365576000828501525b509190910192915050565b6020808252825182820181905260009190848201906040850190845b818110156123be57835173ffffffffffffffffffffffffffffffffffffffff168352928401929184019160010161238c565b50909695505050505050565b600082198211156123dd576123dd61243c565b500190565b6000828210156123f4576123f461243c565b500390565b600060ff821660ff8416808210156124135761241361243c565b90039392505050565b600060ff821660ff8114156124335761243361243c565b60010192915050565b7f4e487b7100000000000000000000000000000000000000000000000000000000600052601160045260246000fd5b7f4e487b7100000000000000000000000000000000000000000000000000000000600052603260045260246000fd5b7f4e487b7100000000000000000000000000000000000000000000000000000000600052604160045260246000fd5b80151581146124d757600080fd5b5056fea164736f6c6343000806000a",
  "linkReferences": {},
  "deployedLinkReferences": {}
}