{
  "_format": "hh-sol-artifact-1",
  "contractName": "Meson",
  "sourceName": "contracts/Meson.sol",
  "abi": [
    {
      "inputs": [
        {
          "internalType": "address[]",
          "name": "_supportedTokens",
          "type": "address[]"
        }
      ],
      "stateMutability": "nonpayable",
      "type": "constructor"
    },
    {
      "anonymous": false,
      "inputs": [
        {
          "indexed": false,
          "internalType": "bytes32",
          "name": "swapId",
          "type": "bytes32"
        }
      ],
      "name": "SwapCancelled",
      "type": "event"
    },
    {
      "anonymous": false,
      "inputs": [
        {
          "indexed": false,
          "internalType": "bytes32",
          "name": "swapId",
          "type": "bytes32"
        }
      ],
      "name": "SwapExecuted",
      "type": "event"
    },
    {
      "anonymous": false,
      "inputs": [
        {
          "indexed": false,
          "internalType": "bytes32",
          "name": "swapId",
          "type": "bytes32"
        },
        {
          "indexed": false,
          "internalType": "address",
          "name": "provider",
          "type": "address"
        }
      ],
      "name": "SwapLocked",
      "type": "event"
    },
    {
      "anonymous": false,
      "inputs": [
        {
          "indexed": false,
          "internalType": "bytes32",
          "name": "swapId",
          "type": "bytes32"
        },
        {
          "indexed": false,
          "internalType": "uint256",
          "name": "ts",
          "type": "uint256"
        },
        {
          "indexed": false,
          "internalType": "uint256",
          "name": "amount",
          "type": "uint256"
        },
        {
          "indexed": false,
          "internalType": "address",
          "name": "inToken",
          "type": "address"
        }
      ],
      "name": "SwapPosted",
      "type": "event"
    },
    {
      "anonymous": false,
      "inputs": [
        {
          "indexed": false,
          "internalType": "bytes32",
          "name": "swapId",
          "type": "bytes32"
        }
      ],
      "name": "SwapReleased",
      "type": "event"
    },
    {
      "inputs": [
        {
          "internalType": "address",
          "name": "",
          "type": "address"
        },
        {
          "internalType": "address",
          "name": "",
          "type": "address"
        }
      ],
      "name": "balanceOf",
      "outputs": [
        {
          "internalType": "uint256",
          "name": "",
          "type": "uint256"
        }
      ],
      "stateMutability": "view",
      "type": "function"
    },
    {
      "inputs": [
        {
          "internalType": "bytes32",
          "name": "swapId",
          "type": "bytes32"
        }
      ],
      "name": "cancelSwap",
      "outputs": [],
      "stateMutability": "nonpayable",
      "type": "function"
    },
    {
      "inputs": [
        {
          "internalType": "address",
          "name": "provider",
          "type": "address"
        },
        {
          "internalType": "bytes",
          "name": "signature",
          "type": "bytes"
        },
        {
          "internalType": "uint256",
          "name": "metaAmount",
          "type": "uint256"
        },
        {
          "internalType": "bytes",
          "name": "inToken",
          "type": "bytes"
        },
        {
          "internalType": "address",
          "name": "outToken",
          "type": "address"
        },
        {
          "internalType": "address",
          "name": "receiver",
          "type": "address"
        },
        {
          "internalType": "uint256",
          "name": "ts",
          "type": "uint256"
        }
      ],
      "name": "challenge",
      "outputs": [],
      "stateMutability": "nonpayable",
      "type": "function"
    },
    {
      "inputs": [
        {
          "internalType": "address",
          "name": "token",
          "type": "address"
        },
        {
          "internalType": "uint256",
          "name": "amount",
          "type": "uint256"
        }
      ],
      "name": "deposit",
      "outputs": [],
      "stateMutability": "nonpayable",
      "type": "function"
    },
    {
      "inputs": [
        {
          "internalType": "bytes32",
          "name": "swapId",
          "type": "bytes32"
        },
        {
          "internalType": "bytes32",
          "name": "r",
          "type": "bytes32"
        },
        {
          "internalType": "bytes32",
          "name": "s",
          "type": "bytes32"
        },
        {
          "internalType": "uint8",
          "name": "v",
          "type": "uint8"
        }
      ],
      "name": "executeSwap",
      "outputs": [],
      "stateMutability": "nonpayable",
      "type": "function"
    },
    {
      "inputs": [
        {
          "internalType": "bytes32",
          "name": "swapId",
          "type": "bytes32"
        },
        {
          "internalType": "address",
          "name": "token",
          "type": "address"
        },
        {
          "internalType": "uint256",
          "name": "amount",
          "type": "uint256"
        },
        {
          "internalType": "address",
          "name": "recipient",
          "type": "address"
        }
      ],
      "name": "lock",
      "outputs": [],
      "stateMutability": "nonpayable",
      "type": "function"
    },
    {
      "inputs": [
        {
          "internalType": "bytes32",
          "name": "",
          "type": "bytes32"
        }
      ],
      "name": "lockingSwaps",
      "outputs": [
        {
          "internalType": "address",
          "name": "initiator",
          "type": "address"
        },
        {
          "internalType": "address",
          "name": "provider",
          "type": "address"
        },
        {
          "internalType": "address",
          "name": "token",
          "type": "address"
        },
        {
          "internalType": "uint256",
          "name": "amount",
          "type": "uint256"
        },
        {
          "internalType": "address",
          "name": "recipient",
          "type": "address"
        },
        {
          "internalType": "uint256",
          "name": "until",
          "type": "uint256"
        }
      ],
      "stateMutability": "view",
      "type": "function"
    },
    {
      "inputs": [
        {
          "internalType": "bytes",
          "name": "encodedSwap",
          "type": "bytes"
        },
        {
          "internalType": "address",
          "name": "inToken",
          "type": "address"
        },
        {
          "internalType": "address",
          "name": "initiator",
          "type": "address"
        },
        {
          "internalType": "bytes32",
          "name": "r",
          "type": "bytes32"
        },
        {
          "internalType": "bytes32",
          "name": "s",
          "type": "bytes32"
        },
        {
          "internalType": "uint8",
          "name": "v",
          "type": "uint8"
        }
      ],
      "name": "postSwap",
      "outputs": [
        {
          "internalType": "bytes32",
          "name": "swapId",
          "type": "bytes32"
        }
      ],
      "stateMutability": "nonpayable",
      "type": "function"
    },
    {
      "inputs": [
        {
          "internalType": "bytes32",
          "name": "swapId",
          "type": "bytes32"
        },
        {
          "internalType": "uint256",
          "name": "metaAmount",
          "type": "uint256"
        },
        {
          "internalType": "bytes32",
          "name": "r",
          "type": "bytes32"
        },
        {
          "internalType": "bytes32",
          "name": "s",
          "type": "bytes32"
        },
        {
          "internalType": "uint8",
          "name": "v",
          "type": "uint8"
        }
      ],
      "name": "release",
      "outputs": [],
      "stateMutability": "nonpayable",
      "type": "function"
    },
    {
      "inputs": [
        {
          "internalType": "bytes32",
          "name": "",
          "type": "bytes32"
        }
      ],
      "name": "requests",
      "outputs": [
        {
          "internalType": "address",
          "name": "initiator",
          "type": "address"
        },
        {
          "internalType": "address",
          "name": "provider",
          "type": "address"
        },
        {
          "internalType": "uint256",
          "name": "expireTs",
          "type": "uint256"
        },
        {
          "internalType": "address",
          "name": "inToken",
          "type": "address"
        },
        {
          "internalType": "uint256",
          "name": "amount",
          "type": "uint256"
        }
      ],
      "stateMutability": "view",
      "type": "function"
    },
    {
      "inputs": [
        {
          "internalType": "address",
          "name": "",
          "type": "address"
        }
      ],
      "name": "supportedTokens",
      "outputs": [
        {
          "internalType": "bool",
          "name": "",
          "type": "bool"
        }
      ],
      "stateMutability": "view",
      "type": "function"
    },
    {
      "inputs": [
        {
          "internalType": "address",
          "name": "token",
          "type": "address"
        }
      ],
      "name": "totalDemandFor",
      "outputs": [
        {
          "internalType": "uint256",
          "name": "",
          "type": "uint256"
        }
      ],
      "stateMutability": "view",
      "type": "function"
    },
    {
      "inputs": [
        {
          "internalType": "address",
          "name": "token",
          "type": "address"
        }
      ],
      "name": "totalSupplyFor",
      "outputs": [
        {
          "internalType": "uint256",
          "name": "",
          "type": "uint256"
        }
      ],
      "stateMutability": "view",
      "type": "function"
    },
    {
      "inputs": [
        {
          "internalType": "bytes32",
          "name": "swapId",
          "type": "bytes32"
        }
      ],
      "name": "unlock",
      "outputs": [],
      "stateMutability": "nonpayable",
      "type": "function"
    },
    {
      "inputs": [
        {
          "internalType": "address",
          "name": "token",
          "type": "address"
        },
        {
          "internalType": "uint256",
          "name": "amount",
          "type": "uint256"
        }
      ],
      "name": "withdraw",
      "outputs": [],
      "stateMutability": "nonpayable",
      "type": "function"
    }
  ],
  "bytecode": "0x6101006040526052608081815290620022ce60a039805160209182012060408051808201825260088152674d65736f6e20466960c01b908401528051808201825260018152603160f81b908401528051928301919091527fe127d7b8d403871d7ed6b19024db4422e92aee79823ba78ad61e52ee2a5f9b98908201527fc89efdaa54c0f20c7adf612882df0950f5a951637e0307cdcb4c672f298b8bc66060820152600360808201523060a082015260c00160405160208183030381529060405280519060200120600055348015620000d757600080fd5b506040516200232038038062002320833981016040819052620000fa916200025b565b60005b81518110156200014957620001348282815181106200012057620001206200035e565b60200260200101516200015160201b60201c565b80620001408162000334565b915050620000fd565b50506200038a565b6001600160a01b0381166000818152600160208181526040808420805460ff19168417905580516080810182528481528083018581528183018681526060838101818152988852600380875294909720835181559151958201959095559351600285015594518051949594620001d093928501929190910190620001d7565b5050505050565b82805482825590600052602060002090810192821562000215579160200282015b8281111562000215578251825591602001919060010190620001f8565b506200022392915062000227565b5090565b5b8082111562000223576000815560010162000228565b80516001600160a01b03811681146200025657600080fd5b919050565b600060208083850312156200026f57600080fd5b82516001600160401b03808211156200028757600080fd5b818501915085601f8301126200029c57600080fd5b815181811115620002b157620002b162000374565b8060051b604051601f19603f83011681018181108582111715620002d957620002d962000374565b604052828152858101935084860182860187018a1015620002f957600080fd5b600095505b83861015620003275762000312816200023e565b855260019590950194938601938601620002fe565b5098975050505050505050565b60006000198214156200035757634e487b7160e01b600052601160045260246000fd5b5060010190565b634e487b7160e01b600052603260045260246000fd5b634e487b7160e01b600052604160045260246000fd5b611f34806200039a6000396000f3fe608060405234801561001057600080fd5b50600436106100f55760003560e01c8063a8f81b1a11610097578063ec9b5b3a11610066578063ec9b5b3a14610325578063f3fef3a314610338578063f7888aec1461034b578063f7d18c5a1461037657600080fd5b8063a8f81b1a146102bf578063bcc20ff6146102e8578063c6859601146102fb578063d541beb31461031257600080fd5b806361565d25116100d357806361565d251461013557806368c4ac26146101715780636bb39ae0146101a45780639d8669851461023c57600080fd5b80633ce758b5146100fa57806347e7ef241461010f5780634e1389ed14610122575b600080fd5b61010d610108366004611c55565b610389565b005b61010d61011d366004611baa565b6104c4565b61010d610130366004611c89565b61056e565b61015e610143366004611aac565b6001600160a01b031660009081526004602052604090205490565b6040519081526020015b60405180910390f35b61019461017f366004611aac565b60016020526000908152604090205460ff1681565b6040519015158152602001610168565b6101f96101b2366004611bf6565b6008602052600090815260409020805460018201546002830154600384015460048501546005909501546001600160a01b0394851695938516949283169391929091169086565b604080516001600160a01b0397881681529587166020870152938616938501939093526060840191909152909216608082015260a081019190915260c001610168565b61028861024a366004611bf6565b600660205260009081526040902080546001820154600283015460038401546004909401546001600160a01b03938416949284169391929091169085565b604080516001600160a01b03968716815294861660208601528401929092529092166060820152608081019190915260a001610168565b61015e6102cd366004611aac565b6001600160a01b031660009081526005602052604090205490565b61015e6102f6366004611d3e565b6107d7565b61010d610309366004611b01565b50505050505050565b61010d610320366004611bf6565b610b75565b61010d610333366004611bf6565b610c94565b61010d610346366004611baa565b610dda565b61015e610359366004611ace565b600760209081526000928352604080842090915290825290205481565b61010d610384366004611c0f565b610e2b565b60008481526006602052604090206004015484906103c25760405162461bcd60e51b81526004016103b990611e25565b60405180910390fd5b600085815260066020908152604091829020825160a08101845281546001600160a01b0390811680835260018401548216948301949094526002830154948201949094526003820154909316606084015260040154608083015261042a908790878787611078565b6080810151606082015160208084015160008a815260069092526040822080546001600160a01b031990811682556001820180548216905560028201849055600382018054909116905560040191909155610486828285611115565b6040518981527f6921a2110a802468e8955f2885822155442ad19c60f42db0444a6993c23d20629060200160405180910390a1505050505050505050565b6001600160a01b038216600090815260016020526040902054829060ff166104fe5760405162461bcd60e51b81526004016103b990611dfa565b6001600160a01b03831660009081526007602090815260408083203380855292529091205461052d9084611252565b6001600160a01b0380861660009081526007602090815260408083209386168352929052205561055d8484611273565b6105688482856112b6565b50505050565b600085815260086020908152604091829020825160c08101845281546001600160a01b03908116825260018301548116938201939093526002820154831693810193909352600381015460608401819052600482015490921660808401526005015460a083015261062d5760405162461bcd60e51b8152602060048201526024808201527f6e6f206c6f636b696e67207377617020666f756e6420666f7220746865207377604482015263185c125960e21b60648201526084016103b9565b8060600151851061069d5760405162461bcd60e51b815260206004820152603460248201527f72656c6561736520616d6f756e742063616e6e6f742062652067726561746572604482015273081d1a185b881b1bd8dada5b99c8185b5bdd5b9d60621b60648201526084016103b9565b6106ae868260000151868686611078565b60408101516020820151608083015160006106c9848a61133e565b90506106d5848a61134f565b6106df8482611442565b6001600160a01b03808516600090815260076020908152604080832093871683529290522054606086015161071e919061071990846114b5565b611252565b6001600160a01b0380861660009081526007602090815260408083209388168352928152828220939093558c81526008909252812080546001600160a01b03199081168255600182018054821690556002820180548216905560038201839055600482018054909116905560050155610798848383611115565b6040518a81527fe8aa10932e72fe72aa2f3879a4dd799b95f5fbe728be1be0609e5baa14ec40f49060200160405180910390a150505050505050505050565b6001600160a01b038516600090815260016020526040812054869060ff166108115760405162461bcd60e51b81526004016103b990611dfa565b600080600061081f8b6114d0565b6040516bffffffffffffffffffffffff1960608f901b1660208201529295509093509150829060340160405160208183030381529060405280519060200120146108a45760405162461bcd60e51b81526020600482015260166024820152750d2dca8ded6cadc40c8decae640dcdee840dac2e8c6d60531b60448201526064016103b9565b600081116109025760405162461bcd60e51b815260206004820152602560248201527f7377617020616d6f756e74206d7573742062652067726561746572207468616e604482015264207a65726f60d81b60648201526084016103b9565b4261090f81610e10611e4d565b84116109545760405162461bcd60e51b81526020600482015260146024820152736578706972657320747320746f6f206561726c7960601b60448201526064016103b9565b61096081611c20611e4d565b84106109a45760405162461bcd60e51b81526020600482015260136024820152726578706972657320747320746f6f206c61746560681b60448201526064016103b9565b6000338d5160208f0120975090506109cd87600090815260066020526040902060040154151590565b15610a0a5760405162461bcd60e51b815260206004820152600d60248201526c1cddd85c0818dbdb999b1a58dd609a1b60448201526064016103b9565b610a17878c8c8c8c611576565b6040518060a001604052808c6001600160a01b03168152602001826001600160a01b031681526020018681526020018d6001600160a01b03168152602001848152506006600089815260200190815260200160002060008201518160000160006101000a8154816001600160a01b0302191690836001600160a01b0316021790555060208201518160010160006101000a8154816001600160a01b0302191690836001600160a01b031602179055506040820151816002015560608201518160030160006101000a8154816001600160a01b0302191690836001600160a01b0316021790555060808201518160040155905050610b158c8c856112b6565b60408051888152602081018490529081018490526001600160a01b038d1660608201527ff60f3861c423568d0aae6a3a3bc9d4b41c40ab0cb0267599d9d35122e4f320e89060800160405180910390a15050505050509695505050505050565b6000818152600660205260409020600401548190610ba55760405162461bcd60e51b81526004016103b990611e25565b60008281526006602052604090206002015482904211610bfa5760405162461bcd60e51b815260206004820152601060248201526f1cddd85c081b9bdd08195e1c1a5c995960821b60448201526064016103b9565b600083815260066020526040812060038101805482546004840180546001600160a01b03198084168755600187018054821690556002909601879055948316909355939091556001600160a01b03908116921690610c59838383611115565b6040518681527f5a399591cfd74c375a1ffd61c20221db0db82381f65516889ed13c8cd1f99d5b9060200160405180910390a1505050505050565b60008181526008602052604090206005810154600282015460019092015442926001600160a01b03908116911682610cde5760405162461bcd60e51b81526004016103b990611e25565b828411610d235760405162461bcd60e51b8152602060048201526013602482015272151a19481cddd85c081a5cc81b1bd8dada5959606a1b60448201526064016103b9565b6001600160a01b038083166000908152600760209081526040808320938516835292815282822054888352600890915291902060030154610d649190611252565b6001600160a01b0392831660009081526007602090815260408083209490951682529283528381209190915594855260089052832080546001600160a01b031990811682556001820180548216905560028201805482169055600382018590556004820180549091169055600501929092555050565b6001600160a01b038216600090815260016020526040902054829060ff16610e145760405162461bcd60e51b81526004016103b990611dfa565b33610e1f8484611442565b61056881828686611583565b6001600160a01b038316600090815260016020526040902054839060ff16610e655760405162461bcd60e51b81526004016103b990611dfa565b3383610eb35760405162461bcd60e51b815260206004820181905260248201527f616d6f756e74206d7573742062652067726561746572207468616e207a65726f60448201526064016103b9565b6001600160a01b038086166000908152600760209081526040808320938516835292905220548410610f1e5760405162461bcd60e51b8152602060048201526014602482015273696e73756666696369656e742062616c616e636560601b60448201526064016103b9565b6001600160a01b03808616600090815260076020908152604080832093851683529290522054610f4f908590611e65565b6001600160a01b0380871660008181526007602090815260408083208786168085529083529281902095909555845160c08101865282815290810191909152928301526060820186905284166080820152429060a08101610fb2836104b0611e4d565b9052600088815260086020908152604091829020835181546001600160a01b03199081166001600160a01b0392831617835585840151600184018054831691841691909117905585850151600284018054831691841691909117905560608601516003840155608086015160048401805490921690831617905560a09094015160059091015581518a8152928516908301527faad18fe672f0d6b379db88b0e1176f10cc003e9a4d8ed142a90c0b6f8bedb8de910160405180910390a150505050505050565b604080518082018252601b81527f5377617052656c6561736528627974657333322073776170496429000000000060209182015290516000916110e8917ffb1f98601c589a04e2ceca199119c17bd547893fffb8d088acdae5aff4f9b19d91899101918252602082015260400190565b60405160208183030381529060405280519060200120905061110d8186868686611645565b505050505050565b604080518082018252601981527f7472616e7366657228616464726573732c75696e74323536290000000000000060209182015281516001600160a01b0385811660248301526044808301869052845180840390910181526064909201845291810180516001600160e01b031663a9059cbb60e01b179052915160009283928716916111a19190611dbf565b6000604051808303816000865af19150503d80600081146111de576040519150601f19603f3d011682016040523d82523d6000602084013e6111e3565b606091505b509150915081801561120d57508051158061120d57508080602001905181019061120d9190611bd4565b61124b5760405162461bcd60e51b815260206004820152600f60248201526e1d1c985b9cd9995c8819985a5b1959608a1b60448201526064016103b9565b5050505050565b60008261125f8382611e4d565b915081101561126d57600080fd5b92915050565b6001600160a01b0382166000908152600460205260409020546112969082611252565b6001600160a01b0390921660009081526004602052604090209190915550565b6040516323b872dd60e01b81526001600160a01b038381166004830152306024830152604482018390528416906323b872dd90606401602060405180830381600087803b15801561130657600080fd5b505af115801561131a573d6000803e3d6000fd5b505050506040513d601f19601f820116820180604052508101906105689190611bd4565b60006113498361178b565b50919050565b6040805142602082018190526bffffffffffffffffffffffff19606086901b16928201929092526054810183905260009060740160408051601f1981840301815282825280516020918201206060840183528084528382018781528484018781526001600160a01b038a1660008181526002808752878220868352875287822089518155945160018601559251939092019290925590815260039092529190209092506113fc9083611899565b6001600160a01b03851660009081526005602052604090205461141f9085611252565b6001600160a01b0390951660009081526005602052604090209490945550505050565b6001600160a01b0382166000908152600460205260409020548111156114965760405162461bcd60e51b815260206004820152600960248201526837bb32b9323930bbb760b91b60448201526064016103b9565b6001600160a01b03821660009081526004602052604090205461129690825b6000826114c28382611e65565b915081111561126d57600080fd5b6000806000806000806000878060200190518101906114ef9190611cd2565b50505093509350935093506040518060a0016040528060698152602001611ebf606991398051906020012084146115685760405162461bcd60e51b815260206004820152601d60248201527f496e76616c69642073776170207265717565737420747970656861736800000060448201526064016103b9565b919790965090945092505050565b61124b8585858585611645565b6001600160a01b038083166000908152600760209081526040808320938716835292905220548111156115e45760405162461bcd60e51b815260206004820152600960248201526837bb32b9323930bbb760b91b60448201526064016103b9565b6001600160a01b0380831660009081526007602090815260408083209387168352929052205461161490826114b5565b6001600160a01b03808416600090815260076020908152604080832093881683529290522055610568828583611115565b6000805460405161190160f01b602082015260228101919091526042810187905260620160408051601f19818403018152919052805160209091012090506001600160a01b0385166116d95760405162461bcd60e51b815260206004820152601e60248201527f7369676e65722063616e6e6f7420626520656d7074792061646472657373000060448201526064016103b9565b60408051600081526020810180835283905260ff841691810191909152606081018590526080810184905260019060a0016020604051602081039080840390855afa15801561172c573d6000803e3d6000fd5b505050602060405103516001600160a01b0316856001600160a01b03161461110d5760405162461bcd60e51b8152602060048201526012602482015271696e76616c6964207369676e61747572657360701b60448201526064016103b9565b6001600160a01b03811660009081526003602052604081204291806117af83611941565b915091505b8180156117f457506001600160a01b0385166000908152600260208181526040808420858552909152909120015484906117f2906201518090611e4d565b105b1561124b576001600160a01b038516600090815260056020908152604080832054600283528184208585529092529091206001015461183391906114b5565b6001600160a01b03861660009081526005602052604090205561185583611987565b50506001600160a01b0385166000908152600260208181526040808420858552909152822082815560018101839055015561188f83611941565b90925090506117b4565b6001808301546118a891611e4d565b8260010154106118ea5760405162461bcd60e51b815260206004820152600d60248201526c6c697374206f766572666c6f7760981b60448201526064016103b9565b81546118ff5760018201546002830155611915565b600282015461190f906001611e4d565b60028301555b600382018054600181810183556000928352602090922001829055825461193b91611e4d565b90915550565b805460009081901561197c578260030183600101548154811061196657611966611e92565b9060005260206000200154905060019150915091565b506000905080915091565b8054600090819061199d57506000905080915091565b826003018360010154815481106119b6576119b6611e92565b90600052602060002001549050826001015460016119d49190611e4d565b60018085019190915583546119e99190611e65565b90925550600191565b80356001600160a01b0381168114611a0957600080fd5b919050565b600082601f830112611a1f57600080fd5b813567ffffffffffffffff80821115611a3a57611a3a611ea8565b604051601f8301601f19908116603f01168101908282118183101715611a6257611a62611ea8565b81604052838152866020858801011115611a7b57600080fd5b836020870160208301376000602085830101528094505050505092915050565b803560ff81168114611a0957600080fd5b600060208284031215611abe57600080fd5b611ac7826119f2565b9392505050565b60008060408385031215611ae157600080fd5b611aea836119f2565b9150611af8602084016119f2565b90509250929050565b600080600080600080600060e0888a031215611b1c57600080fd5b611b25886119f2565b9650602088013567ffffffffffffffff80821115611b4257600080fd5b611b4e8b838c01611a0e565b975060408a0135965060608a0135915080821115611b6b57600080fd5b50611b788a828b01611a0e565b945050611b87608089016119f2565b9250611b9560a089016119f2565b915060c0880135905092959891949750929550565b60008060408385031215611bbd57600080fd5b611bc6836119f2565b946020939093013593505050565b600060208284031215611be657600080fd5b81518015158114611ac757600080fd5b600060208284031215611c0857600080fd5b5035919050565b60008060008060808587031215611c2557600080fd5b84359350611c35602086016119f2565b925060408501359150611c4a606086016119f2565b905092959194509250565b60008060008060808587031215611c6b57600080fd5b843593506020850135925060408501359150611c4a60608601611a9b565b600080600080600060a08688031215611ca157600080fd5b85359450602086013593506040860135925060608601359150611cc660808701611a9b565b90509295509295909350565b600080600080600080600060e0888a031215611ced57600080fd5b87519650602088015195506040880151945060608801519350608088015163ffffffff60e01b81168114611d2057600080fd5b8093505060a0880151915060c0880151905092959891949750929550565b60008060008060008060c08789031215611d5757600080fd5b863567ffffffffffffffff811115611d6e57600080fd5b611d7a89828a01611a0e565b965050611d89602088016119f2565b9450611d97604088016119f2565b93506060870135925060808701359150611db360a08801611a9b565b90509295509295509295565b6000825160005b81811015611de05760208186018101518583015201611dc6565b81811115611def576000828501525b509190910192915050565b6020808252601190820152703ab739bab83837b93a32b2103a37b5b2b760791b604082015260600190565b6020808252600e908201526d1cddd85c081b9bdd08199bdd5b9960921b604082015260600190565b60008219821115611e6057611e60611e7c565b500190565b600082821015611e7757611e77611e7c565b500390565b634e487b7160e01b600052601160045260246000fd5b634e487b7160e01b600052603260045260246000fd5b634e487b7160e01b600052604160045260246000fdfe53776170526571756573742875696e743235362065787069726554732c627974657320696e546f6b656e2c75696e7432353620616d6f756e742c627974657334206f7574436861696e2c6279746573206f7574546f6b656e2c627974657320726563697069656e7429a164736f6c6343000806000a454950373132446f6d61696e28737472696e67206e616d652c737472696e672076657273696f6e2c75696e7432353620636861696e49642c6164647265737320766572696679696e67436f6e747261637429",
  "linkReferences": {},
  "deployedLinkReferences": {}
}