{
  "_format": "hh-sol-artifact-1",
  "contractName": "Meson",
  "sourceName": "contracts/Meson.sol",
  "abi": [
    {
      "inputs": [
        {
          "internalType": "address[]",
          "name": "_supportedTokens",
          "type": "address[]"
        }
      ],
      "stateMutability": "nonpayable",
      "type": "constructor"
    },
    {
      "anonymous": false,
      "inputs": [
        {
          "indexed": false,
          "internalType": "bytes32",
          "name": "swapId",
          "type": "bytes32"
        }
      ],
      "name": "SwapBonded",
      "type": "event"
    },
    {
      "anonymous": false,
      "inputs": [
        {
          "indexed": false,
          "internalType": "bytes32",
          "name": "swapId",
          "type": "bytes32"
        }
      ],
      "name": "SwapCancelled",
      "type": "event"
    },
    {
      "anonymous": false,
      "inputs": [
        {
          "indexed": false,
          "internalType": "bytes32",
          "name": "swapId",
          "type": "bytes32"
        }
      ],
      "name": "SwapExecuted",
      "type": "event"
    },
    {
      "anonymous": false,
      "inputs": [
        {
          "indexed": false,
          "internalType": "bytes32",
          "name": "swapId",
          "type": "bytes32"
        },
        {
          "indexed": false,
          "internalType": "address",
          "name": "provider",
          "type": "address"
        }
      ],
      "name": "SwapLocked",
      "type": "event"
    },
    {
      "anonymous": false,
      "inputs": [
        {
          "indexed": false,
          "internalType": "bytes32",
          "name": "swapId",
          "type": "bytes32"
        },
        {
          "indexed": false,
          "internalType": "uint256",
          "name": "expireTs",
          "type": "uint256"
        },
        {
          "indexed": false,
          "internalType": "uint256",
          "name": "amount",
          "type": "uint256"
        },
        {
          "indexed": false,
          "internalType": "address",
          "name": "inToken",
          "type": "address"
        }
      ],
      "name": "SwapPosted",
      "type": "event"
    },
    {
      "anonymous": false,
      "inputs": [
        {
          "indexed": false,
          "internalType": "bytes32",
          "name": "swapId",
          "type": "bytes32"
        }
      ],
      "name": "SwapReleased",
      "type": "event"
    },
    {
      "anonymous": false,
      "inputs": [
        {
          "indexed": false,
          "internalType": "bytes32",
          "name": "swapId",
          "type": "bytes32"
        },
        {
          "indexed": false,
          "internalType": "uint256",
          "name": "expireTs",
          "type": "uint256"
        },
        {
          "indexed": false,
          "internalType": "uint256",
          "name": "amount",
          "type": "uint256"
        },
        {
          "indexed": false,
          "internalType": "address",
          "name": "inToken",
          "type": "address"
        }
      ],
      "name": "SwapRequested",
      "type": "event"
    },
    {
      "inputs": [
        {
          "internalType": "address",
          "name": "",
          "type": "address"
        },
        {
          "internalType": "address",
          "name": "",
          "type": "address"
        }
      ],
      "name": "balanceOf",
      "outputs": [
        {
          "internalType": "uint256",
          "name": "",
          "type": "uint256"
        }
      ],
      "stateMutability": "view",
      "type": "function"
    },
    {
      "inputs": [
        {
          "internalType": "bytes32",
          "name": "swapId",
          "type": "bytes32"
        }
      ],
      "name": "bondSwap",
      "outputs": [],
      "stateMutability": "nonpayable",
      "type": "function"
    },
    {
      "inputs": [
        {
          "internalType": "bytes32",
          "name": "swapId",
          "type": "bytes32"
        }
      ],
      "name": "cancelSwap",
      "outputs": [],
      "stateMutability": "nonpayable",
      "type": "function"
    },
    {
      "inputs": [],
      "name": "challenge",
      "outputs": [],
      "stateMutability": "nonpayable",
      "type": "function"
    },
    {
      "inputs": [
        {
          "internalType": "address",
          "name": "token",
          "type": "address"
        },
        {
          "internalType": "uint256",
          "name": "amount",
          "type": "uint256"
        }
      ],
      "name": "deposit",
      "outputs": [],
      "stateMutability": "nonpayable",
      "type": "function"
    },
    {
      "inputs": [
        {
          "internalType": "bytes32",
          "name": "swapId",
          "type": "bytes32"
        },
        {
          "internalType": "bytes32",
          "name": "r",
          "type": "bytes32"
        },
        {
          "internalType": "bytes32",
          "name": "s",
          "type": "bytes32"
        },
        {
          "internalType": "uint8",
          "name": "v",
          "type": "uint8"
        }
      ],
      "name": "executeSwap",
      "outputs": [],
      "stateMutability": "nonpayable",
      "type": "function"
    },
    {
      "inputs": [],
      "name": "getCoinType",
      "outputs": [
        {
          "internalType": "bytes4",
          "name": "",
          "type": "bytes4"
        }
      ],
      "stateMutability": "pure",
      "type": "function"
    },
    {
      "inputs": [
        {
          "internalType": "bytes32",
          "name": "swapId",
          "type": "bytes32"
        },
        {
          "internalType": "address",
          "name": "initiator",
          "type": "address"
        },
        {
          "internalType": "uint256",
          "name": "amount",
          "type": "uint256"
        },
        {
          "internalType": "address",
          "name": "token",
          "type": "address"
        },
        {
          "internalType": "address",
          "name": "recipient",
          "type": "address"
        }
      ],
      "name": "lock",
      "outputs": [],
      "stateMutability": "nonpayable",
      "type": "function"
    },
    {
      "inputs": [
        {
          "internalType": "bytes32",
          "name": "",
          "type": "bytes32"
        }
      ],
      "name": "lockingSwaps",
      "outputs": [
        {
          "internalType": "address",
          "name": "initiator",
          "type": "address"
        },
        {
          "internalType": "address",
          "name": "provider",
          "type": "address"
        },
        {
          "internalType": "address",
          "name": "token",
          "type": "address"
        },
        {
          "internalType": "uint256",
          "name": "amount",
          "type": "uint256"
        },
        {
          "internalType": "address",
          "name": "recipient",
          "type": "address"
        },
        {
          "internalType": "uint256",
          "name": "until",
          "type": "uint256"
        }
      ],
      "stateMutability": "view",
      "type": "function"
    },
    {
      "inputs": [
        {
          "internalType": "bytes",
          "name": "encodedSwap",
          "type": "bytes"
        },
        {
          "internalType": "address",
          "name": "inToken",
          "type": "address"
        },
        {
          "internalType": "address",
          "name": "initiator",
          "type": "address"
        },
        {
          "internalType": "bytes32",
          "name": "r",
          "type": "bytes32"
        },
        {
          "internalType": "bytes32",
          "name": "s",
          "type": "bytes32"
        },
        {
          "internalType": "uint8",
          "name": "v",
          "type": "uint8"
        }
      ],
      "name": "postSwap",
      "outputs": [
        {
          "internalType": "bytes32",
          "name": "",
          "type": "bytes32"
        }
      ],
      "stateMutability": "nonpayable",
      "type": "function"
    },
    {
      "inputs": [
        {
          "internalType": "bytes32",
          "name": "swapId",
          "type": "bytes32"
        },
        {
          "internalType": "uint256",
          "name": "metaAmount",
          "type": "uint256"
        },
        {
          "internalType": "bytes32",
          "name": "domainHash",
          "type": "bytes32"
        },
        {
          "internalType": "bytes32",
          "name": "r",
          "type": "bytes32"
        },
        {
          "internalType": "bytes32",
          "name": "s",
          "type": "bytes32"
        },
        {
          "internalType": "uint8",
          "name": "v",
          "type": "uint8"
        }
      ],
      "name": "release",
      "outputs": [],
      "stateMutability": "nonpayable",
      "type": "function"
    },
    {
      "inputs": [
        {
          "internalType": "bytes",
          "name": "encodedSwap",
          "type": "bytes"
        },
        {
          "internalType": "address",
          "name": "inToken",
          "type": "address"
        }
      ],
      "name": "requestSwap",
      "outputs": [
        {
          "internalType": "bytes32",
          "name": "",
          "type": "bytes32"
        }
      ],
      "stateMutability": "nonpayable",
      "type": "function"
    },
    {
      "inputs": [
        {
          "internalType": "bytes32",
          "name": "",
          "type": "bytes32"
        }
      ],
      "name": "requests",
      "outputs": [
        {
          "internalType": "address",
          "name": "initiator",
          "type": "address"
        },
        {
          "internalType": "address",
          "name": "provider",
          "type": "address"
        },
        {
          "internalType": "uint256",
          "name": "expireTs",
          "type": "uint256"
        },
        {
          "internalType": "address",
          "name": "inToken",
          "type": "address"
        },
        {
          "internalType": "uint256",
          "name": "amount",
          "type": "uint256"
        }
      ],
      "stateMutability": "view",
      "type": "function"
    },
    {
      "inputs": [
        {
          "internalType": "address",
          "name": "",
          "type": "address"
        }
      ],
      "name": "supportedTokens",
      "outputs": [
        {
          "internalType": "bool",
          "name": "",
          "type": "bool"
        }
      ],
      "stateMutability": "view",
      "type": "function"
    },
    {
      "inputs": [
        {
          "internalType": "address",
          "name": "token",
          "type": "address"
        }
      ],
      "name": "totalDemandFor",
      "outputs": [
        {
          "internalType": "uint256",
          "name": "",
          "type": "uint256"
        }
      ],
      "stateMutability": "view",
      "type": "function"
    },
    {
      "inputs": [
        {
          "internalType": "address",
          "name": "token",
          "type": "address"
        }
      ],
      "name": "totalSupplyFor",
      "outputs": [
        {
          "internalType": "uint256",
          "name": "",
          "type": "uint256"
        }
      ],
      "stateMutability": "view",
      "type": "function"
    },
    {
      "inputs": [
        {
          "internalType": "bytes32",
          "name": "swapId",
          "type": "bytes32"
        }
      ],
      "name": "unlock",
      "outputs": [],
      "stateMutability": "nonpayable",
      "type": "function"
    },
    {
      "inputs": [
        {
          "internalType": "address",
          "name": "token",
          "type": "address"
        },
        {
          "internalType": "uint256",
          "name": "amount",
          "type": "uint256"
        }
      ],
      "name": "withdraw",
      "outputs": [],
      "stateMutability": "nonpayable",
      "type": "function"
    }
  ],
  "bytecode": "0x61010060405260526080818152906200242860a039805160209182012060408051808201825260088152674d65736f6e20466960c01b908401528051808201825260018152603160f81b908401528051928301919091527fe127d7b8d403871d7ed6b19024db4422e92aee79823ba78ad61e52ee2a5f9b98908201527fc89efdaa54c0f20c7adf612882df0950f5a951637e0307cdcb4c672f298b8bc660608201524660808201523060a082015260c00160405160208183030381529060405280519060200120600055348015620000d657600080fd5b506040516200247a3803806200247a833981016040819052620000f9916200025a565b60005b81518110156200014857620001338282815181106200011f576200011f6200035d565b60200260200101516200015060201b60201c565b806200013f8162000333565b915050620000fc565b505062000389565b6001600160a01b0381166000818152600160208181526040808420805460ff19168417905580516080810182528481528083018581528183018681526060838101818152988852600380875294909720835181559151958201959095559351600285015594518051949594620001cf93928501929190910190620001d6565b5050505050565b82805482825590600052602060002090810192821562000214579160200282015b8281111562000214578251825591602001919060010190620001f7565b506200022292915062000226565b5090565b5b8082111562000222576000815560010162000227565b80516001600160a01b03811681146200025557600080fd5b919050565b600060208083850312156200026e57600080fd5b82516001600160401b03808211156200028657600080fd5b818501915085601f8301126200029b57600080fd5b815181811115620002b057620002b062000373565b8060051b604051601f19603f83011681018181108582111715620002d857620002d862000373565b604052828152858101935084860182860187018a1015620002f857600080fd5b600095505b83861015620003265762000311816200023d565b855260019590950194938601938601620002fd565b5098975050505050505050565b60006000198214156200035657634e487b7160e01b600052601160045260246000fd5b5060010190565b634e487b7160e01b600052603260045260246000fd5b634e487b7160e01b600052604160045260246000fd5b61208f80620003996000396000f3fe608060405234801561001057600080fd5b50600436106101165760003560e01c806394149c1a116100a2578063d2ef739811610071578063d2ef73981461012e578063d541beb31461036a578063ec9b5b3a1461037d578063f3fef3a314610390578063f7888aec146103a357600080fd5b806394149c1a146102965780639d866985146102ab578063a8f81b1a1461032e578063bcc20ff61461035757600080fd5b806347e7ef24116100e957806347e7ef241461017c5780634a198f2c1461018f57806361565d25146101a257806368c4ac26146101cb5780636bb39ae0146101fe57600080fd5b80631548fdce1461011b578063367a66e6146101305780633b11d5ac146101435780633ce758b514610169575b600080fd5b61012e610129366004611d0a565b6103ce565b005b61012e61013e366004611db9565b6104c9565b610156610151366004611e76565b61070d565b6040519081526020015b60405180910390f35b61012e610177366004611d7a565b61085c565b61012e61018a366004611cbe565b610990565b61012e61019d366004611d23565b610a3a565b6101566101b0366004611c69565b6001600160a01b031660009081526004602052604090205490565b6101ee6101d9366004611c69565b60016020526000908152604090205460ff1681565b6040519015158152602001610160565b61025361020c366004611d0a565b6008602052600090815260409020805460018201546002830154600384015460048501546005909501546001600160a01b0394851695938516949283169391929091169086565b604080516001600160a01b0397881681529587166020870152938616938501939093526060840191909152909216608082015260a081019190915260c001610160565b604051632000000f60e21b8152602001610160565b6102f76102b9366004611d0a565b600660205260009081526040902080546001820154600283015460038401546004909401546001600160a01b03938416949284169391929091169085565b604080516001600160a01b03968716815294861660208601528401929092529092166060820152608081019190915260a001610160565b61015661033c366004611c69565b6001600160a01b031660009081526005602052604090205490565b610156610365366004611ebb565b610ce9565b61012e610378366004611d0a565b610f4e565b61012e61038b366004611d0a565b611160565b61012e61039e366004611cbe565b611320565b6101566103b1366004611c8b565b600760209081526000928352604080842090915290825290205481565b60008181526006602052604090206004015481906104075760405162461bcd60e51b81526004016103fe90611f96565b60405180910390fd5b6000828152600660205260409020600101546001600160a01b03161561046f5760405162461bcd60e51b815260206004820152601f60248201527f7377617020626f6e64656420746f20616e6f746865722070726f76696465720060448201526064016103fe565b60008281526006602090815260409182902060010180546001600160a01b03191633179055815184815291517f9dadb60bc000bbd7b49430723ed56b6aa35909dcab91ec2cb17ed5da7ae4ffd69281900390910190a15050565b6000868152600860208181526040808420815160c08101835281546001600160a01b039081168252600183015481168286015260028301548116938201939093526003820154606082018190526004830154909316608082015260059091015460a0820152938a90529190526105775760405162461bcd60e51b81526020600482015260136024820152721cddd85c08191bd95cc81b9bdd08195e1a5cdd606a1b60448201526064016103fe565b80606001518611156105e85760405162461bcd60e51b815260206004820152603460248201527f72656c6561736520616d6f756e742063616e6e6f742062652067726561746572604482015273081d1a185b881b1bd8dada5b99c8185b5bdd5b9d60621b60648201526084016103fe565b6105fa87868360000151878787611371565b604081015160208201516080830151606084015189101561067b576001600160a01b038084166000908152600760209081526040808320938616835292905220546060850151610654919061064f908c61154a565b61156b565b6001600160a01b038085166000908152600760209081526040808320938716835292905220555b60008a815260086020526040812080546001600160a01b031990811682556001820180548216905560028201805482169055600382018390556004820180549091169055600501556106ce83828b611586565b6040518a81527fe8aa10932e72fe72aa2f3879a4dd799b95f5fbe728be1be0609e5baa14ec40f49060200160405180910390a150505050505050505050565b6001600160a01b038116600090815260016020526040812054829060ff166107475760405162461bcd60e51b81526004016103fe90611f6b565b600080600061075687876116c3565b92509250925060006107653390565b6040805160a0810182526001600160a01b038084168252600060208084018281528486018a81528e851660608701908152608087018b81528d8652600690945296909320945185549085166001600160a01b0319918216178655905160018601805491861691831691909117905591516002850155935160038401805491909316911617905590516004909101559050610800878284611905565b60408051858152602081018590529081018390526001600160a01b03881660608201527fd817149ecf4b0c804e02ea3bd246f04db64ee3ea2ef0e16f78b6dd0a60cf58299060800160405180910390a150919695505050505050565b600084815260066020526040902060040154849061088c5760405162461bcd60e51b81526004016103fe90611f96565b6000858152600660209081526040808320815160a08101835281546001600160a01b0390811680835260018401548216958301959095526002830154938201939093526003820154909216606083015260040154608082015291546108f691889190888888611371565b6080810151606082015160208084015160008a815260069092526040822080546001600160a01b031990811682556001820180548216905560028201849055600382018054909116905560040191909155610952828285611586565b6040518981527f6921a2110a802468e8955f2885822155442ad19c60f42db0444a6993c23d20629060200160405180910390a1505050505050505050565b6001600160a01b038216600090815260016020526040902054829060ff166109ca5760405162461bcd60e51b81526004016103fe90611f6b565b6001600160a01b0383166000908152600760209081526040808320338085529252909120546109f9908461156b565b6001600160a01b03808616600090815260076020908152604080832093861683529290522055610a29848461198d565b610a34848285611905565b50505050565b6001600160a01b038216600090815260016020526040902054829060ff16610a745760405162461bcd60e51b81526004016103fe90611f6b565b60008411610ac45760405162461bcd60e51b815260206004820181905260248201527f616d6f756e74206d7573742062652067726561746572207468616e207a65726f60448201526064016103fe565b60008681526008602052604090206003015415610b235760405162461bcd60e51b815260206004820152601b60248201527f6c6f636b696e67207377617020616c726561647920657869737473000000000060448201526064016103fe565b6001600160a01b038316600090815260076020908152604080832033808552925290912054851115610b8e5760405162461bcd60e51b8152602060048201526014602482015273696e73756666696369656e742062616c616e636560601b60448201526064016103fe565b6001600160a01b03808516600090815260076020908152604080832093851683529290522054610bbf908690611fd6565b6001600160a01b0380861660008181526007602090815260408083208786168085529083529281902095909555845160c0810186528b851681529081019190915292830152606082018790528416608082015260a08101610c226104b042611fbe565b9052600088815260086020908152604091829020835181546001600160a01b03199081166001600160a01b0392831617835585840151600184018054831691841691909117905585850151600284018054831691841691909117905560608601516003840155608086015160048401805490921690831617905560a09094015160059091015581518a8152928416908301527faad18fe672f0d6b379db88b0e1176f10cc003e9a4d8ed142a90c0b6f8bedb8de91015b60405180910390a150505050505050565b6001600160a01b038516600090815260016020526040812054869060ff16610d235760405162461bcd60e51b81526004016103fe90611f6b565b6000806000610d328b8b6116c3565b60408051600081526020810180835285905260ff8b1691810191909152606081018c9052608081018b9052929550909350915060019060a0016020604051602081039080840390855afa158015610d8d573d6000803e3d6000fd5b505050602060405103516001600160a01b0316896001600160a01b031614610deb5760405162461bcd60e51b8152602060048201526011602482015270696e76616c6964207369676e617475726560781b60448201526064016103fe565b60003390506040518060a001604052808b6001600160a01b03168152602001826001600160a01b031681526020018481526020018c6001600160a01b03168152602001838152506006600086815260200190815260200160002060008201518160000160006101000a8154816001600160a01b0302191690836001600160a01b0316021790555060208201518160010160006101000a8154816001600160a01b0302191690836001600160a01b031602179055506040820151816002015560608201518160030160006101000a8154816001600160a01b0302191690836001600160a01b0316021790555060808201518160040155905050610eee8b8b84611905565b60408051858152602081018590529081018390526001600160a01b038c1660608201527ff60f3861c423568d0aae6a3a3bc9d4b41c40ab0cb0267599d9d35122e4f320e89060800160405180910390a150919a9950505050505050505050565b6000818152600660205260409020600401548190610f7e5760405162461bcd60e51b81526004016103fe90611f96565b60008281526006602052604090206002015482904211610fd35760405162461bcd60e51b815260206004820152601060248201526f1cddd85c081b9bdd08195e1c1a5c995960821b60448201526064016103fe565b6000600660008581526020019081526020016000206040518060a00160405290816000820160009054906101000a90046001600160a01b03166001600160a01b03166001600160a01b031681526020016001820160009054906101000a90046001600160a01b03166001600160a01b03166001600160a01b03168152602001600282015481526020016003820160009054906101000a90046001600160a01b03166001600160a01b03166001600160a01b03168152602001600482015481525050905060008160600151905060008260000151905060008360800151905060066000888152602001908152602001600020600080820160006101000a8154906001600160a01b0302191690556001820160006101000a8154906001600160a01b03021916905560028201600090556003820160006101000a8154906001600160a01b03021916905560048201600090555050611130838383611586565b6040518781527f5a399591cfd74c375a1ffd61c20221db0db82381f65516889ed13c8cd1f99d5b90602001610cd8565b6000818152600860205260409020600301546111b45760405162461bcd60e51b81526020600482015260136024820152721cddd85c08191bd95cc81b9bdd08195e1a5cdd606a1b60448201526064016103fe565b600081815260086020908152604091829020825160c08101845281546001600160a01b0390811682526001830154811693820193909352600282015483169381019390935260038101546060840152600481015490911660808301526005015460a0820181905242116112695760405162461bcd60e51b815260206004820152601960248201527f5468652073776170206973207374696c6c20696e206c6f636b0000000000000060448201526064016103fe565b60408082015160608301516020808501516001600160a01b038085166000908152600784528681209183168152925293902054919290916112aa908361156b565b6001600160a01b039384166000908152600760209081526040808320949096168252928352848120919091559485526008905250822080546001600160a01b0319908116825560018201805482169055600282018054821690556003820184905560048201805490911690556005019190915550565b6001600160a01b038216600090815260016020526040902054829060ff1661135a5760405162461bcd60e51b81526004016103fe90611f6b565b3361136584846119d0565b610a3481828686611a47565b6001600160a01b0384166113c75760405162461bcd60e51b815260206004820152601e60248201527f7369676e65722063616e6e6f7420626520656d7074792061646472657373000060448201526064016103fe565b604080518082018252601b81527f5377617052656c656173652862797465733332207377617049642900000000006020918201529051600091611437917ffb1f98601c589a04e2ceca199119c17bd547893fffb8d088acdae5aff4f9b19d918a9101918252602082015260400190565b6040516020818303038152906040528051906020012090506000868260405160200161147a92919061190160f01b81526002810192909252602282015260420190565b60408051601f1981840301815282825280516020918201206000845290830180835281905260ff8616918301919091526060820187905260808201869052915060019060a0016020604051602081039080840390855afa1580156114e2573d6000803e3d6000fd5b505050602060405103516001600160a01b0316866001600160a01b0316146115405760405162461bcd60e51b8152602060048201526011602482015270696e76616c6964207369676e617475726560781b60448201526064016103fe565b5050505050505050565b6000826115578382611fd6565b915081111561156557600080fd5b92915050565b6000826115788382611fbe565b915081101561156557600080fd5b604080518082018252601981527f7472616e7366657228616464726573732c75696e74323536290000000000000060209182015281516001600160a01b0385811660248301526044808301869052845180840390910181526064909201845291810180516001600160e01b031663a9059cbb60e01b179052915160009283928716916116129190611f30565b6000604051808303816000865af19150503d806000811461164f576040519150601f19603f3d011682016040523d82523d6000602084013e611654565b606091505b509150915081801561167e57508051158061167e57508080602001905181019061167e9190611ce8565b6116bc5760405162461bcd60e51b815260206004820152600f60248201526e1d1c985b9cd9995c8819985a5b1959608a1b60448201526064016103fe565b5050505050565b6000806000806000806116d588611b09565b6040516bffffffffffffffffffffffff1960608c901b16602082015292955090935091508290603401604051602081830303815290604052805190602001201461175a5760405162461bcd60e51b81526020600482015260166024820152750d2dca8ded6cadc40c8decae640dcdee840dac2e8c6d60531b60448201526064016103fe565b600081116117b85760405162461bcd60e51b815260206004820152602560248201527f7377617020616d6f756e74206d7573742062652067726561746572207468616e604482015264207a65726f60d81b60648201526084016103fe565b426117c5610e1082611fbe565b841161180a5760405162461bcd60e51b81526020600482015260146024820152736578706972657320747320746f6f206561726c7960601b60448201526064016103fe565b611816611c2082611fbe565b841061185a5760405162461bcd60e51b81526020600482015260136024820152726578706972657320747320746f6f206c61746560681b60448201526064016103fe565b60006118a38a80516020918201206000546040805161190160f01b8186015260228101929092526042808301939093528051808303909301835260629091019052805191012090565b600081815260066020526040902060040154909150156118f55760405162461bcd60e51b815260206004820152600d60248201526c1cddd85c0818dbdb999b1a58dd609a1b60448201526064016103fe565b9650929450925050509250925092565b6040516323b872dd60e01b81526001600160a01b038381166004830152306024830152604482018390528416906323b872dd90606401602060405180830381600087803b15801561195557600080fd5b505af1158015611969573d6000803e3d6000fd5b505050506040513d601f19601f82011682018060405250810190610a349190611ce8565b6001600160a01b0382166000908152600460205260409020546119b0908261156b565b6001600160a01b0390921660009081526004602052604090209190915550565b6001600160a01b038216600090815260046020526040902054811115611a245760405162461bcd60e51b815260206004820152600960248201526837bb32b9323930bbb760b91b60448201526064016103fe565b6001600160a01b0382166000908152600460205260409020546119b0908261154a565b6001600160a01b03808316600090815260076020908152604080832093871683529290522054811115611aa85760405162461bcd60e51b815260206004820152600960248201526837bb32b9323930bbb760b91b60448201526064016103fe565b6001600160a01b03808316600090815260076020908152604080832093871683529290522054611ad8908261154a565b6001600160a01b03808416600090815260076020908152604080832093881683529290522055610a34828583611586565b600080600080600080600087806020019051810190611b289190611e0a565b50505093509350935093506040518060a001604052806069815260200161201a60699139805190602001208414611ba15760405162461bcd60e51b815260206004820152601d60248201527f496e76616c69642073776170207265717565737420747970656861736800000060448201526064016103fe565b919790965090945092505050565b80356001600160a01b0381168114611bc657600080fd5b919050565b600082601f830112611bdc57600080fd5b813567ffffffffffffffff80821115611bf757611bf7612003565b604051601f8301601f19908116603f01168101908282118183101715611c1f57611c1f612003565b81604052838152866020858801011115611c3857600080fd5b836020870160208301376000602085830101528094505050505092915050565b803560ff81168114611bc657600080fd5b600060208284031215611c7b57600080fd5b611c8482611baf565b9392505050565b60008060408385031215611c9e57600080fd5b611ca783611baf565b9150611cb560208401611baf565b90509250929050565b60008060408385031215611cd157600080fd5b611cda83611baf565b946020939093013593505050565b600060208284031215611cfa57600080fd5b81518015158114611c8457600080fd5b600060208284031215611d1c57600080fd5b5035919050565b600080600080600060a08688031215611d3b57600080fd5b85359450611d4b60208701611baf565b935060408601359250611d6060608701611baf565b9150611d6e60808701611baf565b90509295509295909350565b60008060008060808587031215611d9057600080fd5b843593506020850135925060408501359150611dae60608601611c58565b905092959194509250565b60008060008060008060c08789031215611dd257600080fd5b8635955060208701359450604087013593506060870135925060808701359150611dfe60a08801611c58565b90509295509295509295565b600080600080600080600060e0888a031215611e2557600080fd5b87519650602088015195506040880151945060608801519350608088015163ffffffff60e01b81168114611e5857600080fd5b8093505060a0880151915060c0880151905092959891949750929550565b60008060408385031215611e8957600080fd5b823567ffffffffffffffff811115611ea057600080fd5b611eac85828601611bcb565b925050611cb560208401611baf565b60008060008060008060c08789031215611ed457600080fd5b863567ffffffffffffffff811115611eeb57600080fd5b611ef789828a01611bcb565b965050611f0660208801611baf565b9450611f1460408801611baf565b93506060870135925060808701359150611dfe60a08801611c58565b6000825160005b81811015611f515760208186018101518583015201611f37565b81811115611f60576000828501525b509190910192915050565b6020808252601190820152703ab739bab83837b93a32b2103a37b5b2b760791b604082015260600190565b6020808252600e908201526d1cddd85c081b9bdd08199bdd5b9960921b604082015260600190565b60008219821115611fd157611fd1611fed565b500190565b600082821015611fe857611fe8611fed565b500390565b634e487b7160e01b600052601160045260246000fd5b634e487b7160e01b600052604160045260246000fdfe53776170526571756573742875696e743235362065787069726554732c627974657320696e546f6b656e2c75696e7432353620616d6f756e742c627974657334206f7574436861696e2c6279746573206f7574546f6b656e2c627974657320726563697069656e7429a164736f6c6343000806000a454950373132446f6d61696e28737472696e67206e616d652c737472696e672076657273696f6e2c75696e7432353620636861696e49642c6164647265737320766572696679696e67436f6e747261637429",
  "linkReferences": {},
  "deployedLinkReferences": {}
}