{
  "_format": "hh-sol-artifact-1",
  "contractName": "Meson",
  "sourceName": "contracts/Meson.sol",
  "abi": [
    {
      "inputs": [
        {
          "internalType": "address[]",
          "name": "supportedTokens",
          "type": "address[]"
        }
      ],
      "stateMutability": "nonpayable",
      "type": "constructor"
    },
    {
      "anonymous": false,
      "inputs": [
        {
          "indexed": true,
          "internalType": "uint256",
          "name": "encodedSwap",
          "type": "uint256"
        }
      ],
      "name": "SwapBonded",
      "type": "event"
    },
    {
      "anonymous": false,
      "inputs": [
        {
          "indexed": true,
          "internalType": "uint256",
          "name": "encodedSwap",
          "type": "uint256"
        }
      ],
      "name": "SwapCancelled",
      "type": "event"
    },
    {
      "anonymous": false,
      "inputs": [
        {
          "indexed": true,
          "internalType": "uint256",
          "name": "encodedSwap",
          "type": "uint256"
        }
      ],
      "name": "SwapLocked",
      "type": "event"
    },
    {
      "anonymous": false,
      "inputs": [
        {
          "indexed": true,
          "internalType": "uint256",
          "name": "encodedSwap",
          "type": "uint256"
        }
      ],
      "name": "SwapPosted",
      "type": "event"
    },
    {
      "anonymous": false,
      "inputs": [
        {
          "indexed": true,
          "internalType": "uint256",
          "name": "encodedSwap",
          "type": "uint256"
        }
      ],
      "name": "SwapReleased",
      "type": "event"
    },
    {
      "inputs": [
        {
          "internalType": "uint40",
          "name": "",
          "type": "uint40"
        }
      ],
      "name": "addressOfIndex",
      "outputs": [
        {
          "internalType": "address",
          "name": "",
          "type": "address"
        }
      ],
      "stateMutability": "view",
      "type": "function"
    },
    {
      "inputs": [
        {
          "internalType": "address",
          "name": "token",
          "type": "address"
        },
        {
          "internalType": "address",
          "name": "addr",
          "type": "address"
        }
      ],
      "name": "balanceOf",
      "outputs": [
        {
          "internalType": "uint256",
          "name": "",
          "type": "uint256"
        }
      ],
      "stateMutability": "view",
      "type": "function"
    },
    {
      "inputs": [
        {
          "internalType": "uint256",
          "name": "encodedSwap",
          "type": "uint256"
        },
        {
          "internalType": "uint40",
          "name": "providerIndex",
          "type": "uint40"
        }
      ],
      "name": "bondSwap",
      "outputs": [],
      "stateMutability": "nonpayable",
      "type": "function"
    },
    {
      "inputs": [
        {
          "internalType": "uint256",
          "name": "encodedSwap",
          "type": "uint256"
        }
      ],
      "name": "cancelSwap",
      "outputs": [],
      "stateMutability": "nonpayable",
      "type": "function"
    },
    {
      "inputs": [
        {
          "internalType": "uint256",
          "name": "amount",
          "type": "uint256"
        },
        {
          "internalType": "uint48",
          "name": "balanceIndex",
          "type": "uint48"
        }
      ],
      "name": "deposit",
      "outputs": [],
      "stateMutability": "nonpayable",
      "type": "function"
    },
    {
      "inputs": [
        {
          "internalType": "uint256",
          "name": "amount",
          "type": "uint256"
        },
        {
          "internalType": "uint48",
          "name": "balanceIndex",
          "type": "uint48"
        }
      ],
      "name": "depositAndRegister",
      "outputs": [],
      "stateMutability": "nonpayable",
      "type": "function"
    },
    {
      "inputs": [
        {
          "internalType": "uint256",
          "name": "encodedSwap",
          "type": "uint256"
        },
        {
          "internalType": "bytes32",
          "name": "recipientHash",
          "type": "bytes32"
        },
        {
          "internalType": "bytes32",
          "name": "r",
          "type": "bytes32"
        },
        {
          "internalType": "bytes32",
          "name": "s",
          "type": "bytes32"
        },
        {
          "internalType": "uint8",
          "name": "v",
          "type": "uint8"
        },
        {
          "internalType": "bool",
          "name": "depositToPool",
          "type": "bool"
        }
      ],
      "name": "executeSwap",
      "outputs": [],
      "stateMutability": "nonpayable",
      "type": "function"
    },
    {
      "inputs": [
        {
          "internalType": "uint256",
          "name": "encodedSwap",
          "type": "uint256"
        }
      ],
      "name": "getLockedSwap",
      "outputs": [
        {
          "internalType": "address",
          "name": "initiator",
          "type": "address"
        },
        {
          "internalType": "address",
          "name": "provider",
          "type": "address"
        },
        {
          "internalType": "uint40",
          "name": "until",
          "type": "uint40"
        }
      ],
      "stateMutability": "view",
      "type": "function"
    },
    {
      "inputs": [
        {
          "internalType": "uint256",
          "name": "encodedSwap",
          "type": "uint256"
        }
      ],
      "name": "getPostedSwap",
      "outputs": [
        {
          "internalType": "address",
          "name": "initiator",
          "type": "address"
        },
        {
          "internalType": "address",
          "name": "provider",
          "type": "address"
        },
        {
          "internalType": "bool",
          "name": "executed",
          "type": "bool"
        }
      ],
      "stateMutability": "view",
      "type": "function"
    },
    {
      "inputs": [],
      "name": "getShortCoinType",
      "outputs": [
        {
          "internalType": "bytes2",
          "name": "",
          "type": "bytes2"
        }
      ],
      "stateMutability": "pure",
      "type": "function"
    },
    {
      "inputs": [
        {
          "internalType": "address",
          "name": "",
          "type": "address"
        }
      ],
      "name": "indexOfAddress",
      "outputs": [
        {
          "internalType": "uint40",
          "name": "",
          "type": "uint40"
        }
      ],
      "stateMutability": "view",
      "type": "function"
    },
    {
      "inputs": [
        {
          "internalType": "address",
          "name": "token",
          "type": "address"
        }
      ],
      "name": "indexOfToken",
      "outputs": [
        {
          "internalType": "uint8",
          "name": "",
          "type": "uint8"
        }
      ],
      "stateMutability": "view",
      "type": "function"
    },
    {
      "inputs": [
        {
          "internalType": "uint256",
          "name": "encodedSwap",
          "type": "uint256"
        },
        {
          "internalType": "bytes32",
          "name": "r",
          "type": "bytes32"
        },
        {
          "internalType": "bytes32",
          "name": "s",
          "type": "bytes32"
        },
        {
          "internalType": "uint8",
          "name": "v",
          "type": "uint8"
        },
        {
          "internalType": "address",
          "name": "initiator",
          "type": "address"
        }
      ],
      "name": "lock",
      "outputs": [],
      "stateMutability": "nonpayable",
      "type": "function"
    },
    {
      "inputs": [
        {
          "internalType": "uint256",
          "name": "encodedSwap",
          "type": "uint256"
        },
        {
          "internalType": "bytes32",
          "name": "r",
          "type": "bytes32"
        },
        {
          "internalType": "bytes32",
          "name": "s",
          "type": "bytes32"
        },
        {
          "internalType": "uint8",
          "name": "v",
          "type": "uint8"
        },
        {
          "internalType": "uint200",
          "name": "postingValue",
          "type": "uint200"
        }
      ],
      "name": "postSwap",
      "outputs": [],
      "stateMutability": "nonpayable",
      "type": "function"
    },
    {
      "inputs": [
        {
          "internalType": "uint256",
          "name": "encodedSwap",
          "type": "uint256"
        },
        {
          "internalType": "bytes32",
          "name": "r",
          "type": "bytes32"
        },
        {
          "internalType": "bytes32",
          "name": "s",
          "type": "bytes32"
        },
        {
          "internalType": "uint8",
          "name": "v",
          "type": "uint8"
        },
        {
          "internalType": "address",
          "name": "recipient",
          "type": "address"
        }
      ],
      "name": "release",
      "outputs": [],
      "stateMutability": "nonpayable",
      "type": "function"
    },
    {
      "inputs": [],
      "name": "supportedTokens",
      "outputs": [
        {
          "internalType": "address[]",
          "name": "tokens",
          "type": "address[]"
        }
      ],
      "stateMutability": "view",
      "type": "function"
    },
    {
      "inputs": [
        {
          "internalType": "uint8",
          "name": "tokenIndex",
          "type": "uint8"
        }
      ],
      "name": "tokenForIndex",
      "outputs": [
        {
          "internalType": "address",
          "name": "",
          "type": "address"
        }
      ],
      "stateMutability": "view",
      "type": "function"
    },
    {
      "inputs": [
        {
          "internalType": "uint256",
          "name": "encodedSwap",
          "type": "uint256"
        }
      ],
      "name": "unlock",
      "outputs": [],
      "stateMutability": "nonpayable",
      "type": "function"
    },
    {
      "inputs": [
        {
          "internalType": "uint256",
          "name": "amount",
          "type": "uint256"
        },
        {
          "internalType": "uint8",
          "name": "tokenIndex",
          "type": "uint8"
        }
      ],
      "name": "withdraw",
      "outputs": [],
      "stateMutability": "nonpayable",
      "type": "function"
    }
  ],
  "bytecode": "0x60806040523480156200001157600080fd5b506040516200253138038062002531833981016040819052620000349162000156565b60005b81518160ff16101562000092576200007d828260ff168151811062000060576200006062000290565b60200260200101518260016200007791906200022f565b6200009a565b80620000898162000257565b91505062000037565b5050620002bc565b60ff8116620000ef5760405162461bcd60e51b815260206004820152601b60248201527f43616e6e6f7420757365203020617320746f6b656e20696e6465780000000000604482015260640160405180910390fd5b6001600160a01b039091166000818152600160209081526040808320805460ff90961660ff19909616861790559382528190529190912080546001600160a01b0319169091179055565b80516001600160a01b03811681146200015157600080fd5b919050565b600060208083850312156200016a57600080fd5b82516001600160401b03808211156200018257600080fd5b818501915085601f8301126200019757600080fd5b815181811115620001ac57620001ac620002a6565b8060051b604051601f19603f83011681018181108582111715620001d457620001d4620002a6565b604052828152858101935084860182860187018a1015620001f457600080fd5b600095505b8386101562000222576200020d8162000139565b855260019590950194938601938601620001f9565b5098975050505050505050565b600060ff821660ff84168060ff038211156200024f576200024f6200027a565b019392505050565b600060ff821660ff8114156200027157620002716200027a565b60010192915050565b634e487b7160e01b600052601160045260246000fd5b634e487b7160e01b600052603260045260246000fd5b634e487b7160e01b600052604160045260246000fd5b61226580620002cc6000396000f3fe608060405234801561001057600080fd5b50600436106101515760003560e01c80638302ce5a116100cd578063be18e8a411610081578063eba7fb7711610066578063eba7fb7714610410578063f7888aec1461043d578063ff3787191461045e57600080fd5b8063be18e8a414610348578063e76afb541461035b57600080fd5b8063903d4296116100b2578063903d4296146102c5578063b002249d146102d8578063b3df5b36146102ed57600080fd5b80638302ce5a1461029f5780638f487dc9146102b257600080fd5b806335eff30f1161012457806354d6a2b71161010957806354d6a2b7146102665780636198e339146102795780637c8501871461028c57600080fd5b806335eff30f1461024057806337b90a4f1461025357600080fd5b80630b9b44af146101565780631aba3a551461016b5780631e2a6075146101ad5780632335093c146101f5575b600080fd5b610169610164366004611f3a565b610497565b005b610192610179366004611e53565b60026020526000908152604090205464ffffffffff1681565b60405164ffffffffff90911681526020015b60405180910390f35b6101c06101bb366004611ec5565b610610565b6040805173ffffffffffffffffffffffffffffffffffffffff94851681529390921660208401521515908201526060016101a4565b61022e610203366004611e53565b73ffffffffffffffffffffffffffffffffffffffff1660009081526001602052604090205460ff1690565b60405160ff90911681526020016101a4565b61016961024e366004611ffc565b6106a2565b61016961026136600461201f565b6107f4565b610169610274366004611ec5565b6108b8565b610169610287366004611ec5565b610a2c565b61016961029a366004611ede565b610bc6565b6101696102ad366004611f8a565b610dad565b6101696102c036600461201f565b611059565b6101696102d336600461205a565b6112ef565b6102e06113f9565b6040516101a491906120ee565b6103236102fb36600461207d565b60036020526000908152604090205473ffffffffffffffffffffffffffffffffffffffff1681565b60405173ffffffffffffffffffffffffffffffffffffffff90911681526020016101a4565b610169610356366004611f3a565b611546565b6103d6610369366004611ec5565b60009081526006602090815260408083205464ffffffffff60a082901c8116855260039093529220547dffffffffffffffffffffffffffffffffffffffffffffffffffffffffffff83169373ffffffffffffffffffffffffffffffffffffffff9091169260c81c90911690565b6040805173ffffffffffffffffffffffffffffffffffffffff948516815293909216602084015264ffffffffff16908201526060016101a4565b6040517e3c00000000000000000000000000000000000000000000000000000000000081526020016101a4565b61045061044b366004611e75565b6117c1565b6040519081526020016101a4565b61032361046c366004612098565b60ff1660009081526020819052604090205473ffffffffffffffffffffffffffffffffffffffff1690565b6000858152600660205260409020547dffffffffffffffffffffffffffffffffffffffffffffffffffffffffffff16806105185760405162461bcd60e51b815260206004820152601360248201527f5377617020646f6573206e6f742065786973740000000000000000000000000060448201526064015b60405180910390fd5b6040517fffffffffffffffffffffffffffffffffffffffff000000000000000000000000606084901b16602082015261056f9087906034016040516020818303038152906040528051906020012087878786611820565b600086815260066020908152604080832080547fffff00000000000000000000000000000000000000000000000000000000000016905560ff60188a901c1683529082905290205473ffffffffffffffffffffffffffffffffffffffff166105dc818460a08a901c61198b565b60405187907ffa628b578e095243f0544bfad9255f49d79d03a5bbf6c85875d05a215e247ad290600090a250505050505050565b60008181526005602052604081205473ffffffffffffffffffffffffffffffffffffffff602882901c16919078ffffffffffffffffffffffffffffffffffffffffffffffffff1660018114908361066a576000925061069a565b64ffffffffff811660009081526003602052604090205473ffffffffffffffffffffffffffffffffffffffff1692505b509193909250565b60008281526005602052604090205478ffffffffffffffffffffffffffffffffffffffffffffffffff16806107195760405162461bcd60e51b815260206004820152601360248201527f5377617020646f6573206e6f7420657869737400000000000000000000000000604482015260640161050f565b64ffffffffff81161561076e5760405162461bcd60e51b815260206004820152601f60248201527f5377617020626f6e64656420746f20616e6f746865722070726f766964657200604482015260640161050f565b60008381526005602052604080822080547fffffffffffffff000000000000000000000000000000000000000000000000001664ffffffffff861678ffffffffffffffffffffffffffffffffffffffffffffffffff8616171790555184917f60a99b51ae498c44acbbe11031aed2a06a32be66d2122e6e2a7a16c087865cc991a2505050565b600082116108445760405162461bcd60e51b815260206004820152601760248201527f416d6f756e74206d75737420626520706f736974697665000000000000000000604482015260640161050f565b65ffffffffffff81166000908152600460205260409020546108669083611ada565b65ffffffffffff8216600090815260046020908152604080832093909355602884901c60ff16825281905220546108b49073ffffffffffffffffffffffffffffffffffffffff163384611b38565b5050565b60008181526005602052604090205478ffffffffffffffffffffffffffffffffffffffffffffffffff16600181116109325760405162461bcd60e51b815260206004820152601360248201527f5377617020646f6573206e6f7420657869737400000000000000000000000000604482015260640161050f565b42603083901c64ffffffffff161061098c5760405162461bcd60e51b815260206004820152601460248201527f53776170206973207374696c6c206c6f636b6564000000000000000000000000604482015260640161050f565b600082815260056020908152604080832080547fffffffffffffff0000000000000000000000000000000000000000000000000016905560ff85168352908290529020546109fd9073ffffffffffffffffffffffffffffffffffffffff90811690602884901c1660a085901c61198b565b60405182907ff6b6b4f7a13f02512c1b3aa8dcc4a07d7775a6a4becbd439efcbd37c5408e67f90600090a25050565b6000818152600660205260409020547dffffffffffffffffffffffffffffffffffffffffffffffffffffffffffff1680610aa85760405162461bcd60e51b815260206004820152601360248201527f5377617020646f6573206e6f7420657869737400000000000000000000000000604482015260640161050f565b807dffffffffffffffffffffffffffffffffffffffffffffffffffffffffffff1660c842901b7dffffffffffffffffffffffffffffffffffffffffffffffffffffffffffff1611610b3b5760405162461bcd60e51b815260206004820152601260248201527f53776170207374696c6c20696e206c6f636b0000000000000000000000000000604482015260640161050f565b60a081811c64ffffffffff16601084901b65ff000000000016176000818152600460205260409020549091610b73919085901c611ada565b65ffffffffffff909116600090815260046020908152604080832093909355938152600690935290912080547fffff00000000000000000000000000000000000000000000000000000000000016905550565b60008681526005602052604090205478ffffffffffffffffffffffffffffffffffffffffffffffffff1680610c3d5760405162461bcd60e51b815260206004820152601360248201527f5377617020646f6573206e6f7420657869737400000000000000000000000000604482015260640161050f565b610c49610e1042612148565b603088901c64ffffffffff161015610c9457600087815260056020526040902080547fffffffffffffff00000000000000000000000000000000000000000000000000169055610ccc565b600087815260056020526040902080547fffffffffffffff000000000000000000000000000000000000000000000000001660011790555b610cf9878787878760288778ffffffffffffffffffffffffffffffffffffffffffffffffff16901c611820565b8115610d555764ffffffffff8116602888901b65ffffffffffff81168217600090815260046020526040902054911790610d379060a08a901c611ada565b65ffffffffffff909116600090815260046020526040902055610da4565b60ff87166000908152602081815260408083205464ffffffffff85168452600390925290912054610da49173ffffffffffffffffffffffffffffffffffffffff908116911660a08a901c61198b565b50505050505050565b84600881901c61ffff16603c14610e065760405162461bcd60e51b815260206004820152601760248201527f53776170206e6f7420666f72207468697320636861696e000000000000000000604482015260640161050f565b60008681526005602052604090205478ffffffffffffffffffffffffffffffffffffffffffffffffff1615610e7d5760405162461bcd60e51b815260206004820152601360248201527f5377617020616c72656164792065786973747300000000000000000000000000604482015260640161050f565b6000610e944264ffffffffff60308a901c16612160565b9050610e108111610ee75760405162461bcd60e51b815260206004820152601360248201527f45787069726520747320746f6f206561726c7900000000000000000000000000604482015260640161050f565b611c208110610f385760405162461bcd60e51b815260206004820152601260248201527f45787069726520747320746f6f206c6174650000000000000000000000000000604482015260640161050f565b73ffffffffffffffffffffffffffffffffffffffff602884901c16610f608888888885611c36565b600088815260056020908152604080832080547fffffffffffffff000000000000000000000000000000000000000000000000001678ffffffffffffffffffffffffffffffffffffffffffffffffff891617905560ff8b16835290829052902054610fe69073ffffffffffffffffffffffffffffffffffffffff168260a08b901c611b38565b64ffffffffff8416156110235760405188907f60a99b51ae498c44acbbe11031aed2a06a32be66d2122e6e2a7a16c087865cc990600090a261104f565b60405188907f5ce4019f772fda6cb703b26bce3ec3006eb36b73f1d3a0eb441213317d9f5e9d90600090a25b5050505050505050565b600082116110a95760405162461bcd60e51b815260206004820152601760248201527f416d6f756e74206d75737420626520706f736974697665000000000000000000604482015260640161050f565b338164ffffffffff81166110ff5760405162461bcd60e51b815260206004820152601e60248201527f43616e6e6f742075736520302061732070726f766964657220696e6465780000604482015260640161050f565b64ffffffffff811660009081526003602052604090205473ffffffffffffffffffffffffffffffffffffffff16156111795760405162461bcd60e51b815260206004820152601860248201527f496e64657820616c726561647920726567697374657265640000000000000000604482015260640161050f565b73ffffffffffffffffffffffffffffffffffffffff821660009081526002602052604090205464ffffffffff16156111f35760405162461bcd60e51b815260206004820152601a60248201527f4164647265737320616c72656164792072656769737465726564000000000000604482015260640161050f565b64ffffffffff8116600081815260036020908152604080832080547fffffffffffffffffffffffff00000000000000000000000000000000000000001673ffffffffffffffffffffffffffffffffffffffff881690811790915583526002825280832080547fffffffffffffffffffffffffffffffffffffffffffffffffffffff00000000001690941790935565ffffffffffff8616825260049052205461129b9085611ada565b65ffffffffffff841660009081526004602090815260408083209390935560ff602887901c16825281905220546112e99073ffffffffffffffffffffffffffffffffffffffff168386611b38565b50505050565b3360008181526002602052604090205464ffffffffff16806113795760405162461bcd60e51b815260206004820152602e60248201527f43616c6c6572206e6f7420726567697374657265642e2043616c6c206465706f60448201527f736974416e645265676973746572000000000000000000000000000000000000606482015260840161050f565b65ff0000000000602884901b1664ffffffffff8216176000818152600460205260409020546113a89086611da6565b65ffffffffffff821660009081526004602090815260408083209390935560ff8716825281905220546113f29073ffffffffffffffffffffffffffffffffffffffff16848761198b565b5050505050565b606060015b6101008160ff1610156114b15760ff811660009081526020819052604090205473ffffffffffffffffffffffffffffffffffffffff1661149f578060ff1660011415611448575090565b611453600182612177565b60ff1667ffffffffffffffff81111561146e5761146e612218565b604051908082528060200260200182016040528015611497578160200160208202803683370190505b5091506114b1565b806114a98161219a565b9150506113fe565b60015b8160ff168160ff1610156115415760ff811660009081526020819052604090205473ffffffffffffffffffffffffffffffffffffffff16836114f7600184612177565b60ff168151811061150a5761150a6121e9565b73ffffffffffffffffffffffffffffffffffffffff90921660209283029190910190910152806115398161219a565b9150506114b4565b505090565b84602081901c61ffff16603c1461159f5760405162461bcd60e51b815260206004820152601760248201527f53776170206e6f7420666f72207468697320636861696e000000000000000000604482015260640161050f565b6000868152600660205260409020547dffffffffffffffffffffffffffffffffffffffffffffffffffffffffffff161561161b5760405162461bcd60e51b815260206004820152601360248201527f5377617020616c72656164792065786973747300000000000000000000000000604482015260640161050f565b6116288686868686611c36565b3360009081526002602052604090205464ffffffffff16806116b25760405162461bcd60e51b815260206004820152602f60248201527f43616c6c6572206e6f7420726567697374657265642e2043616c6c206465706f60448201527f736974416e6452656769737465722e0000000000000000000000000000000000606482015260840161050f565b65ff0000000000601088901b1664ffffffffff8216176000818152600460205260409020546116e59060a08a901c611da6565b65ffffffffffff821660009081526004602052604081209190915573ffffffffffffffffffffffffffffffffffffffff85169060c86117266104b042612148565b60008c81526006602052604080822080547fffff000000000000000000000000000000000000000000000000000000000000167dffffffffffffffffffffffffffffffffffffffffffffffffffffffffffff94851690951b959095179590951790911691909117909155905189917fbfb879c34323c5601fafe832c3a8a1e31e12c288695838726ddeada86034edb491a25050505050505050565b73ffffffffffffffffffffffffffffffffffffffff8281166000908152600160209081526040808320549385168352600282528083205464ffffffffff1660289490941b65ff0000000000169390931782526004905220545b92915050565b73ffffffffffffffffffffffffffffffffffffffff81166118835760405162461bcd60e51b815260206004820152601e60248201527f5369676e65722063616e6e6f7420626520656d70747920616464726573730000604482015260640161050f565b60008681526020868152604080832082527f5ef297f2881340f11ed62c7c08e0e0c235c333ad8f340d7285f529f16716968a8352808320815193845291830180825282905260ff85169083015260608201869052608082018590529060019060a0016020604051602081039080840390855afa158015611907573d6000803e3d6000fd5b5050506020604051035173ffffffffffffffffffffffffffffffffffffffff168273ffffffffffffffffffffffffffffffffffffffff1614610da45760405162461bcd60e51b815260206004820152601160248201527f496e76616c6964207369676e6174757265000000000000000000000000000000604482015260640161050f565b6040805173ffffffffffffffffffffffffffffffffffffffff8481166024830152604480830185905283518084039091018152606490920183526020820180517bffffffffffffffffffffffffffffffffffffffffffffffffffffffff167fa9059cbb000000000000000000000000000000000000000000000000000000001790529151600092839290871691611a2291906120b3565b6000604051808303816000865af19150503d8060008114611a5f576040519150601f19603f3d011682016040523d82523d6000602084013e611a64565b606091505b5091509150818015611a8e575080511580611a8e575080806020019051810190611a8e9190611ea8565b6113f25760405162461bcd60e51b815260206004820152600f60248201527f5472616e73666572206661696c65640000000000000000000000000000000000604482015260640161050f565b600082611ae78382612148565b915081101561181a5760405162461bcd60e51b815260206004820152600860248201527f6f766572666c6f77000000000000000000000000000000000000000000000000604482015260640161050f565b60008111611b885760405162461bcd60e51b815260206004820181905260248201527f416d6f756e74206d7573742062652067726561746572207468616e207a65726f604482015260640161050f565b6040517f23b872dd00000000000000000000000000000000000000000000000000000000815273ffffffffffffffffffffffffffffffffffffffff8381166004830152306024830152604482018390528416906323b872dd90606401602060405180830381600087803b158015611bfe57600080fd5b505af1158015611c12573d6000803e3d6000fd5b505050506040513d601f19601f820116820180604052508101906112e99190611ea8565b73ffffffffffffffffffffffffffffffffffffffff8116611c995760405162461bcd60e51b815260206004820152601e60248201527f5369676e65722063616e6e6f7420626520656d70747920616464726573730000604482015260640161050f565b6000858152602080822081527f9862d877599564bcd97c37305a7b0fdbe621d9c2a125026f2ad601f754a75abc82526040808320815193845291830180825282905260ff85169083015260608201869052608082018590529060019060a0016020604051602081039080840390855afa158015611d1a573d6000803e3d6000fd5b5050506020604051035173ffffffffffffffffffffffffffffffffffffffff168273ffffffffffffffffffffffffffffffffffffffff1614611d9e5760405162461bcd60e51b815260206004820152601160248201527f496e76616c6964207369676e6174757265000000000000000000000000000000604482015260640161050f565b505050505050565b600082611db38382612160565b915081111561181a5760405162461bcd60e51b815260206004820152600960248201527f756e646572666c6f770000000000000000000000000000000000000000000000604482015260640161050f565b803573ffffffffffffffffffffffffffffffffffffffff81168114611e2857600080fd5b919050565b803564ffffffffff81168114611e2857600080fd5b803560ff81168114611e2857600080fd5b600060208284031215611e6557600080fd5b611e6e82611e04565b9392505050565b60008060408385031215611e8857600080fd5b611e9183611e04565b9150611e9f60208401611e04565b90509250929050565b600060208284031215611eba57600080fd5b8151611e6e81612247565b600060208284031215611ed757600080fd5b5035919050565b60008060008060008060c08789031215611ef757600080fd5b86359550602087013594506040870135935060608701359250611f1c60808801611e42565b915060a0870135611f2c81612247565b809150509295509295509295565b600080600080600060a08688031215611f5257600080fd5b853594506020860135935060408601359250611f7060608701611e42565b9150611f7e60808701611e04565b90509295509295909350565b600080600080600060a08688031215611fa257600080fd5b853594506020860135935060408601359250611fc060608701611e42565b9150608086013578ffffffffffffffffffffffffffffffffffffffffffffffffff81168114611fee57600080fd5b809150509295509295909350565b6000806040838503121561200f57600080fd5b82359150611e9f60208401611e2d565b6000806040838503121561203257600080fd5b82359150602083013565ffffffffffff8116811461204f57600080fd5b809150509250929050565b6000806040838503121561206d57600080fd5b82359150611e9f60208401611e42565b60006020828403121561208f57600080fd5b611e6e82611e2d565b6000602082840312156120aa57600080fd5b611e6e82611e42565b6000825160005b818110156120d457602081860181015185830152016120ba565b818111156120e3576000828501525b509190910192915050565b6020808252825182820181905260009190848201906040850190845b8181101561213c57835173ffffffffffffffffffffffffffffffffffffffff168352928401929184019160010161210a565b50909695505050505050565b6000821982111561215b5761215b6121ba565b500190565b600082821015612172576121726121ba565b500390565b600060ff821660ff841680821015612191576121916121ba565b90039392505050565b600060ff821660ff8114156121b1576121b16121ba565b60010192915050565b7f4e487b7100000000000000000000000000000000000000000000000000000000600052601160045260246000fd5b7f4e487b7100000000000000000000000000000000000000000000000000000000600052603260045260246000fd5b7f4e487b7100000000000000000000000000000000000000000000000000000000600052604160045260246000fd5b801515811461225557600080fd5b5056fea164736f6c6343000806000a",
  "linkReferences": {},
  "deployedLinkReferences": {}
}