{
  "_format": "hh-sol-artifact-1",
  "contractName": "Meson",
  "sourceName": "contracts/Meson.sol",
  "abi": [
    {
      "inputs": [
        {
          "internalType": "address[]",
          "name": "supportedTokens",
          "type": "address[]"
        }
      ],
      "stateMutability": "nonpayable",
      "type": "constructor"
    },
    {
      "anonymous": false,
      "inputs": [
        {
          "indexed": false,
          "internalType": "uint256",
          "name": "encodedSwap",
          "type": "uint256"
        }
      ],
      "name": "SwapBonded",
      "type": "event"
    },
    {
      "anonymous": false,
      "inputs": [
        {
          "indexed": false,
          "internalType": "uint256",
          "name": "encodedSwap",
          "type": "uint256"
        }
      ],
      "name": "SwapCancelled",
      "type": "event"
    },
    {
      "anonymous": false,
      "inputs": [
        {
          "indexed": false,
          "internalType": "uint256",
          "name": "encodedSwap",
          "type": "uint256"
        }
      ],
      "name": "SwapLocked",
      "type": "event"
    },
    {
      "anonymous": false,
      "inputs": [
        {
          "indexed": false,
          "internalType": "uint256",
          "name": "encodedSwap",
          "type": "uint256"
        }
      ],
      "name": "SwapPosted",
      "type": "event"
    },
    {
      "anonymous": false,
      "inputs": [
        {
          "indexed": false,
          "internalType": "uint256",
          "name": "encodedSwap",
          "type": "uint256"
        }
      ],
      "name": "SwapReleased",
      "type": "event"
    },
    {
      "anonymous": false,
      "inputs": [
        {
          "indexed": false,
          "internalType": "uint256",
          "name": "encodedSwap",
          "type": "uint256"
        }
      ],
      "name": "SwapRequested",
      "type": "event"
    },
    {
      "inputs": [
        {
          "internalType": "uint40",
          "name": "",
          "type": "uint40"
        }
      ],
      "name": "addressOfIndex",
      "outputs": [
        {
          "internalType": "address",
          "name": "",
          "type": "address"
        }
      ],
      "stateMutability": "view",
      "type": "function"
    },
    {
      "inputs": [
        {
          "internalType": "address",
          "name": "token",
          "type": "address"
        },
        {
          "internalType": "address",
          "name": "addr",
          "type": "address"
        }
      ],
      "name": "balanceOf",
      "outputs": [
        {
          "internalType": "uint128",
          "name": "",
          "type": "uint128"
        }
      ],
      "stateMutability": "view",
      "type": "function"
    },
    {
      "inputs": [
        {
          "internalType": "uint256",
          "name": "encodedSwap",
          "type": "uint256"
        },
        {
          "internalType": "uint40",
          "name": "providerIndex",
          "type": "uint40"
        }
      ],
      "name": "bondSwap",
      "outputs": [],
      "stateMutability": "nonpayable",
      "type": "function"
    },
    {
      "inputs": [
        {
          "internalType": "uint256",
          "name": "encodedSwap",
          "type": "uint256"
        }
      ],
      "name": "cancelSwap",
      "outputs": [],
      "stateMutability": "nonpayable",
      "type": "function"
    },
    {
      "inputs": [
        {
          "internalType": "uint128",
          "name": "amount",
          "type": "uint128"
        },
        {
          "internalType": "uint48",
          "name": "balanceIndex",
          "type": "uint48"
        }
      ],
      "name": "deposit",
      "outputs": [],
      "stateMutability": "nonpayable",
      "type": "function"
    },
    {
      "inputs": [
        {
          "internalType": "uint128",
          "name": "amount",
          "type": "uint128"
        },
        {
          "internalType": "uint48",
          "name": "balanceIndex",
          "type": "uint48"
        }
      ],
      "name": "depositAndRegister",
      "outputs": [],
      "stateMutability": "nonpayable",
      "type": "function"
    },
    {
      "inputs": [
        {
          "internalType": "uint256",
          "name": "encodedSwap",
          "type": "uint256"
        },
        {
          "internalType": "bytes32",
          "name": "recipientHash",
          "type": "bytes32"
        },
        {
          "internalType": "bytes32",
          "name": "r",
          "type": "bytes32"
        },
        {
          "internalType": "bytes32",
          "name": "s",
          "type": "bytes32"
        },
        {
          "internalType": "uint8",
          "name": "v",
          "type": "uint8"
        },
        {
          "internalType": "bool",
          "name": "depositToPool",
          "type": "bool"
        }
      ],
      "name": "executeSwap",
      "outputs": [],
      "stateMutability": "nonpayable",
      "type": "function"
    },
    {
      "inputs": [
        {
          "internalType": "uint256",
          "name": "encodedSwap",
          "type": "uint256"
        }
      ],
      "name": "getLockedSwap",
      "outputs": [
        {
          "internalType": "address",
          "name": "initiator",
          "type": "address"
        },
        {
          "internalType": "address",
          "name": "provider",
          "type": "address"
        },
        {
          "internalType": "uint40",
          "name": "until",
          "type": "uint40"
        }
      ],
      "stateMutability": "view",
      "type": "function"
    },
    {
      "inputs": [],
      "name": "getShortCoinType",
      "outputs": [
        {
          "internalType": "bytes2",
          "name": "",
          "type": "bytes2"
        }
      ],
      "stateMutability": "pure",
      "type": "function"
    },
    {
      "inputs": [
        {
          "internalType": "address",
          "name": "",
          "type": "address"
        }
      ],
      "name": "indexOfAddress",
      "outputs": [
        {
          "internalType": "uint40",
          "name": "",
          "type": "uint40"
        }
      ],
      "stateMutability": "view",
      "type": "function"
    },
    {
      "inputs": [
        {
          "internalType": "address",
          "name": "token",
          "type": "address"
        }
      ],
      "name": "indexOfToken",
      "outputs": [
        {
          "internalType": "uint8",
          "name": "",
          "type": "uint8"
        }
      ],
      "stateMutability": "view",
      "type": "function"
    },
    {
      "inputs": [
        {
          "internalType": "uint256",
          "name": "encodedSwap",
          "type": "uint256"
        },
        {
          "internalType": "bytes32",
          "name": "r",
          "type": "bytes32"
        },
        {
          "internalType": "bytes32",
          "name": "s",
          "type": "bytes32"
        },
        {
          "internalType": "uint8",
          "name": "v",
          "type": "uint8"
        },
        {
          "internalType": "address",
          "name": "initiator",
          "type": "address"
        }
      ],
      "name": "lock",
      "outputs": [],
      "stateMutability": "nonpayable",
      "type": "function"
    },
    {
      "inputs": [
        {
          "internalType": "uint256",
          "name": "encodedSwap",
          "type": "uint256"
        },
        {
          "internalType": "bytes32",
          "name": "r",
          "type": "bytes32"
        },
        {
          "internalType": "bytes32",
          "name": "s",
          "type": "bytes32"
        },
        {
          "internalType": "uint208",
          "name": "packedData",
          "type": "uint208"
        }
      ],
      "name": "postSwap",
      "outputs": [],
      "stateMutability": "nonpayable",
      "type": "function"
    },
    {
      "inputs": [
        {
          "internalType": "uint256",
          "name": "encodedSwap",
          "type": "uint256"
        },
        {
          "internalType": "bytes32",
          "name": "r",
          "type": "bytes32"
        },
        {
          "internalType": "bytes32",
          "name": "s",
          "type": "bytes32"
        },
        {
          "internalType": "uint8",
          "name": "v",
          "type": "uint8"
        },
        {
          "internalType": "address",
          "name": "recipient",
          "type": "address"
        }
      ],
      "name": "release",
      "outputs": [],
      "stateMutability": "nonpayable",
      "type": "function"
    },
    {
      "inputs": [
        {
          "internalType": "uint256",
          "name": "encodedSwap",
          "type": "uint256"
        }
      ],
      "name": "requestSwap",
      "outputs": [],
      "stateMutability": "nonpayable",
      "type": "function"
    },
    {
      "inputs": [],
      "name": "supportedTokens",
      "outputs": [
        {
          "internalType": "address[]",
          "name": "tokens",
          "type": "address[]"
        }
      ],
      "stateMutability": "view",
      "type": "function"
    },
    {
      "inputs": [
        {
          "internalType": "uint256",
          "name": "encodedSwap",
          "type": "uint256"
        }
      ],
      "name": "swapInitiator",
      "outputs": [
        {
          "internalType": "address",
          "name": "",
          "type": "address"
        }
      ],
      "stateMutability": "view",
      "type": "function"
    },
    {
      "inputs": [
        {
          "internalType": "uint256",
          "name": "encodedSwap",
          "type": "uint256"
        }
      ],
      "name": "swapProvider",
      "outputs": [
        {
          "internalType": "address",
          "name": "",
          "type": "address"
        }
      ],
      "stateMutability": "view",
      "type": "function"
    },
    {
      "inputs": [
        {
          "internalType": "uint8",
          "name": "tokenIndex",
          "type": "uint8"
        }
      ],
      "name": "tokenForIndex",
      "outputs": [
        {
          "internalType": "address",
          "name": "",
          "type": "address"
        }
      ],
      "stateMutability": "view",
      "type": "function"
    },
    {
      "inputs": [
        {
          "internalType": "uint256",
          "name": "encodedSwap",
          "type": "uint256"
        }
      ],
      "name": "unlock",
      "outputs": [],
      "stateMutability": "nonpayable",
      "type": "function"
    },
    {
      "inputs": [
        {
          "internalType": "uint128",
          "name": "amount",
          "type": "uint128"
        },
        {
          "internalType": "uint8",
          "name": "tokenIndex",
          "type": "uint8"
        }
      ],
      "name": "withdraw",
      "outputs": [],
      "stateMutability": "nonpayable",
      "type": "function"
    }
  ],
  "bytecode": "0x60806040523480156200001157600080fd5b506040516200298b3803806200298b833981016040819052620000349162000169565b60005b81518160ff16101562000092576200007d828260ff1681518110620000605762000060620002a3565b602002602001015182600162000077919062000242565b6200009a565b8062000089816200026a565b91505062000037565b5050620002cf565b60ff8116620000ef5760405162461bcd60e51b815260206004820152601b60248201527f43616e6e6f7420757365203020617320746f6b656e20696e6465780000000000604482015260640160405180910390fd5b6001600160a01b03919091166000818152602081815260408083208054600160ff19918216811790925560028452828520805490911660ff90971696871790559483529390529190912080546001600160a01b0319169091179055565b80516001600160a01b03811681146200016457600080fd5b919050565b600060208083850312156200017d57600080fd5b82516001600160401b03808211156200019557600080fd5b818501915085601f830112620001aa57600080fd5b815181811115620001bf57620001bf620002b9565b8060051b604051601f19603f83011681018181108582111715620001e757620001e7620002b9565b604052828152858101935084860182860187018a10156200020757600080fd5b600095505b83861015620002355762000220816200014c565b8552600195909501949386019386016200020c565b5098975050505050505050565b600060ff821660ff84168060ff038211156200026257620002626200028d565b019392505050565b600060ff821660ff8114156200028457620002846200028d565b60010192915050565b634e487b7160e01b600052601160045260246000fd5b634e487b7160e01b600052603260045260246000fd5b634e487b7160e01b600052604160045260246000fd5b6126ac80620002df6000396000f3fe608060405234801561001057600080fd5b50600436106101775760003560e01c80639033ed08116100d8578063d3705a921161008c578063f7888aec11610066578063f7888aec1461049e578063ff378719146104d2578063ffa96ec41461050b57600080fd5b8063d3705a92146103a9578063e76afb54146103bc578063eba7fb771461047157600080fd5b8063b002249d116100bd578063b002249d1461034b578063b3df5b3614610360578063be18e8a41461039657600080fd5b80639033ed08146103255780639432984f1461033857600080fd5b806338b0b63f1161012f57806360b9d9731161011457806360b9d973146102b55780636198e339146102ff5780637c8501871461031257600080fd5b806338b0b63f1461024457806354d6a2b7146102a257600080fd5b80632217d483116101605780632217d483146101d35780632335093c146101e657806335eff30f1461023157600080fd5b80630b9b44af1461017c5780631aba3a5514610191575b600080fd5b61018f61018a3660046123e3565b61051e565b005b6101b861019f366004612230565b60036020526000908152604090205464ffffffffff1681565b60405164ffffffffff90911681526020015b60405180910390f35b61018f6101e136600461230e565b6106a9565b61021f6101f4366004612230565b73ffffffffffffffffffffffffffffffffffffffff1660009081526002602052604090205460ff1690565b60405160ff90911681526020016101ca565b61018f61023f366004612433565b610827565b61027d61025236600461230e565b60009081526006602052604090205460281c73ffffffffffffffffffffffffffffffffffffffff1690565b60405173ffffffffffffffffffffffffffffffffffffffff90911681526020016101ca565b61018f6102b036600461230e565b610986565b61027d6102c336600461230e565b60009081526006602090815260408083205464ffffffffff168352600490915290205473ffffffffffffffffffffffffffffffffffffffff1690565b61018f61030d36600461230e565b610b0b565b61018f610320366004612327565b610cfc565b61018f6103333660046122a2565b610e90565b61018f6103463660046122e4565b610fc7565b610353611122565b6040516101ca91906124c7565b61027d61036e366004612456565b60046020526000908152604090205473ffffffffffffffffffffffffffffffffffffffff1681565b61018f6103a43660046123e3565b611273565b61018f6103b73660046122a2565b611538565b6104376103ca36600461230e565b60009081526007602090815260408083205464ffffffffff60a082901c8116855260049093529220547dffffffffffffffffffffffffffffffffffffffffffffffffffffffffffff83169373ffffffffffffffffffffffffffffffffffffffff9091169260c81c90911690565b6040805173ffffffffffffffffffffffffffffffffffffffff948516815293909216602084015264ffffffffff16908201526060016101ca565b6040517e3c00000000000000000000000000000000000000000000000000000000000081526020016101ca565b6104b16104ac366004612252565b611831565b6040516fffffffffffffffffffffffffffffffff90911681526020016101ca565b61027d6104e0366004612471565b60ff1660009081526001602052604090205473ffffffffffffffffffffffffffffffffffffffff1690565b61018f610519366004612383565b6118a2565b6000858152600760205260409020547dffffffffffffffffffffffffffffffffffffffffffffffffffffffffffff168061059f5760405162461bcd60e51b815260206004820152601360248201527f5377617020646f6573206e6f742065786973740000000000000000000000000060448201526064015b60405180910390fd5b6040517fffffffffffffffffffffffffffffffffffffffff000000000000000000000000606084901b1660208201526105f69087906034016040516020818303038152906040528051906020012087878786611a34565b60ff601887901c1660009081526001602052604090205473ffffffffffffffffffffffffffffffffffffffff16610632818460808a901c611b9f565b6000878152600760205260409081902080547fffff000000000000000000000000000000000000000000000000000000000000169055517ffa628b578e095243f0544bfad9255f49d79d03a5bbf6c85875d05a215e247ad2906106989089815260200190565b60405180910390a150505050505050565b80600881901c61ffff16603c146107025760405162461bcd60e51b815260206004820152601760248201527f53776170206e6f7420666f72207468697320636861696e0000000000000000006044820152606401610596565b60008281526006602052604090205478ffffffffffffffffffffffffffffffffffffffffffffffffff16156107795760405162461bcd60e51b815260206004820152601360248201527f5377617020616c726561647920657869737473000000000000000000000000006044820152606401610596565b600033600084815260066020526040812080547fffffffffffffff000000000000000000000000000000000000000000000000001678ffffffffffffffffffffffffffffffffffffffff0000000000602885901b16179055909150806107de85611d1e565b915091506107ed818484611e9f565b6040518581527fffb55ec353614a34485412bc8d469fe16d3c7f0a963be6dd266938f8ff7d6c3f9060200160405180910390a15050505050565b60008281526006602052604090205478ffffffffffffffffffffffffffffffffffffffffffffffffff168061089e5760405162461bcd60e51b815260206004820152601360248201527f5377617020646f6573206e6f74206578697374000000000000000000000000006044820152606401610596565b64ffffffffff8116156108f35760405162461bcd60e51b815260206004820152601f60248201527f5377617020626f6e64656420746f20616e6f746865722070726f7669646572006044820152606401610596565b60008381526006602090815260409182902080547fffffffffffffff000000000000000000000000000000000000000000000000001664ffffffffff861678ffffffffffffffffffffffffffffffffffffffffffffffffff86161717905590518481527f60a99b51ae498c44acbbe11031aed2a06a32be66d2122e6e2a7a16c087865cc9910160405180910390a1505050565b60008181526006602052604090205478ffffffffffffffffffffffffffffffffffffffffffffffffff16806109fd5760405162461bcd60e51b815260206004820152601360248201527f5377617020646f6573206e6f74206578697374000000000000000000000000006044820152606401610596565b4264ffffffffff16603083901c64ffffffffff1610610a5e5760405162461bcd60e51b815260206004820152601460248201527f53776170206973207374696c6c206c6f636b65640000000000000000000000006044820152606401610596565b60ff8216600090815260016020908152604080832054858452600690925290912080547fffffffffffffff0000000000000000000000000000000000000000000000000016905573ffffffffffffffffffffffffffffffffffffffff602883901c81169116610ad28183608087901c611b9f565b6040518481527ff6b6b4f7a13f02512c1b3aa8dcc4a07d7775a6a4becbd439efcbd37c5408e67f9060200160405180910390a150505050565b6000818152600760205260409020547dffffffffffffffffffffffffffffffffffffffffffffffffffffffffffff1680610b875760405162461bcd60e51b815260206004820152601360248201527f5377617020646f6573206e6f74206578697374000000000000000000000000006044820152606401610596565b807dffffffffffffffffffffffffffffffffffffffffffffffffffffffffffff1660c842901b7dffffffffffffffffffffffffffffffffffffffffffffffffffffffffffff1611610c1a5760405162461bcd60e51b815260206004820152601260248201527f53776170207374696c6c20696e206c6f636b00000000000000000000000000006044820152606401610596565b65ff0000000000601083901b1664ffffffffff60a083901c1617600081815260056020526040902054608084901c91601885901c91610c6b906fffffffffffffffffffffffffffffffff1684611f4d565b65ffffffffffff91909116600090815260056020908152604080832080547fffffffffffffffffffffffffffffffff00000000000000000000000000000000166fffffffffffffffffffffffffffffffff90951694909417909355958152600790955290932080547fffff000000000000000000000000000000000000000000000000000000000000169055505050565b600086815260066020526040902080547fffffffffffffff00000000000000000000000000000000000000000000000000811690915578ffffffffffffffffffffffffffffffffffffffffffffffffff168115610e0957601581815260108051908990526000519151909190610d768a8a8a8a8a88611a34565b65ffffffffffff8116600090815260056020526040902054610daa906fffffffffffffffffffffffffffffffff1683611f4d565b65ffffffffffff91909116600090815260056020526040902080547fffffffffffffffffffffffffffffffff00000000000000000000000000000000166fffffffffffffffffffffffffffffffff90921691909117905550610e879050565b610e36878787878760288778ffffffffffffffffffffffffffffffffffffffffffffffffff16901c611a34565b60ff871660009081526001602090815260408083205464ffffffffff85168452600490925290912054610e879173ffffffffffffffffffffffffffffffffffffffff908116911660808a901c611b9f565b50505050505050565b6000826fffffffffffffffffffffffffffffffff1611610ef25760405162461bcd60e51b815260206004820152601760248201527f416d6f756e74206d75737420626520706f7369746976650000000000000000006044820152606401610596565b65ffffffffffff8116600090815260056020526040902054610f26906fffffffffffffffffffffffffffffffff1683611f4d565b65ffffffffffff8216600090815260056020908152604080832080547fffffffffffffffffffffffffffffffff00000000000000000000000000000000166fffffffffffffffffffffffffffffffff9590951694909417909355602884901c60ff168252600190522054610fc39073ffffffffffffffffffffffffffffffffffffffff1633846fffffffffffffffffffffffffffffffff16611e9f565b5050565b3360008181526003602052604090205464ffffffffff16806110515760405162461bcd60e51b815260206004820152602e60248201527f43616c6c6572206e6f7420726567697374657265642e2043616c6c206465706f60448201527f736974416e6452656769737465720000000000000000000000000000000000006064820152608401610596565b65ff0000000000602884901b1664ffffffffff821617600081815260056020526040902054611092906fffffffffffffffffffffffffffffffff1686611fcf565b65ffffffffffff8216600090815260056020908152604080832080547fffffffffffffffffffffffffffffffff00000000000000000000000000000000166fffffffffffffffffffffffffffffffff95861617905560ff88168352600190915290205461111b9173ffffffffffffffffffffffffffffffffffffffff9091169085908816611b9f565b5050505050565b606060015b6101008160ff1610156111da5760ff811660009081526001602052604090205473ffffffffffffffffffffffffffffffffffffffff166111c8578060ff1660011415611171575090565b61117c6001826125be565b60ff1667ffffffffffffffff8111156111975761119761265f565b6040519080825280602002602001820160405280156111c0578160200160208202803683370190505b5091506111da565b806111d2816125e1565b915050611127565b60015b8160ff168160ff16101561126e5760ff811660009081526001602081905260409091205473ffffffffffffffffffffffffffffffffffffffff1690849061122490846125be565b60ff168151811061123757611237612630565b73ffffffffffffffffffffffffffffffffffffffff9092166020928302919091019091015280611266816125e1565b9150506111dd565b505090565b84602081901c61ffff16603c146112cc5760405162461bcd60e51b815260206004820152601760248201527f53776170206e6f7420666f72207468697320636861696e0000000000000000006044820152606401610596565b6000868152600760205260409020547dffffffffffffffffffffffffffffffffffffffffffffffffffffffffffff16156113485760405162461bcd60e51b815260206004820152601360248201527f5377617020616c726561647920657869737473000000000000000000000000006044820152606401610596565b6113558686868686612051565b3360009081526003602052604090205464ffffffffff16806113df5760405162461bcd60e51b815260206004820152602f60248201527f43616c6c6572206e6f7420726567697374657265642e2043616c6c206465706f60448201527f736974416e6452656769737465722e00000000000000000000000000000000006064820152608401610596565b600080806113ef6104b042612555565b6020878152600c86815260188d901c600790815260008051925191859052835165ffffffffffff831682526005909452604090205460309290921c965094509192509061144e906fffffffffffffffffffffffffffffffff1685611fcf565b65ffffffffffff8416600090815260056020908152604080832080547fffffffffffffffffffffffffffffffff00000000000000000000000000000000166fffffffffffffffffffffffffffffffff95909516949094179093558d8252600781529082902080547fffff000000000000000000000000000000000000000000000000000000000000167dffffffffffffffffffffffffffffffffffffffffffffffffffffffffffff851617905590518c81527fbfb879c34323c5601fafe832c3a8a1e31e12c288695838726ddeada86034edb4910160405180910390a15050505050505050505050565b6000826fffffffffffffffffffffffffffffffff161161159a5760405162461bcd60e51b815260206004820152601760248201527f416d6f756e74206d75737420626520706f7369746976650000000000000000006044820152606401610596565b338164ffffffffff81166115f05760405162461bcd60e51b815260206004820152601e60248201527f43616e6e6f742075736520302061732070726f766964657220696e64657800006044820152606401610596565b64ffffffffff811660009081526004602052604090205473ffffffffffffffffffffffffffffffffffffffff161561166a5760405162461bcd60e51b815260206004820152601860248201527f496e64657820616c7265616479207265676973746572656400000000000000006044820152606401610596565b73ffffffffffffffffffffffffffffffffffffffff821660009081526003602052604090205464ffffffffff16156116e45760405162461bcd60e51b815260206004820152601a60248201527f4164647265737320616c726561647920726567697374657265640000000000006044820152606401610596565b64ffffffffff8116600081815260046020908152604080832080547fffffffffffffffffffffffff00000000000000000000000000000000000000001673ffffffffffffffffffffffffffffffffffffffff881690811790915583526003825280832080547fffffffffffffffffffffffffffffffffffffffffffffffffffffff00000000001690941790935565ffffffffffff8616825260059052205461179e906fffffffffffffffffffffffffffffffff1685611f4d565b65ffffffffffff8416600090815260056020908152604080832080547fffffffffffffffffffffffffffffffff00000000000000000000000000000000166fffffffffffffffffffffffffffffffff958616179055602887901c60ff168352600190915290205461182b9173ffffffffffffffffffffffffffffffffffffffff9091169084908716611e9f565b50505050565b73ffffffffffffffffffffffffffffffffffffffff8281166000908152600260209081526040808320549385168352600382528083205464ffffffffff1660289490941b65ff0000000000169390931782526005905220546fffffffffffffffffffffffffffffffff165b92915050565b83600881901c61ffff16603c146118fb5760405162461bcd60e51b815260206004820152601760248201527f53776170206e6f7420666f72207468697320636861696e0000000000000000006044820152606401610596565b60008581526006602052604090205478ffffffffffffffffffffffffffffffffffffffffffffffffff16156119725760405162461bcd60e51b815260206004820152601360248201527f5377617020616c726561647920657869737473000000000000000000000000006044820152606401610596565b6020829052600751601b518361198b8888888686612051565b600088815260066020526040812080547fffffffffffffff000000000000000000000000000000000000000000000000001678ffffffffffffffffffffffffffffffffffffffffffffffffff8416179055806119e68a611d1e565b915091506119f5818584611e9f565b6040518a81527f5ce4019f772fda6cb703b26bce3ec3006eb36b73f1d3a0eb441213317d9f5e9d9060200160405180910390a150505050505050505050565b73ffffffffffffffffffffffffffffffffffffffff8116611a975760405162461bcd60e51b815260206004820152601e60248201527f5369676e65722063616e6e6f7420626520656d707479206164647265737300006044820152606401610596565b60008681526020868152604080832082527f5ef297f2881340f11ed62c7c08e0e0c235c333ad8f340d7285f529f16716968a8352808320815193845291830180825282905260ff85169083015260608201869052608082018590529060019060a0016020604051602081039080840390855afa158015611b1b573d6000803e3d6000fd5b5050506020604051035173ffffffffffffffffffffffffffffffffffffffff168273ffffffffffffffffffffffffffffffffffffffff1614610e875760405162461bcd60e51b815260206004820152601160248201527f496e76616c6964207369676e61747572650000000000000000000000000000006044820152606401610596565b604080518082018252601981527f7472616e7366657228616464726573732c75696e743235362900000000000000602091820152815173ffffffffffffffffffffffffffffffffffffffff85811660248301526044808301869052845180840390910181526064909201845291810180517bffffffffffffffffffffffffffffffffffffffffffffffffffffffff167fa9059cbb0000000000000000000000000000000000000000000000000000000017905291516000928392871691611c66919061248c565b6000604051808303816000865af19150503d8060008114611ca3576040519150601f19603f3d011682016040523d82523d6000602084013e611ca8565b606091505b5091509150818015611cd2575080511580611cd2575080806020019051810190611cd29190612285565b61111b5760405162461bcd60e51b815260206004820152600f60248201527f5472616e73666572206661696c656400000000000000000000000000000000006044820152606401610596565b608081901c600081611d985760405162461bcd60e51b815260206004820152602560248201527f5377617020616d6f756e74206d7573742062652067726561746572207468616e60448201527f207a65726f0000000000000000000000000000000000000000000000000000006064820152608401610596565b5060ff821660009081526001602052604090205473ffffffffffffffffffffffffffffffffffffffff16603083901c42611dd4610e108261256d565b64ffffffffff168264ffffffffff1611611e305760405162461bcd60e51b815260206004820152601360248201527f45787069726520747320746f6f206561726c79000000000000000000000000006044820152606401610596565b611e3c611c208261256d565b64ffffffffff168264ffffffffff1610611e985760405162461bcd60e51b815260206004820152601260248201527f45787069726520747320746f6f206c61746500000000000000000000000000006044820152606401610596565b5050915091565b6040517f23b872dd00000000000000000000000000000000000000000000000000000000815273ffffffffffffffffffffffffffffffffffffffff8381166004830152306024830152604482018390528416906323b872dd90606401602060405180830381600087803b158015611f1557600080fd5b505af1158015611f29573d6000803e3d6000fd5b505050506040513d601f19601f8201168201806040525081019061182b9190612285565b60006fffffffffffffffffffffffffffffffff8316611f6c8385612521565b9150816fffffffffffffffffffffffffffffffff16101561189c5760405162461bcd60e51b815260206004820152600860248201527f6f766572666c6f770000000000000000000000000000000000000000000000006044820152606401610596565b60006fffffffffffffffffffffffffffffffff8316611fee838561258d565b9150816fffffffffffffffffffffffffffffffff16111561189c5760405162461bcd60e51b815260206004820152600960248201527f756e646572666c6f7700000000000000000000000000000000000000000000006044820152606401610596565b73ffffffffffffffffffffffffffffffffffffffff81166120b45760405162461bcd60e51b815260206004820152601e60248201527f5369676e65722063616e6e6f7420626520656d707479206164647265737300006044820152606401610596565b6000858152602080822081527f9862d877599564bcd97c37305a7b0fdbe621d9c2a125026f2ad601f754a75abc82526040808320815193845291830180825282905260ff85169083015260608201869052608082018590529060019060a0016020604051602081039080840390855afa158015612135573d6000803e3d6000fd5b5050506020604051035173ffffffffffffffffffffffffffffffffffffffff168273ffffffffffffffffffffffffffffffffffffffff16146121b95760405162461bcd60e51b815260206004820152601160248201527f496e76616c6964207369676e61747572650000000000000000000000000000006044820152606401610596565b505050505050565b803573ffffffffffffffffffffffffffffffffffffffff811681146121e557600080fd5b919050565b80356fffffffffffffffffffffffffffffffff811681146121e557600080fd5b803564ffffffffff811681146121e557600080fd5b803560ff811681146121e557600080fd5b60006020828403121561224257600080fd5b61224b826121c1565b9392505050565b6000806040838503121561226557600080fd5b61226e836121c1565b915061227c602084016121c1565b90509250929050565b60006020828403121561229757600080fd5b815161224b8161268e565b600080604083850312156122b557600080fd5b6122be836121ea565b9150602083013565ffffffffffff811681146122d957600080fd5b809150509250929050565b600080604083850312156122f757600080fd5b612300836121ea565b915061227c6020840161221f565b60006020828403121561232057600080fd5b5035919050565b60008060008060008060c0878903121561234057600080fd5b863595506020870135945060408701359350606087013592506123656080880161221f565b915060a08701356123758161268e565b809150509295509295509295565b6000806000806080858703121561239957600080fd5b843593506020850135925060408501359150606085013579ffffffffffffffffffffffffffffffffffffffffffffffffffff811681146123d857600080fd5b939692955090935050565b600080600080600060a086880312156123fb57600080fd5b8535945060208601359350604086013592506124196060870161221f565b9150612427608087016121c1565b90509295509295909350565b6000806040838503121561244657600080fd5b8235915061227c6020840161220a565b60006020828403121561246857600080fd5b61224b8261220a565b60006020828403121561248357600080fd5b61224b8261221f565b6000825160005b818110156124ad5760208186018101518583015201612493565b818111156124bc576000828501525b509190910192915050565b6020808252825182820181905260009190848201906040850190845b8181101561251557835173ffffffffffffffffffffffffffffffffffffffff16835292840192918401916001016124e3565b50909695505050505050565b60006fffffffffffffffffffffffffffffffff80831681851680830382111561254c5761254c612601565b01949350505050565b6000821982111561256857612568612601565b500190565b600064ffffffffff80831681851680830382111561254c5761254c612601565b60006fffffffffffffffffffffffffffffffff838116908316818110156125b6576125b6612601565b039392505050565b600060ff821660ff8416808210156125d8576125d8612601565b90039392505050565b600060ff821660ff8114156125f8576125f8612601565b60010192915050565b7f4e487b7100000000000000000000000000000000000000000000000000000000600052601160045260246000fd5b7f4e487b7100000000000000000000000000000000000000000000000000000000600052603260045260246000fd5b7f4e487b7100000000000000000000000000000000000000000000000000000000600052604160045260246000fd5b801515811461269c57600080fd5b5056fea164736f6c6343000806000a",
  "linkReferences": {},
  "deployedLinkReferences": {}
}